:100000000C9473000C9490000C9490000C9490004D
:100010000C9490000C9490000C9490000C94900020
:100020000C9490000C9490000C9490000C94900010
:100030000C9490000C9490000C9490000C94900000
:100040000C9490000C9490000C946F0C0C94900005
:100050000C94860D0C94560E0C9490000C94900009
:100060000C9490000C9490000C9490000C949000D0
:100070000C94B20D0C94820E0C949000036EDB363F
:100080003D9A9999993DABAAAA2A3E000000803F6B
:10009000084AD73B3BCE016E84BCBFFDC12F3D6CEF
:1000A00074319ABD56833DDA3D00C77F11BED9E455
:1000B000BB4C3E916BAAAABE000000803F072C7A81
:1000C000A5BA6CC590DA3B9365FC8BBC53F810FD68
:1000D0003C5692834DBD879D3AB63DCBC9BF5BBEB2
:1000E00073DA0FC93F0011241FBECFEFD0E1DEBF8E
:1000F000CDBF12E0A0E0B1E0E8EFFFE202C0059062
:100100000D92AC30B107D9F712E0ACE0B2E001C01B
:100110001D92AC3BB107E1F70E9492000C94FA17D4
:100120000C9400002F923F924F925F926F927F92B9
:100130008F929F92AF92BF92CF92DF92EF92FF92F7
:100140000F931F93DF93CF93CDB7DEB76C970FB6A6
:10015000F894DEBF0FBECDBF80E090E0A0E8BFE323
:1001600089839A83AB83BC8380E090E0A0E0B0E019
:100170008D839E83AF83B88789879A87AB87BC8737
:100180008D879E87AF87B88B898B9A8BAB8BBC8B07
:100190008D8B9E8BAF8BB88F898F9A8FAB8FBC8FD7
:1001A0008CE090E00E94DC0D78940E94B60A84EF07
:1001B00091E02CE231E0F9013197F1F70197D9F79D
:1001C00085E0482E512C4C0E5D1E09E0602E712CEE
:1001D0006C0E7D1E1DE0812E912C8C0E9D1E5E01ED
:1001E0000894A11CB11CB1E1CB2ED12CCC0EDD1E8C
:1001F000A5E1EA2EF12CEC0EFD1E8E01075E1F4FCD
:10020000F0E32F2EF5E73F2EC501B201A3019401C3
:100210000E94C501C601B701A8010E94FA01C101EF
:100220000197F1F7F50180810E94130EF50180819D
:100230009181A281B381892F9A2FAB2FBB27A7FD74
:10024000BA950E94130EF50182810E94130EF501EA
:1002500083810E94130EF20180810E94130EF2012D
:1002600080819181A281B381892F9A2FAB2FBB27E7
:10027000A7FDBA950E94130EF20182810E94130E0F
:10028000F20183810E94130EF30180810E94130EFC
:10029000F30180819181A281B381892F9A2FAB2FA5
:1002A000BB27A7FDBA950E94130EF30182810E941D
:1002B000130EF30183810E94130EF40180810E94CA
:1002C000130EF40180819181A281B381892F9A2F2D
:1002D000AB2FBB27A7FDBA950E94130EF4018281B4
:1002E0000E94130EF40183810E94130EF601808197
:1002F0000E94130EF60180819181A281B381892F22
:100300009A2FAB2FBB27A7FDBA950E94130EF601BB
:1003100082810E94130EF60183810E94130EF70161
:1003200080810E94130EF70180819181A281B381A7
:10033000892F9A2FAB2FBB27A7FDBA950E94130ECA
:10034000F70182810E94130EF70183810E94130E30
:10035000F80180810E94130EF80180819181A281B1
:10036000B381892F9A2FAB2FBB27A7FDBA950E9487
:10037000130EF80182810E94130EF80183810E94FE
:10038000130E8AE00E94130E3FCFFC018091000102
:1003900090910101A0910201B091030180839183AA
:1003A000A283B38380910C0290910D02A0910E0262
:1003B000B0910F02FB0180839183A283B38380916C
:1003C000100290911102A0911202B0911302FA0151
:1003D00080839183A283B38380911402909115024C
:1003E000A0911602B0911702F90180839183A28334
:1003F000B38308952F923F924F925F926F927F92B4
:100400008F929F92AF92BF92CF92DF92EF92FF9224
:100410000F931F93DF93CF93CDB7DEB76E970FB6D1
:10042000F894DEBF0FBECDBF9A8F898F7C8F6B8F04
:100430005E8F4D8F20910C0230910D0240910E0283
:1004400050910F02E0901002F09011020091120200
:1004500010911302A0900001B0900101C090020120
:10046000D0900301209014023090150240901602A3
:10047000509017026090000170900101809002017D
:10048000909003018091000190910101A0910201DF
:10049000B09103018D8B9E8BAF8BB88F80910C0236
:1004A00090910D02A0910E02B0910F02898B9A8B50
:1004B000AB8BBC8B80910C0290910D02A0910E022F
:1004C000B0910F028D879E87AF87B88BCA01B901A3
:1004D0000E94A310A80197010E94D0107B018C01FB
:1004E000C601B50120E030E040E050EC0E94D010A1
:1004F000A20191010E94D0109B01AC01C801B7017B
:100500000E94A3105B016C01C401B301A40193011B
:100510000E94A3102D893E894F89588D0E94D010CA
:100520007B018C0169897A898B899C899B01AC014B
:100530000E94A3102D853E854F8558890E94D010BA
:100540009B01AC01C801B7010E94A31020E030E07C
:1005500040E85FE30E9472109B01AC01C601B50147
:100560000E947D15AD8DBE8D6D937D938D939C9373
:10057000139720910C0230910D0240910E02509180
:100580000F02A0901402B0901502C0901602D090F5
:100590001702E0900001F09001010091020110911A
:1005A00003016090100270901102809012029090EE
:1005B0001302CA01B9010E94A310A60195010E946D
:1005C000D0105B016C01C801B701A80197010E941E
:1005D000A310A40193010E94D0109B01AC01C6019D
:1005E000B5010E94A3100E9457159058EB8DFC8D09
:1005F0006083718382839383209110023091110272
:100600004091120250911302E0901402F0901502F2
:100610000091160210911702A0900001B090010104
:10062000C0900201D090030120900C0230900D0286
:1006300040900E0250900F026090000170900101F6
:10064000809002019090030180910001909101013E
:10065000A0910201B091030189879A87AB87BC877B
:100660008091140290911502A0911602B091170288
:100670008D839E83AF83B887809114029091150279
:10068000A0911602B091170289839A83AB83BC8331
:10069000CA01B9010E94A310A80197010E94D010BD
:1006A0007B018C01C601B50120E030E040E050EC58
:1006B0000E94D010A20191010E94D0109B01AC01B8
:1006C000C801B7010E94A3105B016C01C401B30112
:1006D000A40193010E94A31029853A854B855C856E
:1006E0000E94D0107B018C016D817E818F81988565
:1006F0009B01AC010E94A31029813A814B815C814E
:100700000E94D0109B01AC01C801B7010E94A31048
:1007100020E030E040E85FE30E9472109B01AC01F2
:10072000C601B5010E947D15A98DBA8D6D937D938B
:100730008D939C9313976E960FB6F894DEBF0FBE01
:10074000CDBFCF91DF911F910F91FF90EF90DF9080
:10075000CF90BF90AF909F908F907F906F905F9061
:100760004F903F902F9008952F923F924F925F921B
:100770006F927F928F929F92AF92BF92CF92DF92B1
:10078000EF92FF920F931F93DF93CF93CDB7DEB716
:10079000CC54D0400FB6F894DEBF0FBECDBF6DA3D2
:1007A0007EA38FA398A729A73AA74BA75CA7EDA67E
:1007B000FEA60FA718ABA5966CAC7DAC8EAC9FAC1B
:1007C000A597A9962CAC3DAC4EAC5FACA997C601E1
:1007D000B50120E030E040E050E00E94761288232E
:1007E000A9F4C401B30120E030E040E050E00E94F1
:1007F0007612882359F4C201B10120E030E040E0D4
:1008000050E00E947612882309F40CC2C601B5019B
:10081000A60195010E94D0107B018C01C401B30197
:10082000A40193010E94D0109B01AC01C801B70143
:100830000E94A3107B018C01C201B101A2019101B0
:100840000E94D0109B01AC01C801B7010E94A31007
:100850000E9444177B018C01C601B501A8019701D4
:100860000E94CA1169AB7AAB8BAB9CABC401B301DC
:10087000A80197010E94CA116DAB7EAB8FAB98AFF8
:10088000C201B101A80197010E94CA1169AF7AAFF4
:100890008BAF9CAF60910C0270910D0280910E02A3
:1008A00090910F022091140230911502409116028E
:1008B00050911702A0900001B0900101C090020178
:1008C000D09003016090100270901102809012028B
:1008D000909013020E94D0107B018C01C601B501DB
:1008E000A40193010E94D0109B01AC01C801B70183
:1008F0000E94721021966CAF7DAF8EAF9FAF219793
:1009000060910001709101018091020190910301B9
:1009100020910C0230910D0240910E0250910F0275
:10092000A0901002B0901102C0901202D090130259
:100930006090140270901502809016029090170239
:100940000E94D0107B018C01C601B501A401930166
:100950000E94D0109B01AC01C801B7010E94A310F6
:100960001B012C0160910001709101018091020135
:100970009091030120910001309101014091020109
:1009800050910301A0901402B0901502C09016027D
:10099000D090170260901402709015028090160299
:1009A000909017020E94D01020E030E040E05FE31A
:1009B0000E9472107B018C01C601B501A401930154
:1009C0000E94D0109B01AC01C801B7010E94A31086
:1009D0005B016C016DA97EA98FA998ADA601950157
:1009E0000E94D0107B018C0169AD7AAD8BAD9CADBE
:1009F000A20191010E94D0109B01AC01C801B70176
:100A00000E94721025966CAF7DAF8EAF9FAF259779
:100A100069AD7AAD8BAD9CAD21962CAD3DAD4EADA3
:100A20005FAD21970E94D0107B018C0169A97AA942
:100A30008BA99CA9A60195010E94D0109B01AC0135
:100A4000C801B7010E94721029966CAF7DAF8EAFBE
:100A50009FAF299769A97AA98BA99CA9A2019101A5
:100A60000E94D0107B018C016DA97EA98FA998AD41
:100A700021962CAD3DAD4EAD5FAD21970E94D010BB
:100A80009B01AC01C801B7010E9472101B012C012F
:100A9000E0901802F090190200911A0210911B02C6
:100AA00025966CAD7DAD8EAD9FAD25972DEC3CECC4
:100AB0004CE45EE30E94D0102AE83BE446E85CE3A5
:100AC0000E94D0109B01AC01C801B7010E94A31085
:100AD000609318027093190280931A0290931B027C
:100AE000E0901C02F0901D0200911E0210911F0266
:100AF00029966CAD7DAD8EAD9FAD29972DEC3CEC6C
:100B00004CE45EE30E94D0102AE83BE446E85CE354
:100B10000E94D0109B01AC01C801B7010E94A31034
:100B200060931C0270931D0280931E0290931F021B
:100B3000E0902002F0902102009122021091230205
:100B4000C201B1012DEC3CEC4CE45EE30E94D010FC
:100B50002AE83BE446E85CE30E94D0109B01AC012C
:100B6000C801B7010E94A310609320027093210274
:100B7000809322029093230220911802309119024F
:100B800040911A0250911B026DA17EA18FA198A5E0
:100B90000E94A3103B014C0120911C0230911D02C8
:100BA00040911E0250911F0269A57AA58BA59CA5B4
:100BB0000E94A3105B016C01209120023091210260
:100BC00040912202509123026DA57EA58FA598A980
:100BD0000E94A3107B018C01C401B30125962CADAA
:100BE0003DAD4EAD5FAD25970E94A3106DA37EA3D2
:100BF0008FA398A7C601B50129962CAD3DAD4EAD8A
:100C00005FAD29970E94A31069A77AA78BA79CA71D
:100C1000C801B701A20191010E94A3106DA77EA790
:100C20008FA798AB6DA17EA18FA198A52AE83BE480
:100C300046E05CE30E94D0102D966CAF7DAF8EAF86
:100C40009FAF2D9769A57AA58BA59CA52AE83BE4C3
:100C500046E05CE30E94D0101B012C016DA57EA52F
:100C60008FA598A92AE83BE446E05CE30E94D010F7
:100C70003B014C01E0900001F09001010091020164
:100C800010910301E986FA860B871C8780910C027C
:100C900090910D02A0910E02B0910F028D839E8360
:100CA000AF83B887E0901002F09011020091120219
:100CB00010911302E982FA820B831C838091000158
:100CC00090910101A0910201B091030189A39AA31F
:100CD000ABA3BCA3A0901402B0901502C090160262
:100CE000D09017026D817E818F81988590582D96C6
:100CF0002CAD3DAD4EAD5FAD2D970E94D0107B0168
:100D00008C0169817A818B819C81A20191010E9471
:100D1000D0109B01AC01C801B7010E9472107B0189
:100D20008C01C601B501A40193010E94D0109B0162
:100D3000AC01C801B7010E9472109B01AC0169A10E
:100D40007AA18BA19CA10E94A310609300017093D3
:100D500001018093020190930301E0900C02F09056
:100D60000D0200910E0210910F02ED8EFE8E0F8F7C
:100D700018A3A0901402B0901502C0901602D09053
:100D8000170269857A858B859C852D962CAD3DADA6
:100D90004EAD5FAD2D970E94D0107B018C01698113
:100DA0007A818B819C81A40193010E94D0109B01C8
:100DB000AC01C801B7010E94A3107B018C01C601E0
:100DC000B501A20191010E94D0109B01AC01C801A4
:100DD000B7010E9472109B01AC016D8D7E8D8F8DCD
:100DE00098A10E94A31060930C0270930D0280934F
:100DF0000E0290930F028091100290911102A09127
:100E00001202B0911302898F9A8FAB8FBC8FA09082
:100E10001402B0901502C0901602D0901702698596
:100E20007A858B859C85A20191010E94D0107B015F
:100E30008C016D817E818F819885A40193010E9430
:100E4000D0109B01AC01C801B7010E9472107B0158
:100E50008C01C601B5012D962CAD3DAD4EAD5FADFB
:100E60002D970E94D0109B01AC01C801B7010E94D0
:100E7000A3109B01AC01698D7A8D8B8D9C8D0E9496
:100E8000A31060931002709311028093120290934A
:100E90001302A0901402B0901502C0901602D090D8
:100EA000170269857A858B859C85A40193010E9430
:100EB000D0107B018C016D817E818F819885A2018C
:100EC00091010E94D0109B01AC01C801B7010E94A2
:100ED000A3107B018C0169817A818B819C812D9685
:100EE0002CAD3DAD4EAD5FAD2D970E94D0109B0156
:100EF000AC01C801B7010E9472109B01AC01C60190
:100F0000B5010E94A31060931402709315028093A0
:100F10001602909317026091000170910101809177
:100F20000201909103012091000130910101409153
:100F3000020150910301A0900C02B0900D02C090EC
:100F40000E02D0900F0260900C0270900D02809003
:100F50000E0290900F0220901002309011024090EB
:100F6000120250901302E0901002F09011020091D2
:100F7000120210911302ED8AFE8A0F8B188FE090F7
:100F80001402F09015020091160210911702E98ADE
:100F9000FA8A0B8B1C8BE0901402F09015020091E2
:100FA000160210911702ED86FE860F87188B0E949D
:100FB000D0107B018C01C601B501A40193010E94F0
:100FC000D0109B01AC01C801B7010E94A3107B01A6
:100FD0008C01C201B1012D893E894F89588D0E9433
:100FE000D0109B01AC01C801B7010E94A3107B0186
:100FF0008C0169897A898B899C892D853E854F85ED
:1010000058890E94D0109B01AC01C801B7010E9411
:10101000A3100E9444177B018C0160910001709124
:1010200001018091020190910301A80197010E94A2
:10103000CA116093000170930101809302019093A3
:10104000030160910C0270910D0280910E0290914B
:101050000F02A80197010E94CA1160930C027093BD
:101060000D0280930E0290930F0260911002709116
:1010700011028091120290911302A80197010E941F
:10108000CA11609310027093110280931202909320
:1010900013026091140270911502809116029091D2
:1010A0001702A80197010E94CA116093140270935D
:1010B00015028093160290931702C45BDF4F0FB6A0
:1010C000F894DEBF0FBECDBFCF91DF911F910F917E
:1010D000FF90EF90DF90CF90BF90AF909F908F9058
:1010E0007F906F905F904F903F902F900895EF9278
:1010F000FF920F931F93CF93DF93182FE62E042FA9
:10110000F52E6623A1F080ED0E94990C812F0E949C
:10111000310D802F9F2D9C01E90110E004C08991C1
:101120000E94310D1F5F1E15D0F30E94210DDF912B
:10113000CF911F910F91FF90EF900895DF93CF9380
:101140000F92CDB7DEB7698361E0AE014F5F5F4FAD
:101150000E9477080F90CF91DF910895DF92EF9270
:10116000FF920F931F93CF93DF93182FD62E042F48
:10117000F52E662311F410E02AC080ED0E94990C30
:10118000812F0E94310D88E28A95F1F781ED0E944E
:10119000990C802F9F2D9C018901C0E0D0E0ED2C9F
:1011A000FF240894E108F1080DC0CE15DF0519F4FD
:1011B0000E946C0D02C00E94520DF801808321969E
:1011C0000F5F1F4FCD1588F31D2D0E94210D812F1C
:1011D000DF91CF911F910F91FF90EF90DF900895D5
:1011E0006F927F928F929F92AF92BF92CF92DF9237
:1011F000EF92FF920F931F936C015B014A0139013B
:101200008BE36EE04EEA52E00E94AE084091AE02DF
:101210002091AF02942F80E030E0822B932BF601D7
:10122000918380834091B0022091B102942F80E09D
:1012300030E0822B932BF501918380834091B202A1
:101240002091B302942F80E030E0822B932BF401A5
:10125000918380834091B6022091B702942F80E061
:1012600030E0822B932BF301918380834091B8026D
:101270002091B902942F80E030E0822B932BF8016B
:10128000918380834091BA022091BB02942F80E029
:1012900030E0822B932BF701918380831F910F9174
:1012A000FF90EF90DF90CF90BF90AF909F908F9086
:1012B0007F906F9008952F923F924F925F926F921E
:1012C0007F928F929F92AF92BF92CF92DF92EF92D6
:1012D000FF920F931F93DF93CF93CDB7DEB72C9779
:1012E0000FB6F894DEBF0FBECDBF6C015B014A01A3
:1012F0003901280117011A8219821C821B821E8261
:101300001D8218861F821A8619861C861B86CE01AE
:101310000196BE016D5F7F4FAE014B5F5F4F9E0137
:10132000295F3F4F8E01075F1F4FEBE0EE2EF12C40
:10133000EC0EFD1E0E94F00869817A81882777FDF6
:101340008095982F0E94A61220E030E040E858E3F4
:101350000E94D010F60160837183828393836B8136
:101360007C81882777FD8095982F0E94A61220E027
:1013700030E040E858E30E94D010F50160837183AB
:10138000828393836D817E81882777FD8095982F56
:101390000E94A61220E030E040E858E30E94D010FE
:1013A000F40160837183828393836F817885665DA6
:1013B0007F4F882777FD8095982F0E94A61223E300
:1013C00033E343E851E40E94CA11F301608371835F
:1013D0008283938369857A8569507040882777FD79
:1013E0008095982F0E94A61223E333E343E851E44B
:1013F0000E94CA11F20160837183828393836B859B
:101400007C85635E7F4F882777FD8095982F0E94AB
:10141000A61223E333E343E851E40E94CA11F10129
:1014200060837183828393832C960FB6F894DEBF1A
:101430000FBECDBFCF91DF911F910F91FF90EF9025
:10144000DF90CF90BF90AF909F908F907F906F90E4
:101450005F904F903F902F900895AB0161E00E9404
:10146000AE080895FF920F931F93DF93CF930F92CF
:10147000CDB7DEB7F82E062F142FBE016F5F7F4F5A
:101480000E942D0A2981112351F081E090E002C0D1
:10149000880F991F0A95E2F7622F682B0AC081E036
:1014A00090E002C0880F991F0A95E2F7682F6095B7
:1014B000622369838F2D0E949E080F90CF91DF9148
:1014C0001F910F91FF9008958BE666E041E00E9426
:1014D000320A08958BE666E040E00E94320A0895E1
:1014E000EF92FF920F931F93DF93CF930F92CDB79D
:1014F000DEB7E82E062F142FF22E442379F119823D
:10150000BE016F5F7F4F0E942D0A882339F1212F82
:1015100030E0402F50E04F5F5F4F421B530B81E0A4
:1015200090E002C0880F991F1A95E2F70197042EE8
:1015300002C0880F991F0A94E2F72F2D30E002C0F5
:10154000220F331F4A95E2F7682F60954981642383
:101550008223682B69838E2D0E949E080F90CF9165
:10156000DF911F910F91FF90EF9008950E94930CCF
:1015700088E28A95F1F788EE93E02CE231E0F901F8
:101580003197F1F70197D9F70E946A0A80E395E74E
:101590000197F1F78BE662E043E021E00E94700AD8
:1015A0008AE162E043E023E00E94700A89E164E09E
:1015B0000E949E088BE164E042E023E00E94700AF2
:1015C0008CE164E042E020E00E94700A85B585600D
:1015D00085BD80916E00816080936E000895FF92BA
:1015E0000F931F93DF93CF930F92CDB7DEB7F62EF5
:1015F0008A01BE016F5F7F4F0E942D0A21E030E01B
:1016000002C0220F331FFA94E2F799819223F80166
:1016100090830F90CF91DF911F910F91FF900895CC
:10162000EF92FF920F931F93DF93CF930F92CDB75B
:10163000DEB7062F142F7901442311F460E029C08E
:10164000BE016F5F7F4F0E942D0A682F882309F12A
:10165000812F90E0402F50E04F5F5F4F481B590BA8
:1016600021E030E002C0220F331F1A95E2F721502B
:101670003040042E02C0220F331F0A94E2F7898102
:10168000822390E002C0959587954A95E2F7F7018D
:101690008083862F0F90CF91DF911F910F91FF9044
:1016A000EF90089585E766E046E02EEA32E00E947A
:1016B000100B8091AE0290E0843309F491E0892F01
:1016C00008952F923F924F925F926F927F928F92E6
:1016D0009F92AF92BF92CF92DF92EF92FF920F93C1
:1016E0001F93DF93CF9300D000D000D0CDB7DEB7EB
:1016F00018E28AE360E04EEA52E00E94EF0A80912D
:10170000AE02882321F4812F8A95F1F7F2CF8BE383
:101710006EE04EEA52E00E94AE08D090AE02C09059
:10172000AF029090B0028090B1027090B2026090CF
:10173000B3024091B6022091B702B090B802009176
:10174000B902A090BA02E090BB028DB79EB708978D
:101750000FB6F8949EBF0FBE8DBFEDB7FEB73196A2
:10176000FE83ED83742F60E030E0622B732B665DA7
:101770007F4F882777FD8095982F0E94A61223E33C
:1017800033E343E851E40E94CA1124E33AEF4EE800
:101790005CE30E94D01069837A838B839C837B2DCA
:1017A00060E010E0602B712B69507040882777FD56
:1017B0008095982F0E94A61223E333E343E851E477
:1017C0000E94CA1124E33AEF4EE85CE30E94D01075
:1017D0001B012C017A2D60E0FF246E297F29635EB6
:1017E0007F4F882777FD8095982F0E94A61223E3CC
:1017F00033E343E851E40E94CA1124E33AEF4EE890
:101800005CE30E94D0107B018C017D2D60E0DD2423
:101810006C297D29882777FD8095982F0E94A61234
:1018200020E030E040E858E30E94D0105B016C01FA
:10183000792D60E0992468297929882777FD80959A
:10184000982F0E94A61220E030E040E858E30E9462
:10185000D010ED81FE816083718382839383772D25
:1018600060E0772466297729882777FD8095982F6F
:101870000E94A61220E030E040E858E30E94D01019
:10188000ED81FE81648375838683978369817A8184
:101890008B819C81A20191010E94B4038DB79EB7F8
:1018A00008960FB6F8949EBF0FBE8DBF26960FB652
:1018B000F894DEBF0FBECDBFCF91DF911F910F9186
:1018C000FF90EF90DF90CF90BF90AF909F908F9060
:1018D0007F906F905F904F903F902F9008951F9250
:1018E0000F920FB60F9211242F933F934F935F9354
:1018F0006F937F938F939F93AF93BF93EF93FF93D8
:101900000E94610BFF91EF91BF91AF919F918F91D9
:101910007F916F915F914F913F912F910F900FBEEB
:101920000F901F9018951092B90084E38093B8002F
:101930000895982F84EA8093BC002FEF30E040E0B8
:1019400050E08091BC0087FF07C02115310541059B
:10195000510509F431C005C021503109410951092F
:1019600080F78091B900887F883011F0803121F5AF
:101970009093BB0084E88093BC002FEF30E040E000
:1019800050E08091BC0087FF06C02115310541055C
:10199000510591F005C0215031094109510988F7DD
:1019A0009091B900987F983111F480E0089580E01B
:1019B000903419F081E0089581E00895982F64EA49
:1019C00054E844E96093BC0020E030E08091BC0022
:1019D00087FD06C02F5F3F4F81E020303807B1F709
:1019E0008091B900887F883011F0803159F7909349
:1019F000BB005093BC0020E030E08091BC0087FD2C
:101A000006C02F5F3F4F81E020303807B1F780914B
:101A1000B900887F803211F0883579F44093BC009A
:101A200020E030E08091BC0084FFCCCF2F5F3F4F9F
:101A300081E020303807B1F7C5CF08950E94990C96
:101A4000089584E98093BC0020E030E08091BC00E0
:101A500084FF06C02F5F3F4F81E020303807B1F789
:101A600008958093BB0084E88093BC002FEF30E0A2
:101A700040E050E08091BC0087FF06C02115310591
:101A80004105510561F005C0215031094109510955
:101A900088F78091B90090E0887F883209F091E062
:101AA000892F089584EC8093BC002FEF30E040E054
:101AB00050E08091BC0087FF07C02115310541052A
:101AC000510539F480E00895215031094109510947
:101AD00080F78091BB00089584E88093BC002FEFCD
:101AE00030E040E050E08091BC0087FF07C0211546
:101AF00031054105510539F480E00895215031093F
:101B00004109510980F78091BB0008951F920F92FF
:101B10000FB60F9211242F938F939F93EF93FF9300
:101B20009091C0002091C600E0916602EF5FEF71D6
:101B300080916702E81711F482E008C0892F88714C
:101B4000E0936602F0E0EC5BFD4F20838093680237
:101B5000FF91EF919F918F912F910F900FBE0F905A
:101B60001F9018951F920F920FB60F9211248F930A
:101B70009F93EF93FF939091640280916502981771
:101B800069F0E0916502EF5FEF71E0936502F0E0CC
:101B9000EC5DFD4F80818093C60005C08091C1003F
:101BA0008F7D8093C100FF91EF919F918F910F9056
:101BB0000FBE0F901F9018959C0110926402109216
:101BC0006502109266021092670297FF04C082E0DD
:101BD0008093C0003F773093C5002093C40088E90C
:101BE0008093C10086E08093C200089590916602C0
:101BF00080916702981719F420E031E012C0E0915B
:101C00006702EF5FEF71E0936702F0E0EC5BFD4F7E
:101C1000308120916802922F80E0AC01430F511D6A
:101C20009A01C9010895282F909164029F5F9F71C6
:101C3000809165029817E1F3E92FF0E0EC5DFD4F2C
:101C40002083909364028091C10080628093C100E0
:101C50000895CF93DF93EC0103C021960E94130EE9
:101C600088818823D1F7DF91CF910895CF93DF93B7
:101C7000EC0102C00E94130EFE012196849188237C
:101C8000C9F7DF91CF910895809166022091670294
:101C900090E04F96821B91096FE170E00E94F91469
:101CA0000895809167028093660208951F920F92B3
:101CB0000FB60F9211242F938F939F93EF93FF935F
:101CC0009091C8002091CE00E091AB02EF5FEF71E0
:101CD0008091AC02E81711F482E008C0892F887166
:101CE000E093AB02F0E0E757FD4F20838093AD0215
:101CF000FF91EF919F918F912F910F900FBE0F90B9
:101D00001F9018951F920F920FB60F9211248F9368
:101D10009F93EF93FF939091A9028091AA02981745
:101D200069F0E091AA02EF5FEF71E093AA02F0E0A0
:101D3000E759FD4F80818093CE0005C08091C90096
:101D40008F7D8093C900FF91EF919F918F910F90AC
:101D50000FBE0F901F9018959C011092A90210922F
:101D6000AA021092AB021092AC0297FF04C082E06C
:101D70008093C8003F773093CD002093CC0088E952
:101D80008093C90086E08093CA0008959091AB02C9
:101D90008091AC02981719F420E031E012C0E09174
:101DA000AC02EF5FEF71E093AC02F0E0E757FD4F5C
:101DB00030812091AD02922F80E0AC01430F511D84
:101DC0009A01C9010895282F9091A9029F5F9F71E0
:101DD0008091AA029817E1F3E92FF0E0E759FD4F4F
:101DE00020839093A9028091C90080628093C900EA
:101DF0000895CF93DF93EC0103C021960E94E30E78
:101E000088818823D1F7DF91CF910895CF93DF9315
:101E1000EC0102C00E94E30EFE012196849188230A
:101E2000C9F7DF91CF9108958091AB022091AC0268
:101E300090E04F96821B91096FE170E00E94F914C7
:101E400008958091AC028093AB020895A0E0B0E0C9
:101E5000ECE2FFE00C942015DC012B01FA019C91CF
:101E6000923008F439C1EB018881823008F433C123
:101E7000943069F4843009F02FC111969C91119728
:101E80008981981709F428C1A4E0B1E025C1843004
:101E900009F421C18230A9F4923009F01DC19A01E0
:101EA000AD0188E0EA010990AE01E90109929E01C5
:101EB0008150C1F7E201898111969C918923818328
:101EC00008C1923009F407C112962D903C901397E7
:101ED000EB018A819B811496AD90BD90CD90DC90F2
:101EE0001797EC80FD800E811F819101281B390B13
:101EF000B90137FF04C066277727621B730B603276
:101F000071050CF061C0121613066CF5370148011B
:101F1000062E04C096948794779467940A94D2F717
:101F200021E030E040E050E004C0220F331F441FA6
:101F3000551F6A95D2F721503040404050402E2125
:101F40003F2140235123211531054105510521F041
:101F500021E030E040E050E079018A01E628F728EE
:101F6000082919293CC0232BD1F1260E371E350133
:101F70004601062E04C096948794779467940A9439
:101F8000D2F721E030E040E050E004C0220F331FE0
:101F9000441F551F6A95D2F72150304040405040B1
:101FA0002A213B214C215D21211531054105510597
:101FB00021F021E030E040E050E059016A01A6281C
:101FC000B728C828D9280BC0821593052CF01C010E
:101FD000AA24BB24650103C0EE24FF2487011196C7
:101FE0009C91D20111968C91981709F445C09923C0
:101FF00039F0A80197012A193B094C095D0906C06F
:10200000A60195012E193F09400B510B57FD08C041
:1020100011823382228224833583468357831DC0F5
:1020200081E081833382228288279927DC01821B09
:10203000930BA40BB50B84839583A683B7830DC044
:10204000220F331F441F551F248335834683578334
:102050008281938101979383828324813581468194
:102060005781DA01C9010197A109B1098F5F9F4F1B
:10207000AF4FBF4328F30BC0918333822282EA0C17
:10208000FB1C0C1D1D1DE482F5820683178383E073
:102090008083248135814681578157FF1AC0C90149
:1020A000AA2797FDA095BA2F81709070A070B0708C
:1020B0005695479537952795822B932BA42BB52BB7
:1020C00084839583A683B7838281938101969383CA
:1020D0008283DF0101C0D201CD01CDB7DEB7E2E1DD
:1020E0000C943C15A0E2B0E0E8E7F0E10C942C156C
:1020F00069837A838B839C832D833E834F835887A8
:10210000E9E0EE2EF12CEC0EFD1ECE010196B7019A
:102110000E9428148E010F5E1F4FCE010596B80154
:102120000E9428148A8991E089278A8BC701B80107
:10213000AE01475E5F4F0E94260F0E945313A09688
:10214000E6E00C944815A0E2B0E0E9EAF0E10C9476
:102150002C1569837A838B839C832D833E834F83E5
:102160005887F9E0EF2EF12CEC0EFD1ECE01019602
:10217000B7010E9428148E010F5E1F4FCE010596F5
:10218000B8010E942814C701B801AE01475E5F4F35
:102190000E94260F0E945313A096E6E00C94481567
:1021A000A0E2B0E0E6EDF0E10C94201569837A83BB
:1021B0008B839C832D833E834F835887CE0101966A
:1021C000BE01675F7F4F0E942814CE010596BE01B5
:1021D0006F5E7F4F0E9428149985923088F089891C
:1021E0008230C8F0943019F4823051F404C0843045
:1021F00029F4923081F484E091E0C6C0923049F431
:1022000020E09A858A89981321E02A87CE010996D1
:10221000BBC0823049F420E09A858A89981321E076
:102220002A8BCE014196B0C02D843E844F845888BD
:102230006D887E888F88988CEE24FF248701AA24DD
:10224000BB24650140E050E060E070E0E0E0F0E0D9
:10225000C10181709070892BE9F0E60CF71C081D14
:10226000191D9A01AB012A0D3B1D4C1D5D1D80E01F
:1022700090E0A0E0B0E0E614F7040805190520F4AA
:1022800081E090E0A0E0B0E0BA01A901480F591F39
:102290006A1F7B1FAA0CBB1CCC1CDD1C97FE08C050
:1022A00081E090E0A0E0B0E0A82AB92ACA2ADB2A9F
:1022B0003196E032F10549F0660C771C881C991CB8
:1022C0005694479437942794C3CFFA85EA892B898B
:1022D0003C898B859C85280F391F2E5F3F4F17C087
:1022E000CA0181709070892B61F016950795F7945B
:1022F000E79480E090E0A0E0B0E8E82AF92A0A2B11
:102300001B2B76956795579547952F5F3F4F77FD28
:10231000E7CF0CC0440F551F661F771F17FD4160A4
:10232000EE0CFF1C001F111F21503040403090E088
:10233000590790E0690790E4790760F32B8F3C8F91
:10234000DB01CA018F779070A070B0708034910566
:10235000A105B10561F447FD0AC0E114F1040105CE
:10236000110529F0405C5F4F6F4F7F4F40781A8E08
:10237000FE1711F081E08A8F4D8F5E8F6F8F78A3EB
:1023800083E0898FCE0149960E945313A096E2E123
:102390000C943C15A8E1B0E0E0EDF1E10C942815B7
:1023A00069837A838B839C832D833E834F835887F5
:1023B000B9E0EB2EF12CEC0EFD1ECE010196B7011B
:1023C0000E9428148E010F5E1F4FCE010596B801A2
:1023D0000E9428142985223008F47EC039893230C1
:1023E00010F4B8017CC08A859A8989278A872430AD
:1023F00011F0223031F4231709F06EC064E071E06F
:102400006EC0343039F41D861E861F86188A1C86DD
:102410001B8604C0323021F484E08987B7015FC095
:102420002B853C858B899C89281B390B3C872B8706
:10243000ED84FE840F851889AD88BE88CF88D88C3E
:10244000EA14FB040C051D0540F4EE0CFF1C001FF4
:10245000111F215030403C872B8720E030E040E0C6
:1024600050E080E090E0A0E0B0E460E070E0EA14CA
:10247000FB040C051D0540F0282B392B4A2B5B2B48
:10248000EA18FB080C091D09B695A795979587953D
:10249000EE0CFF1C001F111F6F5F7F4F6F31710526
:1024A00031F7DA01C9018F779070A070B070803475
:1024B0009105A105B10561F427FD0AC0E114F104FD
:1024C0000105110529F0205C3F4F4F4F5F4F2078E9
:1024D0002D873E874F87588BBE01675F7F4FCB01AB
:1024E0000E9453136896EAE00C944415A8E1B0E00A
:1024F000ECE7F2E10C942C1569837A838B839C833F
:102500002D833E834F83588789E0E82EF12CEC0E13
:10251000FD1ECE010196B7010E9428148E010F5EA8
:102520001F4FCE010596B8010E942814898582307C
:1025300040F08989823028F0C701B8010E94A014B8
:1025400001C081E06896E6E00C944815A8E0B0E090
:10255000ECEAF2E10C9429159B01AC0183E089833C
:10256000DA01C9018827B7FD83959927AA27BB27D8
:10257000B82E211531054105510519F482E08983F2
:102580003AC08823A9F0203080E0380780E048076F
:1025900080E8580729F460E070E080E09FEC30C0EC
:1025A000EE24FF248701E21AF30A040B150B02C084
:1025B00079018A018EE1C82ED12CDC82CB82ED829A
:1025C000FE820F831887C801B7010E940413019788
:1025D0001816190684F4082E04C0EE0CFF1C001F08
:1025E000111F0A94D2F7ED82FE820F831887C81A52
:1025F000D90ADC82CB82BA82CE0101960E945313A3
:102600002896E9E00C944515EF92FF920F931F93E3
:102610007B018C0180E0E81680E0F80681E0080785
:1026200080E0180788F48FEFE816F1040105110522
:1026300031F028F088E090E0A0E0B0E017C080E042
:1026400090E0A0E0B0E012C080E0E81680E0F8067C
:1026500080E0080781E0180728F088E190E0A0E01A
:10266000B0E004C080E190E0A0E0B0E020E230E023
:1026700040E050E0281B390B4A0B5B0B04C0169559
:102680000795F794E7948A95D2F7F701E45FFE4F38
:102690008081281B310941095109C9011F910F91FE
:1026A000FF90EF900895DF92EF92FF920F931F93A8
:1026B000FC01E480F58006811781D1808081823021
:1026C00048F480E090E0A0E1B0E0E82AF92A0A2B83
:1026D0001B2BA5C0843009F49FC0823021F4EE2466
:1026E000FF24870105C0E114F1040105110519F467
:1026F000E0E0F0E096C0628173819FEF6238790775
:102700000CF05BC022E83FEF261B370B2A31310566
:102710002CF020E030E040E050E02AC0B801A701F2
:10272000022E04C076956795579547950A94D2F77F
:1027300081E090E0A0E0B0E004C0880F991FAA1FDC
:10274000BB1F2A95D2F70197A109B1098E219F21BC
:10275000A023B1230097A105B10521F081E090E00D
:10276000A0E0B0E09A01AB01282B392B4A2B5B2B60
:10277000DA01C9018F779070A070B0708034910534
:10278000A105B10539F427FF09C0205C3F4F4F4F29
:102790005F4F04C0215C3F4F4F4F5F4FE0E0F0E0E0
:1027A0002030A0E03A07A0E04A07A0E45A0710F062
:1027B000E1E0F0E079018A0127C06038710564F535
:1027C000FB01E158FF4FD801C7018F779070A070CF
:1027D000B07080349105A105B10539F4E7FE0DC054
:1027E00080E490E0A0E0B0E004C08FE390E0A0E0DF
:1027F000B0E0E80EF91E0A1F1B1F17FF05C0169553
:102800000795F794E794319687E016950795F79426
:10281000E7948A95D1F705C0EE24FF248701EFEFF6
:10282000F0E06E2F679566276795902F9F77D79476
:10283000DD24D7948E2F8695492F462B582F5D295E
:10284000B701CA011F910F91FF90EF90DF9008959B
:10285000FC01DB01408151812281622F6F7770E0A2
:10286000221F2227221F9381892F880F822B282F36
:1028700030E0991F9927991F11969C931197211564
:102880003105A9F5411551056105710511F482E085
:1028900037C082E89FEF13969C938E9312979A010C
:1028A000AB0167E0220F331F441F551F6A95D1F714
:1028B00083E08C930DC0220F331F441F551F1296C7
:1028C0008D919C911397019713969C938E931297D9
:1028D000203080E0380780E0480780E4580758F34C
:1028E00014962D933D934D935C93179708952F3F26
:1028F000310579F4411551056105710519F484E03C
:102900008C93089564FF03C081E08C9312C01C92E5
:1029100010C02F57304013963C932E93129783E0AC
:102920008C9387E0440F551F661F771F8A95D1F758
:10293000706414964D935D936D937C9317970895EF
:102940001F93DC01FB019C91923008F447C0808109
:10295000823008F443C0943051F411961C918430B5
:1029600099F58181682F70E0611B71093FC0843047
:1029700021F0923031F48230B9F18181882389F1DC
:102980002DC011961C9111978230F1F0818118179A
:10299000D9F412962D913C911397828193818217DD
:1029A000930794F028173907BCF014968D919D91E8
:1029B0000D90BC91A02D2481358146815781281727
:1029C00039074A075B0718F4112341F00AC0821740
:1029D0009307A407B50740F4112319F061E070E0F4
:1029E00005C06FEF7FEF02C060E070E0CB011F9188
:1029F000089597FB092E07260AD077FD04D00CD046
:102A000006D000201AF4709561957F4F0895F6F76F
:102A1000909581959F4F0895AA1BBB1B51E107C05C
:102A2000AA1FBB1FA617B70710F0A61BB70B881F5E
:102A3000991F5A95A9F780959095BC01CD010895ED
:102A40002F923F924F925F926F927F928F929F92BE
:102A5000AF92BF92CF92DF92EF92FF920F931F93AC
:102A6000CF93DF93CDB7DEB7CA1BDB0B0FB6F8945D
:102A7000DEBF0FBECDBF09942A88398848885F849D
:102A80006E847D848C849B84AA84B984C884DF800E
:102A9000EE80FD800C811B81AA81B981CE0FD11DF2
:102AA0000FB6F894DEBF0FBECDBFED0108959F9322
:102AB0009F77EEE389379E0720F4ECE7F0E01FD123
:102AC00009C0D4D09058A2EA2AED3FE049EC5FE378
:102AD00029D234D10F9007FC9058089521D158F095
:102AE00080E891E009F49EEF22D128F040E851E01F
:102AF00059F45EEF09C0DBC054C1E92FE0782FD153
:102B000068F3092E052AC1F3261737074807590726
:102B100038F00E2E07F8E02569F0E025E0640AC0E1
:102B2000EF6307F8009407FADB01B9019D01DC01AE
:102B3000CA01AD01EF9341D001D10AD05F91552375
:102B400031F02BED3FE049E450FD49ECFCCA08951B
:102B5000DF93DD27B92FBF7740E85FE3161617062E
:102B600048075B0710F4D92F23D19F938F937F934E
:102B70006F93C8D1E0E9F0E09DD0E0D02F913F9174
:102B80004F915F9126D1DD2349F09058A2EA2AEDBA
:102B90003FE049EC5FE3D0785D27C4D1DF91CEC040
:102BA000C6D040F0BDD030F021F45F3F19F079C0BD
:102BB0005111F8C07CC0D3D098F39923C9F35523A1
:102BC000B1F3951B550BBB27AA2762177307840720
:102BD00038F09F5F5F4F220F331F441FAA1FA9F3D6
:102BE00033D00E2E3AF0E0E830D091505040E695C8
:102BF000001CCAF729D0FE2F27D0660F771F881F29
:102C0000BB1F261737074807AB07B0E809F0BB0B17
:102C1000802DBF01FF2793585F4F2AF09E3F51053B
:102C200068F03FC0BFC05F3FECF3983EDCF3869591
:102C300077956795B795F7959F5FC9F7880F911DB1
:102C40009695879597F90895E1E0660F771F881F9D
:102C5000BB1F621773078407BA0720F0621B730B50
:102C6000840BBA0BEE1F88F7E0950895DF93CF939E
:102C70001F930F938B01EC01EDEBF0E01BD05ED0C6
:102C80009801AE018B01EC0160E070E080E89FE309
:102C900029DAFAD09801AE010F911F91CF91DF91FF
:102CA00098C097F99F6780E870E060E008959FEF13
:102CB00080EC0895DF93CF931F930F93FF92EF92D1
:102CC000DF927B018C01689405C0DA2EEF0181D080
:102CD000FE01E894A5912591359145915591AEF36A
:102CE000EF0120D1FE019701A801DA9479F7DF9076
:102CF000EF90FF900F911F91CF91DF9108959F93D7
:102D00008F937F936F93FF93EF939B01AC0148DA0E
:102D1000EF91FF91CFDF2F913F914F915F9140CA8B
:102D200000240A94161617061806090608950024AA
:102D30000A9412161306140605060895092E039424
:102D4000000C11F4882352F0BB0F40F4BF2B11F498
:102D500060FF04C06F5F7F4F8F4F9F4F089557FDF7
:102D60009058440F551F59F05F3F71F04795880FF9
:102D700097FB991F61F09F3F79F087950895121690
:102D800013061406551FF2CF4695F1DF08C016163C
:102D900017061806991FF1CF8695710561050894ED
:102DA0000895E894BB2766277727CB0197F9089504
:102DB0009B01AC0160E070E080E89FE3EBCAB0DF0C
:102DC00028F0B5DF18F0952309F06BCF70CF1124F0
:102DD000E9CFC5DFA0F3959FD1F3950F50E0551FC4
:102DE000629FF001729FBB27F00DB11D639FAA2760
:102DF000F00DB11DAA1F649F6627B00DA11D661FAF
:102E0000829F2227B00DA11D621F739FB00DA11DCF
:102E1000621F839FA00D611D221F749F3327A00D89
:102E2000611D231F849F600D211D822F762F6A2F25
:102E300011249F5750408AF0E1F088234AF0EE0FAA
:102E4000FF1FBB1F661F771F881F91505040A9F7B7
:102E50009E3F510570F025CFA5CF5F3FECF3983E24
:102E6000DCF3869577956795B795F795E7959F5F1E
:102E7000C1F7FE2B880F911D9695879597F90895B8
:102E800011F40EF414CFA1C072DFD0F39923D9F35B
:102E9000CEF39F57550B87FFA6D00024A0E640EA4B
:102EA000900180585695979528F4805C660F771F9F
:102EB000881F20F026173707480730F4621B730B72
:102EC000840B202931294A2BA69517940794202595
:102ED00031254A2758F7660F771F881F20F02617DD
:102EE0003707480730F4620B730B840B200D311D3C
:102EF000411DA09581F7B901842F9158880F9695AF
:102F0000879508959B01AC014BC90ADF30F00FDFB4
:102F100020F031F49F3F11F41EF4C9CE0EF4E09579
:102F2000E7FBBFCEE92F1BDF80F3BA1762077307F9
:102F30008407950718F071F49EF533CF0EF4E095F1
:102F40000B2EBA2FA02D0B01B90190010C01CA0163
:102F5000A0011124FF27591B99F0593F50F4503E0E
:102F600068F11A16F040A22F232F342F4427585F00
:102F7000F3CF469537952795A795F0405395C9F718
:102F80007EF41F16BA0B620B730B840BBAF09150D0
:102F9000A1F0FF0FBB1F661F771F881FC2F70EC06F
:102FA000BA0F621F731F841F48F487957795679542
:102FB000B795F7959E3F08F0B3CF9395880F08F02B
:102FC0009927EE0F9795879508959F3F31F091507F
:102FD00020F4879577956795B795880F911D9695FD
:102FE000879597F9089591505040660F771F881F75
:082FF000D2F70895F894FFCF19
:102FF8000000803F00000000000000000001020205
:103008000303030304040404040404040505050578
:103018000505050505050505050505050606060654
:103028000606060606060606060606060606060638
:103038000606060606060606060606060707070724
:103048000707070707070707070707070707070708
:1030580007070707070707070707070707070707F8
:1030680007070707070707070707070707070707E8
:1030780007070707070707070707070708080808D4
:1030880008080808080808080808080808080808B8
:1030980008080808080808080808080808080808A8
:1030A8000808080808080808080808080808080898
:1030B8000808080808080808080808080808080888
:1030C8000808080808080808080808080808080878
:1030D8000808080808080808080808080808080868
:1030E8000808080808080808080808080808080858
:0C30F8000808080808080808080808086C
:00000001FF
