:100000000C9468000C9485000C9457060C948500A1
:100010000C9485000C9485000C9485000C9485004C
:100020000C9485000C9485000C9485000C9485003C
:100030000C9485000C9485000C9485000C9485002C
:100040000C9485000C9485000C9485000C9485001C
:100050000C9412040C9485000C9485000C9485007B
:100060000C9485000C9485000C9485000C948500FC
:100070000C9485000C9485000C948500D680018238
:10008000BCA502C62494ABC281CAF7C4709800C84C
:1000900000E08182494E46494E4954594E414ECD69
:1000A000CCCC3D0AD7233C17B7D13877CC2B32952F
:1000B00095E6241FB14F0A000020410000C842000D
:1000C000401C4620BCBE4CCA1B0E5AAEC59D7400D7
:1000D00011241FBECFEFD0E1DEBFCDBF13E0A0E003
:1000E000B1E0E0EEF5E202C005900D92AC3CB10744
:1000F000D9F716E0ACECB3E001C01D92AA3FB107FE
:10010000E1F70E9487000C94EE120C9400002F92ED
:100110003F924F925F926F927F928F929F92AF9297
:10012000BF92CF92DF92EF92FF920F931F93DF93D4
:10013000CF93CDB7DEB7CB56D0400FB6F894DEBF25
:100140000FBECDBF0E946F070E9419050E944C058B
:10015000789480E091E00E94600581E08093CE0376
:100160000E98169A0F98179A0C98149A569A5E9AA7
:1001700060B1661F6627661F6E5F84E070E00E94B4
:100180001F06AC961FAE1EAEAC97AA961FAE1EAE53
:10019000AA972224332444245524882480E07724F9
:1001A00030E7C32E37E1D32E6624639424E0A22ED9
:1001B000B12CAC0EBD1E06C0812E81E09924939413
:1001C00077247394079B15C0882369F584E063E066
:1001D00070E00E941F06C6010197F1F784E063E01A
:1001E00070E00E941F06C6010197F1F70E942107E7
:1001F0001AC0813009F010C384E062E070E00E9410
:100200001F06C6010197F1F784E062E070E00E94EA
:100210001F06C6010197F1F70E94210780E091E0D7
:100220000E946005F9C28091EA03282F30E094E033
:10023000E92E91E0F92E2E9DF0012F9DF00D3E9DAF
:10024000F00D1124E551FC4F8081823009F0F3C09C
:10025000F901EE0FFF1FC9019695982F88279795F2
:100260008795E80FF91FEE0FFF1FE351FC4F8081C8
:100270008983F901B6E0EE0FFF1FBA95E1F7E20FAF
:10028000F31FEE0FFF1FEE0FFF1FE151FC4F8081A8
:100290008A831B82CE010196BE016E5F7F4F0E9452
:1002A000D8050E945A078981803131F1813138F4B3
:1002B0008E3009F457C08F3009F0BDC006C08131BF
:1002C000D9F1833109F0B7C088C02DB73EB72850A7
:1002D00030400FB6F8943EBF0FBE2DBFEDB7FEB74E
:1002E0003196ADB7BEB71296BC92AE92119772E23C
:1002F000E72E71E0F72E15C08DB79EB708970FB6A1
:10030000F8949EBF0FBE8DBFEDB7FEB73196ADB767
:10031000BEB71296BC92AE92119763E3E62E61E0EF
:10032000F62EF382E28280E090E0A0E0B0E08483E9
:100330009583A683B78371C08DB79EB708970FB614
:10034000F8949EBF0FBE8DBFEDB7FEB73196ADB727
:10035000BEB71296BC92AE92119754E4E52E51E0CE
:10036000F52EDFCF6A817B8180E090E00E94F00B68
:1003700023E333E343E55BE30E949609ADB7BEB7E1
:1003800018970FB6F894BEBF0FBEADBF0DB71EB71E
:100390000F5F1F4F1296BC92AE92119745E5E42E67
:1003A00041E0F42EF801F382E28220E030E040E800
:1003B00050E40E949609D80114966D937D938D9315
:1003C0009C9317970E94A20EEDB7FEB738960FB612
:1003D000F894FEBF0FBEEDBF2BC08A819B810E94A7
:1003E00004062DB73EB7285030400FB6F8943EBFF4
:1003F0000FBE2DBFEDB7FEB73196ADB7BEB71296A3
:10040000BC92AE9211973BE6E32E31E0F32EF382DD
:10041000E28264837583868397830E94A20E2DB740
:100420003EB7285F3F4F0FB6F8943EBF0FBE2DBFBB
:10043000C5010E946005992019F000E012E005C096
:1004400080E090E00E941F058C01AC968EAD9FADC0
:10045000AC9708171907C1F093E00C3F1907A0F4F7
:1004600080E0B8010E941F06C6010197F1F780E005
:10047000B8010E941F06C6010197F1F70E942107EB
:10048000AC961FAF0EAFAC97992019F000E012E0C8
:1004900005C082E090E00E941F058C01AA96AEADD7
:1004A000BFADAA970A171B07C1F0B3E00C3F1B07AB
:1004B000A0F482E0B8010E941F06C6010197F1F77F
:1004C00082E0B8010E941F06C6010197F1F70E9461
:1004D0002107AA961FAF0EAFAA97992019F000E046
:1004E00012E005C083E090E00E941F058C01021518
:1004F0001305A9F0E3E00C3F1E0788F483E0B80180
:100500000E941F06C6010197F1F783E0B8010E941F
:100510001F06C6010197F1F70E94210718019920D3
:1005200019F000E012E005C081E090E00E941F0594
:100530008C0104151505A9F0F3E00C3F1F0788F4A2
:1005400081E0B8010E941F06C6010197F1F781E022
:10055000B8010E941F06C6010197F1F70E9421070A
:10056000280180B190E026E0969587952A95E1F7DD
:10057000182F117080FF12C0882051F58BE791E091
:100580000E94600584E060E070E00E941F06C601E2
:100590000197F1F784E060E070E013C0EE24E3948B
:1005A0008E14B1F48CE891E00E94600584E061E073
:1005B00070E00E941F06C6010197F1F784E061E038
:1005C00070E00E941F06C6010197F1F70E94210703
:1005D000049B1AC0772009F0EFCD8FE991E00E94CB
:1005E000600584E065E070E00E941F06C601019787
:1005F000F1F784E065E070E00E941F06C6010197F4
:10060000F1F70E942107D8CDFF24F3947F14B1F4B1
:1006100081EB91E00E94600584E064E070E00E945C
:100620001F06C6010197F1F784E064E070E00E94C4
:100630001F06C6010197F1F70E942107812E81E074
:1006400099247724BFCD8091E203893721F08091EE
:10065000E203883669F484EC91E00E9460056092C0
:10066000CD038091E2038093E1031092E203D2C0B4
:100670008091D003803741F08091D003893621F0FA
:100680008091D003843659F486EE91E00E94600593
:100690008091D0038093E3031092D003BBC080917C
:1006A000CC03863009F0B6C01092CC038BED93E0FA
:1006B0000E94950E20E030E048EC52E40E9496093A
:1006C0007B018C0120E030EC4FE754E40E943C0BAE
:1006D00018164CF486E092E00E94600584EC91E0EC
:1006E0000E94600597C0C801B70120E030E040E0FB
:1006F0005FE30E9469090E94C0078B012091E30318
:100700004091E103ADB7BEB71A970FB6F894BEBFDC
:100710000FBEADBFEDB7FEB731968CE2E82EF12CDF
:10072000EC0EFD1E1296FC92EE921197A9E2B2E039
:10073000B383A283332727FD309535832483552740
:1007400047FD509557834683718760870E94A20EAC
:10075000EDB7FEB73A960FB6F894FEBF0FBEEDBFE9
:10076000C7010E9460058091E103823731F089372B
:10077000B1F0883609F042C024C08091E30380378D
:1007800011F485E033C08091E303893611F486E0EB
:100790002DC08091E303843689F587E027C08091DE
:1007A000E303803711F488E021C08091E3038936A8
:1007B00011F489E01BC08091E3038436F9F48AE0E8
:1007C00015C08091E303803711F48BE00FC0809156
:1007D000E303893631F486E592E00E9460058CE0FF
:1007E00005C08091E303843649F48DE0B8010E948E
:1007F0001F06C6010197F1F70E9421071092E3033B
:100800001092E10380E091E00E9460056092CE03C7
:100810001092CC0380E0D6CC8091E203823709F0BD
:1008200012CF19CF1F920F920FB60F9211242F9350
:100830003F934F935F936F937F938F939F93AF9368
:10084000BF93EF93FF93DF93CF9300D000D000D0FE
:10085000CDB7DEB78091CC039091C600DE01119632
:10086000FD01E80FF11D90838091CD03882321F5D0
:100870008091CC03FD01E80FF11D8081823779F072
:100880008091CC03FD01E80FF11D8081893739F09B
:100890008091CC03A80FB11D8C91883669F4109219
:1008A000CE038091CC03FE01E80FF11D818180937E
:1008B000E2038091E2034EC08091CE03813021F5A6
:1008C0008091CC03DE011196FD01E80FF11D8081BE
:1008D0008237D1F08091CC03FD01E80FF11D8081BA
:1008E000893791F08091CC03FD01E80FF11D8081E3
:1008F000883651F08091CC03A80FB11D8C910E94D5
:1009000058058EE592E060C08091CC03DE0111961F
:10091000FD01E80FF11D8081803781F08091CC03CB
:10092000FD01E80FF11D8081893641F08091CC03F3
:10093000FD01E80FF11D8081843679F41092CD031A
:100940008091CC03FE01E80FF11D81818093D003DB
:100950008091D0030E94580556C08091CC03FD01C0
:10096000E80FF11D8081883751F41092CC0386E89E
:1009700092E00E94600581E08093CE0344C08091A4
:10098000CD03813031F58091CC03FD01E80FF11DDD
:1009900080818037F1F08091CC03FD01E80FF11DDB
:1009A00080818936B1F08091CC03FD01E80FF11D03
:1009B0008081843671F08091CC03A80FB11D8C9199
:1009C0000E9458058DEA92E00E9460051092CC03C7
:1009D0001AC0E091CC038091CC03F0E0E552FC4FCB
:1009E000DE01A80FB11D11968C918083E091CC039C
:1009F000F0E0E552FC4F80810E9458058091CC03C5
:100A00008F5F8093CC032696DEBFCDBFCF91DF9161
:100A1000FF91EF91BF91AF919F918F917F916F91D6
:100A20005F914F913F912F910F900FBE0F901F90AC
:100A30001895EAE7F0E08081866880830895BC011C
:100A400080937C0080917A00806480937A0080910A
:100A50007A0086FDFCCF4091790020917800942F98
:100A600080E030E0822B932B909379008093780084
:100A7000615070406230710548F480917800909127
:100A800079002FEF33E0281B390B04C02091780048
:100A900030917900C90108951092C5008CE08093CF
:100AA000C40086E08093C20088E98093C100089565
:100AB000982F8091C00085FFFCCF9093C6000895C9
:100AC000FC0107C08091C00085FFFCCF9093C60059
:100AD000319690819923B1F70895DC01FB014083A1
:100AE0005C930895BC01482F477081E021E030E01D
:100AF00005C0220F331F2F5F3F4F8F5F8417C8F34E
:100B000050E0CB0133E0969587953A95E1F728239D
:100B100030E080E190E0841B950B02C0220F331F70
:100B20008A95E2F7042E02C0769567950A94E2F75B
:100B3000260F371F287F240F351FC9010895DC01B8
:100B4000FB01CA01937091838083852F86958695DA
:100B50008C930895682F6770AC01487FE62FF0E012
:100B600081E021E030E005C0220F331F2F5F3F4FAF
:100B70008F5F8617C8F380E190E08E1B9F0BDA0130
:100B800002C0B695A7958A95E2F72A2330E073E074
:100B9000220F331F7A95E1F702C0440F551FEA95E3
:100BA000E2F7240F351F287F260F311DC901089554
:100BB000EF92FF920F931F937C018B01F7019081BD
:100BC00080E0FB0120813181820F931F0E94AA05E2
:100BD0009C013370F80131832083892F8695869597
:100BE000F70180831F910F91FF90EF90089521E00E
:100BF00030E091E005C0220F331F2F5F3F4F9F5F12
:100C00009817C8F3C9010895A0E0B0E0BC01CD0178
:100C10000E94F00B23E333E343E550E40E9496097E
:100C200020E030E040E85AE30E9496099B01AC01C5
:100C300060E070E080EC91E40E94900A0895DF93F8
:100C4000CF930F92CDB7DEB7382F330F330F20E09D
:100C5000C901860F971F0E947205898381E0692F61
:100C6000AE014F5F5F4F0E94A7070F90CF91DF91BA
:100C700008952C989EBD0DB407FEFDCF8EBD0DB41A
:100C800007FEFDCF2C9A08952C989EBD0DB407FE4B
:100C9000FDCF3EB58EBD0DB407FEFDCF2EB5932F13
:100CA00080E02C9A30E0282B392BC90108957894E4
:100CB0001F920F920FB60F921124EF92FF920F9393
:100CC0001F932F933F934F935F936F937F938F93D4
:100CD0009F93AF93BF93CF93DF93EF93FF93E998E5
:100CE0000091CF0382E0E82EC4E0D1E0FF24F3942A
:100CF000ECBA2C981EBC0DB407FEFDCF2C9A0EB496
:100D000007FE85C01091E503113029F1113020F064
:100D1000123009F071C055C0F092E80380E090EB0A
:100D20000E944406082F0D5F0093E7030350809153
:100D3000E90390E08C9FF0018D9FF00D9C9FF00DDA
:100D40001124E551FC4F8081882309F055C0F092B1
:100D5000E5030183CDCF80E090EB0E944406382F5D
:100D60002091E8038091E7032817C8F403278091B6
:100D7000E90390E08C9FF0018D9FF00D9C9FF00D9A
:100D800011243196E20FF11DE551FC4F30832230E2
:100D900011F40F3F89F52F5F2093E803A9CF20912D
:100DA000E903822F90E08C9FF0018D9FF00D9C9FB6
:100DB000F00D1124E551FC4FE08221272093E90337
:100DC0001BC02091E8038091E703281758F4E22F15
:100DD000F0E0ED50FA4F808190E02F5F2093E80320
:100DE000986B12C01092E60381E892E80E943906DF
:100DF0008AEA98EB0E9439061092E50381E89AECA2
:100E00000E94390683E89AEC0E94390671CF00935C
:100E1000CF03E99AFF91EF91DF91CF91BF91AF910D
:100E20009F918F917F916F915F914F913F912F9102
:100E30001F910F91FF90EF900F900FBE0F901F909A
:100E400018958091E503882301F58091E6038130B0
:100E5000E1F4E99881E092E80E9439068091F50575
:100E60008A5F8093E7031092E80382E08093E503B2
:100E70008AEA98EB0E9439068AEA98EB0E943906C2
:100E800081E292E80E943906E99A0895982F8091AC
:100E9000E603882311F083E008956093F5059093AD
:100EA000F605692760956093F70581E08093E60376
:100EB00080E808954091EA03242F30E084E091E037
:100EC000289FF001299FF00D389FF00D1124E55166
:100ED000FC4F108281E048274093EA030895CF93A6
:100EE000DF932C9A249A259A279A2C9A249A26984A
:100EF00081E58CBD8DE28093F30584ED8093F4054C
:100F00001092E9031092EA03CCE7D0E0FE0185914C
:100F100094910E943906229680E0C439D807B1F72F
:100F20008091690088608093690080E090E00E9471
:100F3000440682E08CBB81E89AEC0E94390683E883
:100F40009AEC0E943906E99ADF91CF9108950F93A8
:100F50001F93182F062F8091E603882311F083E05A
:100F60000CC028EF35E0C901BA01412F50E00E94C2
:100F7000990E802F612F0E9446071F910F910895AF
:100F8000EF92FF920F931F937B018C0120E030E0E2
:100F900040E05FE40E946C0B88238CF0C801B7012D
:100FA00020E030E040E05FE40E9438090E949C0BA2
:100FB0009B01AC01205030404040504806C0C80161
:100FC000B7010E949C0B9B01AC01B901CA011F91A2
:100FD0000F91FF90EF900895A0E0B0E0E2EFF7E00E
:100FE0000C945E0EDC012B01FA019C91923008F406
:100FF00039C1EB018881823008F433C1943069F43F
:10100000843009F02FC111969C911197898198170E
:1010100009F428C1A3ECB2E025C1843009F421C150
:101020008230A9F4923009F01DC19A01AD0188E027
:10103000EA010990AE01E90109929E018150C1F7D0
:10104000E201898111969C918923818308C19230A4
:1010500009F407C112962D903C901397EB018A81F9
:101060009B811496AD90BD90CD90DC901797EC804D
:10107000FD800E811F819101281B390BB90137FFBB
:1010800004C066277727621B730B603271050CF072
:1010900061C0121613066CF537014801062E04C014
:1010A00096948794779467940A94D2F721E030E07D
:1010B00040E050E004C0220F331F441F551F6A95C3
:1010C000D2F721503040404050402E213F21402354
:1010D0005123211531054105510521F021E030E072
:1010E00040E050E079018A01E628F728082919290B
:1010F0003CC0232BD1F1260E371E35014601062EAA
:1011000004C096948794779467940A94D2F721E068
:1011100030E040E050E004C0220F331F441F551F51
:101120006A95D2F721503040404050402A213B215F
:101130004C215D21211531054105510521F021E0AA
:1011400030E040E050E059016A01A628B728C828DD
:10115000D9280BC0821593052CF01C01AA24BB24AE
:10116000650103C0EE24FF24870111969C91D201F2
:1011700011968C91981709F445C0992339F0A8016C
:1011800097012A193B094C095D0906C0A601950182
:101190002E193F09400B510B57FD08C011823382B5
:1011A000228224833583468357831DC081E0818357
:1011B0003382228288279927DC01821B930BA40BA0
:1011C000B50B84839583A683B7830DC0220F331F8D
:1011D000441F551F2483358346835783828193811F
:1011E0000197938382832481358146815781DA0177
:1011F000C9010197A109B1098F5F9F4FAF4FBF434D
:1012000028F30BC0918333822282EA0CFB1C0C1D55
:101210001D1DE482F5820683178383E08083248189
:1012200035814681578157FF1AC0C901AA2797FD0A
:10123000A095BA2F81709070A070B07056954795A8
:1012400037952795822B932BA42BB52B84839583DD
:10125000A683B78382819381019693838283DF0182
:1012600001C0D201CD01CDB7DEB7E2E10C947A0E18
:10127000A0E2B0E0EEE3F9E00C946A0E69837A83B1
:101280008B839C832D833E834F835887E9E0EE2E2A
:10129000F12CEC0EFD1ECE010196B7010E948D0DC2
:1012A0008E010F5E1F4FCE010596B8010E948D0D75
:1012B0008A8991E089278A8BC701B801AE01475E10
:1012C0005F4F0E94EC070E94B80CA096E6E00C94D9
:1012D000860EA0E2B0E0EFE6F9E00C946A0E6983B6
:1012E0007A838B839C832D833E834F835887F9E0D9
:1012F000EF2EF12CEC0EFD1ECE010196B7010E94DF
:101300008D0D8E010F5E1F4FCE010596B8010E9414
:101310008D0DC701B801AE01475E5F4F0E94EC071B
:101320000E94B80CA096E6E00C94860EA0E2B0E015
:10133000ECE9F9E00C945E0E69837A838B839C83DD
:101340002D833E834F835887CE010196BE01675F90
:101350007F4F0E948D0DCE010596BE016F5E7F4FBF
:101360000E948D0D9985923088F089898230C8F06D
:10137000943019F4823051F404C0843029F492304E
:1013800081F483EC92E0C6C0923049F420E09A8563
:101390008A89981321E02A87CE010996BBC0823042
:1013A00049F420E09A858A89981321E02A8BCE019E
:1013B0004196B0C02D843E844F8458886D887E88C5
:1013C0008F88988CEE24FF248701AA24BB24650112
:1013D00040E050E060E070E0E0E0F0E0C1018170EA
:1013E0009070892BE9F0E60CF71C081D191D9A0175
:1013F000AB012A0D3B1D4C1D5D1D80E090E0A0E07F
:10140000B0E0E614F7040805190520F481E090E047
:10141000A0E0B0E0BA01A901480F591F6A1F7B1F65
:10142000AA0CBB1CCC1CDD1C97FE08C081E090E020
:10143000A0E0B0E0A82AB92ACA2ADB2A3196E03215
:10144000F10549F0660C771C881C991C569447944A
:1014500037942794C3CFFA85EA892B893C898B85F9
:101460009C85280F391F2E5F3F4F17C0CA0181701E
:101470009070892B61F016950795F794E79480E0BA
:1014800090E0A0E0B0E8E82AF92A0A2B1B2B769519
:101490006795579547952F5F3F4F77FDE7CF0CC076
:1014A000440F551F661F771F17FD4160EE0CFF1C90
:1014B000001F111F21503040403090E0590790E04C
:1014C000690790E4790760F32B8F3C8FDB01CA0139
:1014D0008F779070A070B07080349105A105B10530
:1014E00061F447FD0AC0E114F1040105110529F07A
:1014F000405C5F4F6F4F7F4F40781A8EFE1711F0A0
:1015000081E08A8F4D8F5E8F6F8F78A383E0898F04
:10151000CE0149960E94B80CA096E2E10C947A0E96
:10152000A8E1B0E0E6E9FAE00C94660E69837A83FC
:101530008B839C832D833E834F835887B9E0EB2EAA
:10154000F12CEC0EFD1ECE010196B7010E948D0D0F
:101550008E010F5E1F4FCE010596B8010E948D0DC2
:101560002985223008F47EC03989323010F4B80160
:101570007CC08A859A8989278A87243011F0223095
:1015800031F4231709F06EC063EC72E06EC03430A2
:1015900039F41D861E861F86188A1C861B8604C089
:1015A000323021F484E08987B7015FC02B853C8508
:1015B0008B899C89281B390B3C872B87ED84FE8403
:1015C0000F851889AD88BE88CF88D88CEA14FB04B3
:1015D0000C051D0540F4EE0CFF1C001F111F2150CF
:1015E00030403C872B8720E030E040E050E080E056
:1015F00090E0A0E0B0E460E070E0EA14FB040C05C9
:101600001D0540F0282B392B4A2B5B2BEA18FB08D1
:101610000C091D09B695A79597958795EE0CFF1CAB
:10162000001F111F6F5F7F4F6F31710531F7DA01B6
:10163000C9018F779070A070B07080349105A105BA
:10164000B10561F427FD0AC0E114F104010511059B
:1016500029F0205C3F4F4F4F5F4F20782D873E870A
:101660004F87588BBE01675F7F4FCB010E94B80C3C
:101670006896EAE00C94820EA8E1B0E0E2E4FBE0B8
:101680000C946A0E69837A838B839C832D833E83BB
:101690004F83588789E0E82EF12CEC0EFD1ECE0119
:1016A0000196B7010E948D0D8E010F5E1F4FCE0176
:1016B0000596B8010E948D0D8985823040F0898998
:1016C000823028F0C701B8010E94050E01C08FEFDB
:1016D0006896E6E00C94860EA8E1B0E0E2E7FBE055
:1016E0000C946A0E69837A838B839C832D833E835B
:1016F0004F83588789E0E82EF12CEC0EFD1ECE01B9
:101700000196B7010E948D0D8E010F5E1F4FCE0115
:101710000596B8010E948D0D8985823040F0898937
:10172000823028F0C701B8010E94050E01C08FEF7A
:101730006896E6E00C94860EACE0B0E0E2EAFBE0EE
:101740000C946E0E69837A838B839C83CE01019601
:10175000BE016B5F7F4F0E948D0D8D81823061F1E4
:10176000823050F1843021F48E81882351F12EC0D3
:101770002F81388537FD20C06E812F3131051CF057
:101780006623F9F023C08EE190E0821B930B29853C
:101790003A854B855C8504C05695479537952795C6
:1017A0008A95D2F76623B1F05095409530952195F2
:1017B0003F4F4F4F5F4F0EC020E030E040E050E021
:1017C00009C02FEF3FEF4FEF5FE704C020E030E0AC
:1017D00040E050E8B901CA012C96E2E00C948A0E70
:1017E000A8E0B0E0E6EFFBE00C94660E7B018C0114
:1017F000611571058105910519F482E0898360C046
:1018000083E089838EE1C82ED12CDC82CB82ED82ED
:10181000FE820F831887C801B7010E94690CFC0182
:101820003197F7FF3BC0222733272E1B3F0B570171
:101830006801022E04C0D694C794B794A7940A9462
:10184000D2F740E050E060E070E081E090E0A0E09E
:10185000B0E004C0880F991FAA1FBB1F2A95D2F7BA
:101860000197A109B1098E219F21A023B1230097DF
:10187000A105B10521F041E050E060E070E04A29A7
:101880005B296C297D294D835E836F8378878EE188
:1018900090E08E1B9F0B9C838B8312C0309781F04E
:1018A0000E2E04C0EE0CFF1C001F111F0A94D2F76D
:1018B000ED82FE820F831887CE1ADF0ADC82CB828C
:1018C0001A82CE0101960E94B80C2896EAE00C9488
:1018D000820EEF92FF920F931F937B018C0180E0A9
:1018E000E81680E0F80681E0080780E0180788F431
:1018F0008FEFE816F1040105110531F028F088E0BA
:1019000090E0A0E0B0E017C080E090E0A0E0B0E0A0
:1019100012C080E0E81680E0F80680E0080781E069
:10192000180728F088E190E0A0E0B0E004C080E172
:1019300090E0A0E0B0E020E230E040E050E0281B82
:10194000390B4A0B5B0B04C016950795F794E79487
:101950008A95D2F7F701E553FD4F8081281B3109A5
:1019600041095109C9011F910F91FF90EF9008950E
:10197000DF92EF92FF920F931F93FC01E480F580BA
:1019800006811781D1808081823048F480E090E028
:10199000A0E1B0E0E82AF92A0A2B1B2BA5C084306D
:1019A00009F49FC0823021F4EE24FF24870105C092
:1019B000E114F1040105110519F4E0E0F0E096C02E
:1019C000628173819FEF623879070CF05BC022E877
:1019D0003FEF261B370B2A3131052CF020E030E099
:1019E00040E050E02AC0B801A701022E04C076955D
:1019F0006795579547950A94D2F781E090E0A0E06B
:101A0000B0E004C0880F991FAA1FBB1F2A95D2F708
:101A10000197A109B1098E219F21A023B12300972D
:101A2000A105B10521F081E090E0A0E0B0E09A01CD
:101A3000AB01282B392B4A2B5B2BDA01C9018F779D
:101A40009070A070B07080349105A105B10539F493
:101A500027FF09C0205C3F4F4F4F5F4F04C0215C00
:101A60003F4F4F4F5F4FE0E0F0E02030A0E03A07FB
:101A7000A0E04A07A0E45A0710F0E1E0F0E07901A5
:101A80008A0127C06038710564F5FB01E158FF4FFA
:101A9000D801C7018F779070A070B0708034910525
:101AA000A105B10539F4E7FE0DC080E490E0A0E0A7
:101AB000B0E004C08FE390E0A0E0B0E0E80EF91ED3
:101AC0000A1F1B1F17FF05C016950795F794E7948B
:101AD000319687E016950795F794E7948A95D1F7A4
:101AE00005C0EE24FF248701EFEFF0E06E2F67952D
:101AF00066276795902F9F77D794DD24D7948E2FF4
:101B00008695492F462B582F5D29B701CA011F9191
:101B10000F91FF90EF90DF900895FC01DB01408171
:101B200051812281622F6F7770E0221F2227221FAE
:101B30009381892F880F822B282F30E0991F9927B6
:101B4000991F11969C93119721153105A9F54115FF
:101B500051056105710511F482E037C082E89FEFFD
:101B600013969C938E9312979A01AB0167E0220F14
:101B7000331F441F551F6A95D1F783E08C930DC026
:101B8000220F331F441F551F12968D919C9113975E
:101B9000019713969C938E931297203080E038071C
:101BA00080E0480780E4580758F314962D933D933E
:101BB0004D935C93179708952F3F310579F44115A4
:101BC00051056105710519F484E08C93089564FF53
:101BD00003C081E08C9312C01C9210C02F5730407C
:101BE00013963C932E93129783E08C9387E0440FD7
:101BF000551F661F771F8A95D1F7706414964D9311
:101C00005D936D937C93179708951F93DC01FB01FF
:101C10009C91923008F447C08081823008F443C020
:101C2000943051F411961C91843099F58181682F7C
:101C300070E0611B71093FC0843021F0923031F4B3
:101C40008230B9F18181882389F12DC011961C91D0
:101C500011978230F1F081811817D9F412962D91E5
:101C60003C911397828193818217930794F02817F0
:101C70003907BCF014968D919D910D90BC91A02DCB
:101C80002481358146815781281739074A075B0728
:101C900018F4112341F00AC082179307A407B5076F
:101CA00040F4112319F061E070E005C06FEF7FEFA1
:101CB00002C060E070E0CB011F9108952F923F9227
:101CC0004F925F926F927F928F929F92AF92BF924C
:101CD000CF92DF92EF92FF920F931F93CF93DF93F8
:101CE000CDB7DEB7CA1BDB0B0FB6F894DEBF0FBE55
:101CF000CDBF09942A88398848885F846E847D84A2
:101D00008C849B84AA84B984C884DF80EE80FD80A3
:101D10000C811B81AA81B981CE0FD11D0FB6F89419
:101D2000DEBF0FBECDBFED010895662777270C9467
:101D3000A310FB01DC0102C001900D924150504004
:101D4000D8F70895AEE0B0E0E8EAFEE00C946C0E3F
:101D50000D891E8986E08C831A8309838FEF9FE7A4
:101D60009E838D839E01275E3F4FCE0101966F8932
:101D7000788DA9010E94C60E2F813885020F131F8E
:101D8000F80110822E96E4E00C94880EABE0B0E0EF
:101D9000ECECFEE00C945E0E3C012B015A01FC01C0
:101DA00017821682838181FD03C06FEF7FEFC6C16A
:101DB0009AE0892E1E010894211C311CF301238115
:101DC000F20123FD859123FF81912F01882309F4DE
:101DD000B2C1853239F423FD859123FF81912F0112
:101DE000853229F490E0B3010E943912E7CF982F91
:101DF000FF24EE249924FFE1FF15D0F09B3269F017
:101E00009C3228F4903259F0933291F40EC09D32F6
:101E100049F0903369F441E024C052E0F52A84E0AF
:101E2000F82A28C098E0F92A25C0E0E1FE2A22C05D
:101E3000F7FC29C0892F80538A3070F4F6FE05C064
:101E4000989C902C1124980E15C0E89CE02C11242D
:101E5000E80EF0E2FF2A0EC09E3229F4F6FC6BC1B8
:101E600040E4F42A07C09C3619F450E8F52A02C071
:101E7000983649F4F20123FD959123FF91912F01AA
:101E8000992309F0B8CF892F8554833018F08052F8
:101E9000833038F444E050E0A40EB51E5FE359836C
:101EA0000FC0933631F0933779F0933509F056C06F
:101EB00020C0F5018081898342E050E0A40EB51E68
:101EC000610101E010E012C0F501C080D180F6FC94
:101ED00003C06FEF7FEF02C0692D70E042E050E079
:101EE000A40EB51EC6010E942E128C015FE7F522DA
:101EF00014C0F501C080D180F6FC03C06FEF7FEF06
:101F000002C0692D70E042E050E0A40EB51EC6018B
:101F10000E9423128C0150E8F52AF3FE07C01AC074
:101F200080E290E0B3010E943912EA948E2D90E095
:101F300008171907A8F30EC0F601F7FC8591F7FE04
:101F400081916F0190E0B3010E943912E110EA948F
:101F5000015010400115110579F7EAC0943611F0CF
:101F6000993669F5F7FE08C0F5012081318142817B
:101F7000538184E090E00AC0F501808191819C0149
:101F8000442737FD4095542F82E090E0A80EB91EFB
:101F90009FE6F92257FF09C050954095309521954D
:101FA0003F4F4F4F5F4FE0E8FE2ACA01B901A10140
:101FB0002AE030E00E946512D82ED21840C0953732
:101FC00029F41F2D1F7E2AE030E01DC01F2D197F30
:101FD0009F3661F0903720F4983509F0ACC00FC0FF
:101FE000903739F0983709F0A6C004C028E030E0F7
:101FF0000AC0106114FD146020E130E004C014FD3B
:10200000166020E132E017FF08C0F50160817181A0
:102010008281938144E050E008C0F5018081918184
:10202000BC0180E090E042E050E0A40EB51EA101AA
:102030000E946512D82ED2188FE7F82EF122F6FEF4
:102040000BC05EEFF522D91438F4F4FE07C0F2FCA1
:1020500005C08FEEF82202C01D2D01C0192DF4FE1F
:102060000DC0FE01ED0DF11D8081803319F499EE54
:10207000F92208C01F5FF2FE05C003C08F2D8678CD
:1020800009F01F5F0F2DF3FC14C0F0FE0FC01E15EA
:1020900010F09D2C0BC09D2C9E0C911A1E2D06C07D
:1020A00080E290E0B3010E9439121F5F1E15C0F359
:1020B00004C01E1510F4E11A01C0EE2404FF0FC085
:1020C00080E390E0B3010E94391202FF1DC001FDC0
:1020D00003C088E790E00EC088E590E00BC0802F39
:1020E000867891F001FF02C08BE201C080E2F7FC2C
:1020F0008DE290E0B3010E94391206C080E390E0C7
:10210000B3010E9439129A94D914C0F3DA94F10100
:10211000ED0DF11D808190E0B3010E943912DD20A8
:10212000A9F706C080E290E0B3010E943912EA9458
:10213000EE20C1F743CEF30166817781CB012B9668
:10214000E2E10C947A0EA0E0B0E0E9EAF0E10C9450
:10215000640EEC015B016115710519F0FB019183BF
:102160008083F9908F2D90E00E940312892BC9F78C
:10217000FDE2FF1621F4F990EE24E39405C02BE272
:10218000F21609F4F990EE248E0101501040C801B6
:1021900064E970E043E050E00E940B12892B01F5E6
:1021A0008E010E5F1F4FC80167E970E045E050E007
:1021B0000E940B12892B19F48E01095F1F4FA11485
:1021C000B10419F0F50111830083E0FC04C070E054
:1021D00090E080E814C070E090E080E86FEF08C104
:1021E000C8016CE970E043E050E00E940B12892BBB
:1021F00069F4A114B10429F470E090E080EC6FE779
:10220000F7C02296F501D183C083F6CF88249924A4
:1022100040E050E060E070E0EF2DE053EA30A0F5E0
:10222000F2E0EF2A8E2D90E09C0128703070E2FEE3
:1022300006C0232B79F50894811C911C2BC0232BFD
:1022400019F0089481089108DB01CA0112E0880F97
:10225000991FAA1FBB1F1A95D1F7480F591F6A1F54
:102260007B1F440F551F661F771F4E0F511D611DA9
:10227000711D483929E9520729E9620729E17207E6
:1022800048F084E0E82A06C0EE3F31F4E3FC39C0B0
:1022900098E0E92AF990C0CFE53311F0E53189F5EE
:1022A00029912D3219F4E0E1EE2A05C02B3219F004
:1022B00081E090E003C0299182E090E0E22FE053BA
:1022C000EA3018F0C81BD90B1CC020E030E0FCE05D
:1022D00020383F075CF4C901880F991F880F991FA8
:1022E000280F391F220F331F2E0F311DE991E053A4
:1022F000EA3068F3E4FE03C0309521953F4F820E2B
:10230000931ECE2CDD24E1FE07C0A114B10421F000
:102310002197F501D183C083CB01BA010E94F00B54
:102320007B018C01F3E0CF22DD2423E0C216D1042F
:1023300021F417FB109517F9109557016801C80192
:10234000B70120E030E040E050E00E94C312882353
:1023500009F44AC097FE0DC023EBE22E20E0F22ED6
:102360009094819491089394C0E2D0E000E010E052
:1023700012C09BECE92E90E0F92EF6CFF7012591E3
:10238000359145915491C601B5010E9496095B01B2
:102390006C018C1A9D0A8C169D0684F7D595C795FD
:1023A0000F5F1F4F0630110529F08CEF9FEFE80EED
:1023B000F91EF1CFC501D6017C018D018C2D880F4E
:1023C0008D2D881F8F3F51F0C601B50120E030E010
:1023D00040E050E00E94C312882331F482E290E092
:1023E0009093F9068093F8067E2D9F2D802F612F04
:1023F000272F392F482F562FB901CA01CDB7DEB785
:10240000ECE00C94800E9111E6C0803219F08950F6
:102410008550D0F70895FB01DC014150504088F011
:102420008D9181341CF08B350CF4805E65916134A4
:102430001CF06B350CF4605E861B611171F3990B17
:102440000895881BFCCFFC0105906150704001107D
:10245000D8F7809590958E0F9F1F0895FC016150CD
:10246000704001900110D8F7809590958E0F9F1FB6
:1024700008950F931F93CF93DF938C01EB018B8112
:1024800081FF1BC082FF0DC02E813F818C819D8109
:102490002817390764F4E881F9810193F983E88307
:1024A00006C0E885F985802F0995892B31F48E8146
:1024B0009F8101969F838E8302C00FEF1FEFC8019B
:1024C000DF91CF911F910F910895FA01AA2728302B
:1024D00051F1203181F1E8946F936E7F6E5F7F4FF1
:1024E0008F4F9F4FAF4FB1E03ED0B4E03CD0670F6D
:1024F000781F891F9A1FA11D680F791F8A1F911DC0
:10250000A11D6A0F711D811D911DA11D20D009F40F
:1025100068943F912AE0269F11243019305D319351
:10252000DEF6CF010895462F4770405D4193B3E03A
:102530000FD0C9F7F6CF462F4F70405D4A3318F0E1
:10254000495D31FD4052419302D0A9F7EACFB4E092
:10255000A6959795879577956795BA95C9F700974A
:102560006105710508959B01AC010A2E06945795EB
:10257000479537952795BA95C9F7620F731F841F42
:10258000951FA01D089503D008F481E00895990FC8
:102590000008550FAA0BE0E8FEEF16161706E8072D
:1025A000F907C0F012161306E407F50798F0621B4E
:1025B000730B840B950B39F40A2661F0232B242B23
:1025C000252B21F408950A2609F4A140A6958FEF42
:1025D000811D811D0895992788270895F894FFCFBC
:1025E0000A0D456E74657220726F6C6C2872292F0B
:1025F0007961772879292F70697463682868293A86
:1026000020004779726F20616E676C6520783A20F0
:102610002566004779726F20616E676C6520793A94
:10262000202566004779726F20616E676C65207A9D
:102630003A202566000A0D4261747465727920762D
:102640006F6C746167653A202566000A0D49522057
:1026500073656E736F723A202566000A0D436172CE
:10266000676F20686F6F6B20757021000A0D4361E2
:1026700072676F20686F6F6B20646F776E21000A3E
:102680000D4B696C6C20737769746368204F4E2121
:10269000000A0D4B696C6C20737769746368204F76
:1026A000464621000A0D20456E7465722061204B5C
:1026B0002074797065202870206F722069206F72F5
:1026C0002064293A20000A0D20456E746572206B43
:1026D0002076616C7565206F66207468697320745C
:1026E0007970653A20000A0D204572726F723A20A7
:1026F0006B2076616C7565206973206E6F7420693C
:102700006E2072616E676521000A0D2031302D62E6
:102710006974206465632076616C756520666F72EC
:10272000206B20747970653A202563206F66202520
:10273000633A202564000A0D464C414721000A0DEA
:1027400020526F6C6C287229206F72205961772893
:102750007929206F72205069746368286829207075
:102760006C73213A20000A0D2052652D656E746548
:102770007220726F6C6C2872292F79617728792901
:102780002F7069746368286829203A20000A0D2098
:10279000506C732070206F722069206F722064214A
:1027A0003A200000000000000000000001020203C7
:1027B00003030304040404040404040505050505D7
:1027C00005050505050505050505050606060606B4
:1027D0000606060606060606060606060606060699
:1027E0000606060606060606060606070707070784
:1027F0000707070707070707070707070707070769
:102800000707070707070707070707070707070758
:102810000707070707070707070707070707070748
:102820000707070707070707070707080808080833
:102830000808080808080808080808080808080818
:102840000808080808080808080808080808080808
:1028500008080808080808080808080808080808F8
:1028600008080808080808080808080808080808E8
:1028700008080808080808080808080808080808D8
:1028800008080808080808080808080808080808C8
:1028900008080808080808080808080808080808B8
:0C28A000080808080808080808080800D4
:00000001FF
