:100000000C944A000C945C000C94A0000C945C00CE
:100010000C945C000C945C000C945C000C945C00F0
:100020000C945C000C945C000C945C000C945C00E0
:100030000C945C000C945C000C945C000C945C00D0
:100040000C945C000C945C000C945C000C945C00C0
:100050000C945C000C945C000C945C000C945C00B0
:100060000C945C000C945C000C945C000C945C00A0
:100070000C945C000C945C000C945C00D6800182B3
:10008000BCA502C62494ABC281CAF7C4709800C84C
:1000900000E0818211241FBECFEFD0E1DEBFCDBFD3
:1000A00014E0A0E0B1E001C01D92A431B107E1F776
:1000B0000E945E000C9473020C9400000F931F9337
:1000C000CF93DF930E94B8010E9409027894C0E0A8
:1000D000D0E000EE1EE20E946A0181E0BE010E94B3
:1000E0005302219683E0CF3FD80759F0C80101970A
:1000F000F1F781E0BE010E945302C8010197F1F7B8
:10010000EACFFFCF2C989EBD0DB407FEFDCF8EBD6C
:100110000DB407FEFDCF2C9A08952C989EBD0DB40A
:1001200007FEFDCF3EB58EBD0DB407FEFDCF2EB54B
:10013000932F80E02C9A30E0282B392BC9010895A9
:1001400078941F920F920FB60F921124EF92FF92A4
:100150000F931F932F933F934F935F936F937F93CF
:100160008F939F93AF93BF93CF93DF93EF93FF93BF
:10017000E9980091000182E0E82EC4E0D1E0FF247C
:10018000F394ECBA2C981EBC0DB407FEFDCF2C9A4C
:100190000EB407FE85C010910101113029F1113014
:1001A00020F0123009F071C055C0F092040180E0D7
:1001B00090EB0E948D00082F0D5F00930301035008
:1001C0008091050190E08C9FF0018D9FF00D9C9F28
:1001D000F00D1124E95FFE4F8081882309F055C09E
:1001E000F09201010183CDCF80E090EB0E948D0061
:1001F000382F20910401809103012817C8F40327A8
:100200008091050190E08C9FF0018D9FF00D9C9FE7
:10021000F00D11243196E20FF11DE95FFE4F30839E
:10022000223011F40F3F89F52F5F20930401A9CFED
:1002300020910501822F90E08C9FF0018D9FF00DA1
:100240009C9FF00D1124E95FFE4FE082212720934F
:1002500005011BC02091040180910301281758F467
:10026000E22FF0E0E15FFC4F808190E02F5F209370
:100270000401986B12C01092020181E892E80E947A
:1002800082008AEA98EB0E9482001092010181E8C4
:100290009AEC0E94820083E89AEC0E94820071CF5F
:1002A00000930001E99AFF91EF91DF91CF91BF9107
:1002B000AF919F918F917F916F915F914F913F91FE
:1002C0002F911F910F91FF90EF900F900FBE0F9005
:1002D0001F90189580910101882301F580910201FA
:1002E0008130E1F4E99881E092E80E9482008091F7
:1002F00011038A5F809303011092040182E08093CE
:1003000001018AEA98EB0E9482008AEA98EB0E9437
:10031000820081E292E80E948200E99A0895982F73
:1003200080910201882311F083E008956093110306
:1003300090931203692760956093130381E0809383
:10034000020180E8089540910601242F30E084E006
:1003500091E0289FF001299FF00D389FF00D1124A6
:10036000E95FFE4F108281E048274093060108951F
:10037000CF93DF932C9A249A259A279A2C9A249A21
:10038000269881E58CBD8DE280930F0384ED8093E8
:1003900010031092050110920601CCE7D0E0FE0197
:1003A000859194910E948200229680E0C439D807FA
:1003B000B1F78091690088608093690080E090E0E7
:1003C0000E948D0082E08CBB81E89AEC0E94820042
:1003D00083E89AEC0E948200E99ADF91CF91089518
:1003E0000F931F93182F062F80910201882311F07D
:1003F00083E00CC024E133E0C901BA01412F50E091
:100400000E946A02802F612F0E948F011F910F911D
:100410000895EAE7F0E080818668808308958093FC
:100420007C0080917A00806480937A0080917A00C9
:1004300086FDFCCF4091790020917800942F80E0D8
:1004400030E0822B932B9093790080937800209159
:10045000780030917900C90108951092C5008CE0B0
:100460008093C40086E08093C20088E18093C1003D
:100470000895982F8091C00085FFFCCF9093C6000F
:100480000895FC0107C08091C00085FFFCCF9093C8
:10049000C600319690819923B1F70895DC01FB01E4
:1004A00040835C930895DF93CF930F92CDB7DEB76F
:1004B000382F330F330F20E0620F731F698381E001
:1004C000672FAE014F5F5F4F0E94F0010F90CF91F9
:1004D000DF910895FB01DC0102C001900D924150B3
:0A04E0005040D8F70895F894FFCFBC
:00000001FF
