:100000000C943E000C945B000C94EE000C945B008E
:100010000C945B000C945B000C945B000C945B00F4
:100020000C945B000C945B000C945B000C945B00E4
:100030000C945B000C945B000C945B000C945B00D4
:100040000C945B000C945B000C945B000C945B00C4
:100050000C945B000C945B000C945B000C945B00B4
:100060000C945B000C945B000C945B000C945B00A4
:100070000C945B000C945B000C945B0011241FBE7D
:10008000CFEFD0E1DEBFCDBF11E0A0E0B1E0E8EFFF
:10009000FAE002C005900D92A433B107D9F711E040
:1000A000A4E3B1E001C01D92AB35B107E1F70E94B6
:1000B0005D000C947A050C940000CF92DF92EF92D1
:1000C000FF920F931F93DF93CF93CDB7DEB76E9759
:1000D0000FB6F894DEBF0FBECDBF0E9472010E9422
:1000E000DD010E940102789400E010E07E01089496
:1000F000E11CF11C80E0C82E81E0D82E81E0B8011F
:100100000E94270200D000D000D0EDB7FEB7319694
:10011000ADB7BEB71296FC92EE921197D382C2820F
:10012000158304830E94A2028DB79EB706960FB670
:10013000F8949EBF0FBE8DBFC7010E9415020F5FCE
:100140001F4F94E00030190719F00E943901D6CFF3
:10015000FFCF2C989EBD0DB407FEFDCF8EBD0DB414
:1001600007FEFDCF2C9A08952C989EBD0DB407FE76
:10017000FDCF3EB58EBD0DB407FEFDCF2EB5932F3E
:1001800080E02C9A30E0282B392BC90108952C9857
:100190001EBC0DB407FEFDCF2C9A8EB508952C9889
:1001A0008EBD0DB407FEFDCF6EBD0DB407FEFDCFB5
:1001B0002C9A08952C9880EB8EBD0DB407FEFDCFD0
:1001C0001EBC0DB407FEFDCF2C9A8EB50895259A5E
:1001D000279A249A269881E58CBD089578941F92D9
:1001E0000F920FB60F9211242F933F934F935F936B
:1001F0006F937F938F939F93AF93BF93EF93FF93EF
:10020000E9980E94C70087FF22C0809134018230A4
:10021000E1F49091370180913601981760F4E92F4D
:10022000F0E0E85CFE4F60819F5F9093370188EBC0
:100230000E94CF000CC01092350181E092E80E942C
:10024000A90088EB6AEA0E94CF0010923401E99A73
:10025000FF91EF91BF91AF919F918F917F916F919E
:100260005F914F913F912F910F900FBE0F901F9074
:10027000189580913401882301F5809135018130F2
:10028000E1F4E99881E092E80E94A90080913A01A6
:100290008A5F809336011092370182E080933401A7
:1002A0008AEA98EB0E94A9008AEA98EB0E94A900CA
:1002B00081E292E80E94A900E99A0895982F80911E
:1002C0003501882311F083E0089560933A019093FB
:1002D0003B016927609560933C0181E08093350183
:1002E00080E808952C9A249A0E94E70087ED90E810
:1002F0000E94A90081E092E80E94A90086EF94EA9A
:100300000E94A90083E296EC0E94A9008CE294E985
:100310000E94A9008BEA92EC0E94A90081E89AEC65
:100320000E94A90087EF94EC0E94A90080E798E959
:100330000E94A90080E098EC0E94A90080E090EE65
:100340000E94A9008DE28093380184ED80933901E9
:1003500081E092E80E94A900E9E6F0E080818860EF
:10036000808380E090E00E94B400E19A81E89AECFA
:100370000E94A90083E89AEC0E94A900E99A0895D6
:100380000F931F93182F062F8F3110F082E012C0A9
:1003900080913501882311F083E00CC02DE331E01A
:1003A000C901BA01412F50E00E949902802F612FAC
:1003B0000E945E011F910F910895EAE7F0E08081AD
:1003C00086688083089580937C0080917A008064A1
:1003D00080937A0080917A0086FDFCCF409179006D
:1003E00020917800942F80E030E0822B932B909323
:1003F0007900809378002091780030917900C901CC
:1004000008951092C5008CE08093C40086E080932C
:10041000C20088E18093C1000895982F8091C000A8
:1004200085FFFCCF9093C6000895FC0107C0809122
:10043000C00085FFFCCF9093C60031969081992330
:10044000B1F70895DC01FB0140835C930895EF92BE
:10045000FF920F931F93DF93CF93CDB7DEB76F97C4
:100460000FB6F894DEBF0FBECDBF8B01382F330F10
:10047000330F20E0020F131F00D000D000D0EDB7E3
:10048000FEB7319682E0E82EF12CEC0EFD1EADB7E2
:10049000BEB71296FC92EE92119780E191E09383A1
:1004A0008283158304830E94A2028DB79EB70696AD
:1004B0000FB6F8949EBF0FBE8DBFC7010E941502F4
:1004C0000983ADB7BEB718970FB6F894BEBF0FBE7D
:1004D000ADBFEDB7FEB731961296FC92EE92119732
:1004E00083E291E0938382831483158206831782CB
:1004F0000E94A2028DB79EB708960FB6F8949EBFD1
:100500000FBE8DBFC7010E94150281E0612FAE01B1
:100510004F5F5F4F0E94C0016F960FB6F894DEBF29
:100520000FBECDBFCF91DF911F910F91FF90EF9044
:100530000895FB01DC0102C001900D924150504032
:10054000D8F70895AEE0B0E0E8EAF2E00C94510587
:100550000D891E8986E08C831A8309838FEF9FE7BC
:100560009E838D839E01275E3F4FCE0101966F894A
:10057000788DA9010E94C6022F813885020F131FB2
:10058000F80110822E96E4E00C946D05ABE0B0E02B
:10059000ECECF2E00C9443053C012B015A01FC0108
:1005A00017821682838181FD03C06FEF7FEFC6C182
:1005B0009AE0892E1E010894211C311CF30123812D
:1005C000F20123FD859123FF81912F01882309F4F6
:1005D000B2C1853239F423FD859123FF81912F012A
:1005E000853229F490E0B3010E94B904E7CF982F37
:1005F000FF24EE249924FFE1FF15D0F09B3269F02F
:100600009C3228F4903259F0933291F40EC09D320E
:1006100049F0903369F441E024C052E0F52A84E0C7
:10062000F82A28C098E0F92A25C0E0E1FE2A22C075
:10063000F7FC29C0892F80538A3070F4F6FE05C07C
:10064000989C902C1124980E15C0E89CE02C112445
:10065000E80EF0E2FF2A0EC09E3229F4F6FC6BC1D0
:1006600040E4F42A07C09C3619F450E8F52A02C089
:10067000983649F4F20123FD959123FF91912F01C2
:10068000992309F0B8CF892F8554833018F0805210
:10069000833038F444E050E0A40EB51E5FE3598384
:1006A0000FC0933631F0933779F0933509F056C087
:1006B00020C0F5018081898342E050E0A40EB51E80
:1006C000610101E010E012C0F501C080D180F6FCAC
:1006D00003C06FEF7FEF02C0692D70E042E050E091
:1006E000A40EB51EC6010E94AE048C015FE7F52280
:1006F00014C0F501C080D180F6FC03C06FEF7FEF1E
:1007000002C0692D70E042E050E0A40EB51EC601A3
:100710000E94A3048C0150E8F52AF3FE07C01AC01A
:1007200080E290E0B3010E94B904EA948E2D90E03B
:1007300008171907A8F30EC0F601F7FC8591F7FE1C
:1007400081916F0190E0B3010E94B904E110EA9435
:10075000015010400115110579F7EAC0943611F0E7
:10076000993669F5F7FE08C0F50120813181428193
:10077000538184E090E00AC0F501808191819C0161
:10078000442737FD4095542F82E090E0A80EB91E13
:100790009FE6F92257FF09C0509540953095219565
:1007A0003F4F4F4F5F4FE0E8FE2ACA01B901A10158
:1007B0002AE030E00E94E504D82ED21840C09537D8
:1007C00029F41F2D1F7E2AE030E01DC01F2D197F48
:1007D0009F3661F0903720F4983509F0ACC00FC017
:1007E000903739F0983709F0A6C004C028E030E00F
:1007F0000AC0106114FD146020E130E004C014FD53
:10080000166020E132E017FF08C0F50160817181B8
:100810008281938144E050E008C0F501808191819C
:10082000BC0180E090E042E050E0A40EB51EA101C2
:100830000E94E504D82ED2188FE7F82EF122F6FE9A
:100840000BC05EEFF522D91438F4F4FE07C0F2FCB9
:1008500005C08FEEF82202C01D2D01C0192DF4FE37
:100860000DC0FE01ED0DF11D8081803319F499EE6C
:10087000F92208C01F5FF2FE05C003C08F2D8678E5
:1008800009F01F5F0F2DF3FC14C0F0FE0FC01E1502
:1008900010F09D2C0BC09D2C9E0C911A1E2D06C095
:1008A00080E290E0B3010E94B9041F5F1E15C0F3FF
:1008B00004C01E1510F4E11A01C0EE2404FF0FC09D
:1008C00080E390E0B3010E94B90402FF1DC001FD66
:1008D00003C088E790E00EC088E590E00BC0802F51
:1008E000867891F001FF02C08BE201C080E2F7FC44
:1008F0008DE290E0B3010E94B90406C080E390E06D
:10090000B3010E94B9049A94D914C0F3DA94F101A6
:10091000ED0DF11D808190E0B3010E94B904DD204E
:10092000A9F706C080E290E0B3010E94B904EA94FE
:10093000EE20C1F743CEF30166817781CB012B9680
:10094000E2E10C945F05FC010590615070400110DC
:10095000D8F7809590958E0F9F1F0895FC016150E8
:10096000704001900110D8F7809590958E0F9F1FD1
:1009700008950F931F93CF93DF938C01EB018B812D
:1009800081FF1BC082FF0DC02E813F818C819D8124
:100990002817390764F4E881F9810193F983E88322
:1009A00006C0E885F985802F0995892B31F48E8161
:1009B0009F8101969F838E8302C00FEF1FEFC801B6
:1009C000DF91CF911F910F910895FA01AA27283046
:1009D00051F1203181F1E8946F936E7F6E5F7F4F0C
:1009E0008F4F9F4FAF4FB1E03ED0B4E03CD0670F88
:1009F000781F891F9A1FA11D680F791F8A1F911DDB
:100A0000A11D6A0F711D811D911DA11D20D009F42A
:100A100068943F912AE0269F11243019305D31936C
:100A2000DEF6CF010895462F4770405D4193B3E055
:100A30000FD0C9F7F6CF462F4F70405D4A3318F0FC
:100A4000495D31FD4052419302D0A9F7EACFB4E0AD
:100A5000A6959795879577956795BA95C9F7009765
:100A60006105710508959B01AC010A2E0694579506
:100A7000479537952795BA95C9F7620F731F841F5D
:100A8000951FA01D08952F923F924F925F926F92F3
:100A90007F928F929F92AF92BF92CF92DF92EF920E
:100AA000FF920F931F93CF93DF93CDB7DEB7CA1B8F
:100AB000DB0B0FB6F894DEBF0FBECDBF09942A88BA
:100AC000398848885F846E847D848C849B84AA8462
:100AD000B984C884DF80EE80FD800C811B81AA81EF
:100AE000B981CE0FD11D0FB6F894DEBF0FBECDBFBA
:080AF000ED010895F894FFCF19
:100AF8000A0D5465737464617461203D2025640097
:100B08000A0D546F74616C7061636B6574203D20CD
:100B18002575000A0D53656E64696E673A20257560
:040B2800202575000F
:00000001FF
