:100000000C943E000C94D2000C9428010C945B00DC
:100010000C945B000C945B000C945B000C945B00F4
:100020000C945B000C945B000C945B000C945B00E4
:100030000C945B000C945B000C945B000C945B00D4
:100040000C945B000C945B000C945B000C945B00C4
:100050000C945B000C945B000C945B000C945B00B4
:100060000C945B000C945B000C945B000C945B00A4
:100070000C945B000C945B000C945B0011241FBE7D
:10008000CFEFD0E1DEBFCDBF11E0A0E0B1E0E0E016
:10009000F7E002C005900D92A230B107D9F711E048
:1000A000A2E0B1E001C01D92AE37B107E1F70E94B6
:1000B00063030C947E030C940000613011F42C98BF
:1000C00001C02B989EBD0DB407FEFDCF8EBD0DB4B3
:1000D00007FEFDCF613011F42C9A08952B9A0895F4
:1000E000613011F42C9801C02B989EBD0DB407FE11
:1000F000FDCF3EB58EBD0DB407FEFDCF2EB56130F0
:1001000011F42C9A01C02B9A932F80E030E0282B19
:10011000392BC9010895813011F42C9801C02B9816
:100120001EBC0DB407FEFDCF813011F42C9A01C026
:100130002B9A8EB50895413011F42C9801C02B985C
:100140008EBD0DB407FEFDCF6EBD0DB407FEFDCF15
:10015000413011F42C9A08952B9A0895982F8130EC
:1001600011F42C9801C02B9880EB8EBD0DB407FEC6
:10017000FDCF1EBC0DB407FEFDCF913011F42C9ABB
:1001800001C02B9A8EB50895259A279A94B1813093
:1001900011F088E001C080E1892B84B9269881E5BF
:1001A0008CBD089578941F920F920FB60F92112470
:1001B0002F933F934F935F936F937F938F939F936F
:1001C000AF93BF93EF93FF93E89880E00E948B007A
:1001D00087FF2CC0809174018230E1F49091770107
:1001E00080917601981750F4E92FF0E0EF5AFE4F16
:1001F00060819F5F9093770188EB15C01092750125
:1002000081E892E860E00E945D0088EB6AEA40E0E5
:100210000E949B00109274018AEC61E840E00E9409
:100220009B008AEC63E840E00E949B00E89AFF9103
:10023000EF91BF91AF919F918F917F916F915F915E
:100240004F913F912F910F900FBE0F901F901895D7
:1002500078941F920F920FB60F9211241F932F9331
:100260003F934F935F936F937F938F939F93AF933E
:10027000BF93EF93FF93E99881E00E948B0087FF83
:1002800088C0809147018130F9F0813020F08230C0
:1002900009F073C056C011E010934A0181E00E943A
:1002A000AE00982F809302019D5F90934901935077
:1002B000E0914B01F0914C018081882309F05DC0F1
:1002C00010934701918365C090914A018091490143
:1002D0009817E8F481E00E94AE00909102019827FF
:1002E0009093020120914A01213238F4E0914B01B0
:1002F000F0914C01E20FF11D818380914A0182301F
:1003000011F49F3FD1F58F5F80934A0142C0E09185
:100310004B01F0914C0182E0808380914F0190E08D
:10032000019681709070282F80934F0182E2289F60
:10033000900111242D5F3E4F30934C0120934B01CF
:100340001CC090914A0180914901981750F4E92FFF
:10035000F0E0EF5AFE4F60819F5F90934A0188EB77
:1003600015C01092480181E892E861E00E945D00AA
:1003700088EB6AEA41E00E949B00109247018AECF8
:1003800061E841E00E949B008AEC63E841E00E9442
:100390009B00E99AFF91EF91BF91AF919F918F914F
:1003A0007F916F915F914F913F912F911F910F908E
:1003B0000FBE0F901F9018951F93DF93CF93CDB76B
:1003C000DEB72E970FB6F894DEBF0FBECDBF182F45
:1003D000CE010596113049F4DC01E7E4F1E08AE052
:1003E00001900D928150E1F708C0DC01E4E7F1E0F3
:1003F0008AE001900D928150E1F78D818B838E818F
:100400008C838C8189838B818A838A818823A1F55F
:10041000E89880E090E0612F0E947000E89A90FFD9
:1004200004C088EC8093000127C0809100018150B6
:1004300080930001882301F581E080930001898188
:100440008130D1F41123C1F4E89881E092E860E0B2
:100450000E945D0082E08A838AEA98EB60E00E9455
:100460005D008AEA98EB60E00E945D0081E292E81C
:1004700060E00E945D00E89A2E960FB6F894DEBF09
:100480000FBECDBFCF91DF911F910895982F80911E
:100490007501882311F083E00895609353019093D0
:1004A0005401692760956093550181E0809375013F
:1004B00080E80895E0914D01F0914E011082809105
:1004C000500190E0019681709070282F8093500128
:1004D00082E2289F900111242D5F3E4F30934E0100
:1004E00020934D0108952C9A249A81E00E94C40023
:1004F00087ED90E861E00E945D0081E092E861E0B4
:100500000E945D0086EF94EA61E00E945D0083E254
:1005100096EC61E00E945D008CE294E961E00E944B
:100520005D008BEA92EC61E00E945D0081E89AEC4C
:1005300061E00E945D0087EF94EC61E00E945D0045
:1005400080E798E961E00E945D0080E098EC61E05E
:100550000E945D0080E090EE61E00E945D008DE20F
:100560008093510184ED8093520183E091E0909358
:100570004E0180934D0190934C0180934B0181E893
:1005800092E861E00E945D00E9E6F0E080818A6027
:10059000808380E090E061E00E947000E19A81E851
:1005A0009AEC61E00E945D0083E89AEC61E00E94B1
:1005B0005D00E99A08952B9A239A80E00E94C40076
:1005C00087ED90E860E00E945D0081E092E860E0E5
:1005D0000E945D0086EF94EA60E00E945D0083E285
:1005E00096EC60E00E945D008CE294E960E00E947D
:1005F0005D008BEA92EC60E00E945D0081E89AEC7D
:1006000060E00E945D0087EF94EC60E00E945D0076
:1006100080E798E960E00E945D0080E098EC60E08F
:100620000E945D0080E090EE60E00E945D008DE23F
:100630008093510184ED8093520181E892E860E05B
:100640000E945D00E9E6F0E080818A60808380E0BE
:1006500090E060E00E947000E09A81E89AEC60E02F
:100660000E945D0083E89AEC60E00E945D00E89AD9
:1006700008950F931F93182F062F8F3110F082E0EB
:1006800012C080917501882311F083E00CC026E52B
:1006900031E0C901BA01412F50E00E947503802F5B
:1006A000612F0E9446021F910F910895DC01FB010A
:1006B0009C9180E020813181820F931F9370918300
:1006C00080831C9208950E94DB020E94730278943A
:1006D00080E00E94DC01E0914D01F0914E018081AB
:1006E0008230B1F70E945A02F3CFFB01DC0102C055
:1006F00001900D9241505040D8F70895F894FFCFE3
:020700001000E7
:00000001FF
