:100000000C944A000C94A1000C94C9020C94670053
:100010000C9467000C9467000C9467000C946700C4
:100020000C9467000C9467000C9467000C946700B4
:100030000C9467000C9467000C9467000C946700A4
:100040000C9467000C9467000C9467000C94670094
:100050000C9467000C9467000C9467000C94670084
:100060000C9467000C9467000C9467000C94670074
:100070000C9467000C9467000C946700D680018292
:10008000BCA502C62494ABC281CAF7C4709800C84C
:1000900000E0818211241FBECFEFD0E1DEBFCDBFD3
:1000A00011E0A0E0B1E0ECE0FEE002C005900D92AE
:1000B000AA32B107D9F714E0AAE2B1E001C01D925B
:1000C000A534B107E1F70E9416020C9404070C94C2
:1000D00000001F93182F8A3019F48DE00E946900E8
:1000E0008091C00085FFFCCF1093C600212F3327DD
:1000F00027FD3095C9011F9108958091C00087FFA9
:10010000FCCF8091C60090E008951092C5008CE06D
:100110008093C40088E18093C10086E08093C20090
:100120008CE191E0909342048093410490934404C5
:10013000809343048EE091E09093400480933F04C9
:1001400008951F920F920FB60F9211248F9381E0A2
:1001500080932A018F910F900FBE0F901F901895DA
:10016000FC018081918180509440A8F48281938128
:100170008050944080F4848195818050944058F45C
:1001800020E0868197818050944008F021E081E052
:100190002827822F089580E090E00895DC01FB017C
:1001A000CA01937091838083852F869586958C9361
:1001B0000895682F6770AC01487FE62FF0E081E07A
:1001C00021E030E005C0220F331F2F5F3F4F8F5FCC
:1001D0008617C8F380E190E08E1B9F0BDA0102C006
:1001E000B695A7958A95E2F72A2330E083E0220F9F
:1001F000331F8A95E1F702C0440F551FEA95E2F7D5
:10020000240F351F287F260F311DC9010895EF9255
:10021000FF920F931F937C018B01F701908180E087
:10022000FB0120813181820F931F0E94D9009C0124
:100230003370F80131832083892F86958695F701E5
:1002400080831F910F91FF90EF90089521E030E09F
:1002500091E005C0220F331F2F5F3F4F9F5F98171C
:10026000C8F3C9010895DC01FB0140835C93089544
:10027000BC01482F477081E021E030E005C0220F2B
:10028000331F2F5F3F4F8F5F8417C8F350E0CB01C0
:10029000E3E096958795EA95E1F7282330E080E141
:1002A00090E0841B950B02C0220F331F8A95E2F762
:1002B000042E02C0769567950A94E2F7260F371F41
:1002C000287F240F351FC9010895EAE7F0E08081F7
:1002D00086688083089580937C0080917A00806492
:1002E00080937A0080917A0086FDFCCF409179005E
:1002F00020917800942F80E030E0822B932B909314
:100300007900809378002091780030917900C901BC
:100310000895E1E8F0E08081856080831092850097
:10032000109284000895DF93CF930F92CDB7DEB77C
:10033000382F330F330F20E0C901860F971F0E941B
:100340003801898381E0692FAE014F5F5F4F0E94C2
:1003500019040F90CF91DF910895CF93DF93EC01B3
:100360000E94B00020E031E0882311F18DB79EB7E4
:100370000A970FB6F8949EBF0FBE8DBFEDB7FEB7BC
:100380003196ADB7BEB712963C932E9311978881E4
:100390009981938382838A819B81958384838C81D5
:1003A0009D81978386838E819F819187808717C0E7
:1003B000ADB7BEB71A970FB6F894BEBF0FBEADBFAC
:1003C000EDB7FEB7319612963C932E931197138298
:1003D00012821582148217821682118610860E945C
:1003E0003B048DB79EB70A960FB6F8949EBF0FBE1A
:1003F0008DBF10922A01DF91CF9108950F931F9323
:10040000CF93DF938C01EC0109C000D0EDB7FEB7AC
:10041000018312830E943B040F900F9089918823DF
:10042000A1F7DF91CF911F910F910895AF92BF92E5
:10043000CF92DF92EF92FF920F931F93DF93CF93B0
:10044000CDB7DEB72B970FB6F894DEBF0FBECDBF8A
:1004500080917A00866880937A000E94E1030E946E
:100460008500529A5A988091690083608093690050
:10047000E89A789474E0A72E71E0B72E62E0C62E59
:10048000D12CCC0EDD1E7E010894E11CF11C8E01E6
:100490000C5F1F4F0E94930380913101282F30E0A1
:1004A0002A9DF0012B9DF00D3A9DF00D1124EE5C7C
:1004B000FE4F8081823009F045C0F901EE0FFF1F29
:1004C000C9019695982F882797958795E80FF91F6A
:1004D000EE0FFF1FEC5CFE4F80818983F901B6E0CF
:1004E000EE0FFF1FBA95E1F7E20FF31FEE0FFF1FAC
:1004F000EE0FFF1FEA5CFE4F80818A831B820E9401
:10050000CC03C701B6010E9407018981813061F0E7
:10051000813028F0823069F08330A1F40FC08A81E5
:100520009B819D838C830EC08A819B819B878A8758
:1005300009C08A819B819F838E8304C08A819B81AD
:100540009987888780912A01882309F4A3CFC8015D
:100550000E94AD019FCF2C989EBD0DB407FEFDCF2C
:100560008EBD0DB407FEFDCF2C9A08952C989EBD2C
:100570000DB407FEFDCF3EB58EBD0DB407FEFDCF19
:100580002EB5932F80E02C9A30E0282B392BC9010F
:10059000089578941F920F920FB60F921124EF9244
:1005A000FF920F931F932F933F934F935F936F93FC
:1005B0007F938F939F93AF93BF93CF93DF93EF93EB
:1005C000FF93E99800912B0182E0E82EC4E0D1E08E
:1005D000FF24F394ECBA2C981EBC0DB407FEFDCF9B
:1005E0002C9A0EB407FE85C010912C01113029F110
:1005F000113020F0123009F071C055C0F0922F0177
:1006000080E090EB0E94B602082F0D5F00932E0150
:1006100003508091300190E08C9FF0018D9FF00D90
:100620009C9FF00D1124EE5CFE4F8081882309F021
:1006300055C0F0922C010183CDCF80E090EB0E9459
:10064000B602382F20912F0180912E012817C8F46F
:1006500003278091300190E08C9FF0018D9FF00D79
:100660009C9FF00D11243196E20FF11DEE5CFE4FC0
:100670003083223011F40F3F89F52F5F20932F0133
:10068000A9CF20913001822F90E08C9FF0018D9FA7
:10069000F00D9C9FF00D1124EE5CFE4FE0822127AF
:1006A000209330011BC020912F0180912E0128172B
:1006B00058F4E22FF0E0E65CFC4F808190E02F5F81
:1006C00020932F01986B12C010922D0181E892E8BF
:1006D0000E94AB028AEA98EB0E94AB0210922C01B6
:1006E00081E89AEC0E94AB0283E89AEC0E94AB028C
:1006F00071CF00932B01E99AFF91EF91DF91CF9198
:10070000BF91AF919F918F917F916F915F914F9129
:100710003F912F911F910F91FF90EF900F900FBE7F
:100720000F901F90189580912C01882301F58091DE
:100730002D018130E1F4E99881E092E80E94AB025A
:1007400080913C038A5F80932E0110922F0182E0FA
:1007500080932C018AEA98EB0E94AB028AEA98EB1C
:100760000E94AB0281E292E80E94AB02E99A0895EE
:10077000982F80912D01882311F083E008956093D4
:100780003C0390933D036927609560933E0381E0AD
:1007900080932D0180E8089540913101242F30E0AD
:1007A00084E091E0289FF001299FF00D389FF00D23
:1007B0001124EE5CFE4F108281E048274093310106
:1007C0000895CF93DF932C9A249A259A279A2C9AEE
:1007D000249A269881E58CBD8DE280933A0384EDBE
:1007E00080933B031092300110923101CCE7D0E0AE
:1007F000FE01859194910E94AB02229680E0C4395B
:10080000D807B1F78091690088608093690080E023
:1008100090E00E94B60282E08CBB81E89AEC0E94D4
:10082000AB0283E89AEC0E94AB02E99ADF91CF9188
:1008300008950F931F93182F062F80912D01882361
:1008400011F083E00CC02FE333E0C901BA01412F5E
:1008500050E00E943204802F612F0E94B8031F9144
:100860000F910895FB01DC0102C001900D924150EF
:100870005040D8F70895A0E0B0E0E1E4F4E00C9433
:10088000DD06FE0135966191719180914104909150
:100890004204AF010E9450042096E2E00C94F90655
:1008A000ABE0B0E0E6E5F4E00C94CD063C012B01B2
:1008B0005A01FC0117821682838181FD03C06FEF0C
:1008C0007FEFC6C19AE0892E1E010894211C311CBD
:1008D000F3012381F20123FD859123FF81912F01F3
:1008E000882309F4B2C1853239F423FD859123FFB1
:1008F00081912F01853229F490E0B3010E944306D3
:10090000E7CF982FFF24EE249924FFE1FF15D0F0C4
:100910009B3269F09C3228F4903259F0933291F472
:100920000EC09D3249F0903369F441E024C052E09A
:10093000F52A84E0F82A28C098E0F92A25C0E0E1E9
:10094000FE2A22C0F7FC29C0892F80538A3070F418
:10095000F6FE05C0989C902C1124980E15C0E89CBA
:10096000E02C1124E80EF0E2FF2A0EC09E3229F49A
:10097000F6FC6BC140E4F42A07C09C3619F450E839
:10098000F52A02C0983649F4F20123FD959123FF20
:1009900091912F01992309F0B8CF892F8554833085
:1009A00018F08052833038F444E050E0A40EB51EB5
:1009B0005FE359830FC0933631F0933779F0933565
:1009C00009F056C020C0F5018081898342E050E0E3
:1009D000A40EB51E610101E010E012C0F501C08057
:1009E000D180F6FC03C06FEF7FEF02C0692D70E08D
:1009F00042E050E0A40EB51EC6010E9438068C01EC
:100A00005FE7F52214C0F501C080D180F6FC03C079
:100A10006FEF7FEF02C0692D70E042E050E0A40E5E
:100A2000B51EC6010E942D068C0150E8F52AF3FE82
:100A300007C01AC080E290E0B3010E944306EA9426
:100A40008E2D90E008171907A8F30EC0F601F7FCE9
:100A50008591F7FE81916F0190E0B3010E944306FA
:100A6000E110EA94015010400115110579F7EAC030
:100A7000943611F0993669F5F7FE08C0F50120812A
:100A800031814281538184E090E00AC0F501808188
:100A900091819C01442737FD4095542F82E090E0DE
:100AA000A80EB91E9FE6F92257FF09C05095409540
:100AB000309521953F4F4F4F5F4FE0E8FE2ACA0126
:100AC000B901A1012AE030E00E946F06D82ED218A9
:100AD00040C0953729F41F2D1F7E2AE030E01DC04D
:100AE0001F2D197F9F3661F0903720F4983509F05B
:100AF000ACC00FC0903739F0983709F0A6C004C0D9
:100B000028E030E00AC0106114FD146020E130E0FC
:100B100004C014FD166020E132E017FF08C0F501A3
:100B2000608171818281938144E050E008C0F501C9
:100B300080819181BC0180E090E042E050E0A40E11
:100B4000B51EA1010E946F06D82ED2188FE7F82E8D
:100B5000F122F6FE0BC05EEFF522D91438F4F4FE54
:100B600007C0F2FC05C08FEEF82202C01D2D01C0A7
:100B7000192DF4FE0DC0FE01ED0DF11D80818033B5
:100B800019F499EEF92208C01F5FF2FE05C003C0F8
:100B90008F2D867809F01F5F0F2DF3FC14C0F0FE37
:100BA0000FC01E1510F09D2C0BC09D2C9E0C911A91
:100BB0001E2D06C080E290E0B3010E9443061F5F35
:100BC0001E15C0F304C01E1510F4E11A01C0EE2476
:100BD00004FF0FC080E390E0B3010E94430602FFD0
:100BE0001DC001FD03C088E790E00EC088E590E0DD
:100BF0000BC0802F867891F001FF02C08BE201C00C
:100C000080E2F7FC8DE290E0B3010E94430606C04B
:100C100080E390E0B3010E9443069A94D914C0F394
:100C2000DA94F101ED0DF11D808190E0B3010E9495
:100C30004306DD20A9F706C080E290E0B3010E94E0
:100C40004306EA94EE20C1F743CEF3016681778133
:100C5000CB012B96E2E10C94E906FC010590615072
:100C600070400110D8F7809590958E0F9F1F0895C2
:100C7000FC016150704001900110D8F7809590956B
:100C80008E0F9F1F08950F931F93CF93DF938C01B7
:100C9000EB018B8181FF1BC082FF0DC02E813F8144
:100CA0008C819D812817390764F4E881F9810193CB
:100CB000F983E88306C0E885F985802F0995892B9B
:100CC00031F48E819F8101969F838E8302C00FEF46
:100CD0001FEFC801DF91CF911F910F910895FA0185
:100CE000AA27283051F1203181F1E8946F936E7F6B
:100CF0006E5F7F4F8F4F9F4FAF4FB1E03ED0B4E05C
:100D00003CD0670F781F891F9A1FA11D680F791F9C
:100D10008A1F911DA11D6A0F711D811D911DA11DAD
:100D200020D009F468943F912AE0269F11243019BD
:100D3000305D3193DEF6CF010895462F4770405D58
:100D40004193B3E00FD0C9F7F6CF462F4F70405D07
:100D50004A3318F0495D31FD4052419302D0A9F762
:100D6000EACFB4E0A6959795879577956795BA955C
:100D7000C9F700976105710508959B01AC010A2E22
:100D800006945795479537952795BA95C9F7620FF9
:100D9000731F841F951FA01D08952F923F924F929D
:100DA0005F926F927F928F929F92AF92BF92CF92FB
:100DB000DF92EF92FF920F931F93CF93DF93CDB704
:100DC000DEB7CA1BDB0B0FB6F894DEBF0FBECDBF7C
:100DD00009942A88398848885F846E847D848C844D
:100DE0009B84AA84B984C884DF80EE80FD800C8156
:100DF0001B81AA81B981CE0FD11D0FB6F894DEBF39
:0C0E00000FBECDBFED010895F894FFCFA8
:100E0C007425647925647025647225640A000000D9
:100E1C0000010000000000007D0000000000000246
:0A0E2C000000000069000000000053
:00000001FF
