:100000000C944A000C94A1000C949F030C9467007C
:100010000C9467000C9467000C9467000C946700C4
:100020000C9467000C9467000C9467000C946700B4
:100030000C9467000C9467000C9467000C946700A4
:100040000C9467000C9467000C9467000C94670094
:100050000C9467000C9467000C9467000C94670084
:100060000C9467000C9467000C9467000C94670074
:100070000C9467000C9467000C946700D680018292
:10008000BCA502C62494ABC281CAF7C4709800C84C
:1000900000E0818211241FBECFEFD0E1DEBFCDBFD3
:1000A00011E0A0E0B1E0E8EBFFE002C005900D92A6
:1000B000AC37B107D9F714E0ACE7B1E001C01D924D
:1000C000A739B107E1F70E9453020C94DA070C94A8
:1000D00000001F93182F8A3019F48DE00E946900E8
:1000E0008091C00085FFFCCF1093C600212F3327DD
:1000F00027FD3095C9011F9108958091C00087FFA9
:10010000FCCF8091C60090E008951092C5008CE06D
:100110008093C40088E18093C10086E08093C20090
:100120008DE691E0909394048093930490939604C9
:10013000809395048FE591E09093920480939104CD
:1001400008951F920F920FB60F9211248F9381E0A2
:1001500080937C018F910F900FBE0F901F90189588
:10016000FC018081918180509440A8F48281938128
:100170008050944080F4848195818050944058F45C
:1001800020E0868197818050944008F021E081E052
:100190002827822F089580E090E00895DC01FB017C
:1001A000CA01937091838083852F869586958C9361
:1001B0000895682F6770AC01487FE62FF0E081E07A
:1001C00021E030E005C0220F331F2F5F3F4F8F5FCC
:1001D0008617C8F380E190E08E1B9F0BDA0102C006
:1001E000B695A7958A95E2F72A2330E083E0220F9F
:1001F000331F8A95E1F702C0440F551FEA95E2F7D5
:10020000240F351F287F260F311DC9010895EF9255
:10021000FF920F931F937C018B01F701908180E087
:10022000FB0120813181820F931F0E94D9009C0124
:100230003370F80131832083892F86958695F701E5
:1002400080831F910F91FF90EF90089521E030E09F
:1002500091E005C0220F331F2F5F3F4F9F5F98171C
:10026000C8F3C9010895DC01FB0140835C93089544
:10027000BC01482F477081E021E030E005C0220F2B
:10028000331F2F5F3F4F8F5F8417C8F350E0CB01C0
:10029000E3E096958795EA95E1F7282330E080E141
:1002A00090E0841B950B02C0220F331F8A95E2F762
:1002B000042E02C0769567950A94E2F7260F371F41
:1002C000287F240F351FC9010895EAE7F0E08081F7
:1002D00086688083ECE7F0E0808180648083089505
:1002E00080937C0080917A00806480937A00809172
:1002F0007A0086FDFCCF4091790020917800942F00
:1003000080E030E0822B932B9093790080937800EB
:100310002091780030917900C9010895E1E8F0E07A
:1003200080818560808310928500109284000895FA
:10033000569A579A81E88093B00086E08093B10086
:100340000895529A5A98E9E6F0E0808183608083AC
:10035000E89A78940895389A409808951F93182F32
:10036000853110F014E103C0882309F411E000D0B6
:1003700000D0EDB7FEB7319680E091E0ADB7BEB7E3
:1003800012969C938E931197128313820E941105EB
:100390001093B3000F900F900F900F901F9108953E
:1003A000CF93DF93EC010E94B00020E131E088237D
:1003B00011F18DB79EB70A970FB6F8949EBF0FBE86
:1003C0008DBFEDB7FEB73196ADB7BEB712963C9371
:1003D0002E93119788819981938382838A819B814F
:1003E000958384838C819D81978386838E819F8171
:1003F0009187808717C0ADB7BEB71A970FB6F8942C
:10040000BEBF0FBEADBFEDB7FEB7319612963C939F
:100410002E931197138212821582148217821682EC
:10042000118610860E9411058DB79EB70A960FB6E9
:10043000F8949EBF0FBE8DBF10927C01DF91CF91CB
:1004400008950F931F93CF93DF938C01EC0109C0A4
:1004500000D0EDB7FEB7018312830E9411050F9003
:100460000F9089918823A1F7DF91CF911F910F9170
:100470000895DF93CF930F92CDB7DEB7382F330FA8
:10048000330F20E0C901860F971F0E94380189832E
:1004900081E0692FAE014F5F5F4F0E94EF040F9024
:1004A000CF91DF9108952F923F924F925F926F927A
:1004B0007F928F929F92AF92BF92CF92DF92EF92F4
:1004C000FF920F931F93DF93CF93CDB7DEB72B9798
:1004D0000FB6F894DEBF0FBECDBF8091810085605E
:1004E00080938100109285001092840080917A00A0
:1004F000866880937A0080917C00806480937C0081
:100500000E94B7040E9485000E9498010E94A101E8
:10051000389A4098DD2464E0262E61E0362E52E0C1
:10052000452E512C4C0E5D1E3E010894611C711C21
:100530004FE3C42E3FE3832E912C20E7E22E27E1E8
:10054000F22E94E0A92EB12CAC0EBD1E0E946904BF
:1005500080918301282F30E0229DF001239DF00D32
:10056000329DF00D1124EC57FE4F8081823009F04E
:1005700077C0F901EE0FFF1FC9019695982F8827C4
:1005800097958795E80FF91FEE0FFF1FEA57FE4F6B
:1005900080818983F901B6E0EE0FFF1FBA95E1F77C
:1005A000E20FF31FEE0FFF1FEE0FFF1FE857FE4F86
:1005B00080818A831B820E94A204C301B2010E942F
:1005C000070189818230B9F0833030F4882349F003
:1005D000813009F042C00AC0833091F08430E9F5DF
:1005E00014C08A819B819D838C8337C08A819B81C3
:1005F0009B878A8732C08A819B819F838E832DC08F
:100600008A819B819987888728C08A819B818130D4
:10061000910579F08130910530F082309105B9F083
:100620000397D9F40EC081E00E94AE018EE191E003
:1006300005C084E10E94AE0188E291E00E9421029F
:100640000CC084E391E00E942102DD2406C08BE40B
:1006500091E00E942102DD24D394C9829B828A8288
:1006600080E090E00E9470018C0180918400909164
:1006700085008C57954108F43BC08091840090918F
:10068000850081579741A0F5DD2091F510928500F6
:100690001092840083E00637180708F4309A8EE041
:1006A000B8010E943902C7010197F1F70E9469045D
:1006B0008EE0B8010E943902C7010197F1F70E944C
:1006C000690481E090E00E9470018C0183E1B8012F
:1006D0000E943902C7010197F1F70E94690483E182
:1006E000B8010E943902C7010197F1F70E9469041D
:1006F00080917C01882309F429CFC5010E94D00193
:1007000025CF2C989EBD0DB407FEFDCF8EBD0DB438
:1007100007FEFDCF2C9A08952C989EBD0DB407FEC0
:10072000FDCF3EB58EBD0DB407FEFDCF2EB5932F88
:1007300080E02C9A30E0282B392BC9010895789459
:100740001F920F920FB60F921124EF92FF920F9308
:100750001F932F933F934F935F936F937F938F9349
:100760009F93AF93BF93CF93DF93EF93FF93E9985A
:1007700000917D0182E0E82EC4E0D1E0FF24F394F3
:10078000ECBA2C981EBC0DB407FEFDCF2C9A0EB40B
:1007900007FE85C010917E01113029F1113020F043
:1007A000123009F071C055C0F092810180E090EBE9
:1007B0000E948C03082F0D5F0093800103508091ED
:1007C000820190E08C9FF0018D9FF00D9C9FF00DB9
:1007D0001124EC57FE4F8081882309F055C0F09218
:1007E0007E010183CDCF80E090EB0E948C03382FF7
:1007F00020918101809180012817C8F403278091FE
:10080000820190E08C9FF0018D9FF00D9C9FF00D78
:1008100011243196E20FF11DEC57FE4F3083223048
:1008200011F40F3F89F52F5F20938101A9CF20910B
:100830008201822F90E08C9FF0018D9FF00D9C9F94
:10084000F00D1124EC57FE4FE08221272093820106
:100850001BC02091810180918001281758F4E22F5C
:10086000F0E0E457FC4F808190E02F5F20938101FE
:10087000986B12C010927F0181E892E80E94810378
:100880008AEA98EB0E94810310927E0181E89AEC3B
:100890000E94810383E89AEC0E94810371CF009348
:1008A0007D01E99AFF91EF91DF91CF91BF91AF91D7
:1008B0009F918F917F916F915F914F913F912F9178
:1008C0001F910F91FF90EF900F900FBE0F901F9010
:1008D000189580917E01882301F580917F018130F8
:1008E000E1F4E99881E092E80E94810380918E030F
:1008F0008A5F809380011092810182E080937E0163
:100900008AEA98EB0E9481038AEA98EB0E948103AD
:1009100081E292E80E948103E99A0895982F8091DC
:100920007F01882311F083E0089560938E039093F4
:100930008F03692760956093900381E080937F0126
:1009400080E8089540918301242F30E084E091E015
:10095000289FF001299FF00D389FF00D1124EC57CE
:10096000FE4F108281E04827409383010895CF9382
:10097000DF932C9A249A259A279A2C9A249A2698BF
:1009800081E58CBD8DE280938C0384ED80938D0393
:100990001092820110928301CCE7D0E0FE01859194
:1009A00094910E948103229680E0C439D807B1F760
:1009B0008091690088608093690080E090E00E94E7
:1009C0008C0382E08CBB81E89AEC0E94810383E86F
:1009D0009AEC0E948103E99ADF91CF9108950F93D9
:1009E0001F93182F062F80917F01882311F083E039
:1009F0000CC021E933E0C901BA01412F50E00E9447
:100A00000805802F612F0E948E041F910F91089579
:100A1000FB01DC0102C001900D9241505040D8F71B
:100A20000895A0E0B0E0E7E1F5E00C94B307FE0123
:100A30003596619171918091930490919404AF01E6
:100A40000E9426052096E2E00C94CF07ABE0B0E0D0
:100A5000ECE2F5E00C94A3073C012B015A01FC01E8
:100A600017821682838181FD03C06FEF7FEFC6C1BD
:100A70009AE0892E1E010894211C311CF301238168
:100A8000F20123FD859123FF81912F01882309F431
:100A9000B2C1853239F423FD859123FF81912F0165
:100AA000853229F490E0B3010E941907E7CF982F0F
:100AB000FF24EE249924FFE1FF15D0F09B3269F06A
:100AC0009C3228F4903259F0933291F40EC09D324A
:100AD00049F0903369F441E024C052E0F52A84E003
:100AE000F82A28C098E0F92A25C0E0E1FE2A22C0B1
:100AF000F7FC29C0892F80538A3070F4F6FE05C0B8
:100B0000989C902C1124980E15C0E89CE02C112480
:100B1000E80EF0E2FF2A0EC09E3229F4F6FC6BC10B
:100B200040E4F42A07C09C3619F450E8F52A02C0C4
:100B3000983649F4F20123FD959123FF91912F01FD
:100B4000992309F0B8CF892F8554833018F080524B
:100B5000833038F444E050E0A40EB51E5FE35983BF
:100B60000FC0933631F0933779F0933509F056C0C2
:100B700020C0F5018081898342E050E0A40EB51EBB
:100B8000610101E010E012C0F501C080D180F6FCE7
:100B900003C06FEF7FEF02C0692D70E042E050E0CC
:100BA000A40EB51EC6010E940E078C015FE7F52258
:100BB00014C0F501C080D180F6FC03C06FEF7FEF59
:100BC00002C0692D70E042E050E0A40EB51EC601DF
:100BD0000E9403078C0150E8F52AF3FE07C01AC0F3
:100BE00080E290E0B3010E941907EA948E2D90E014
:100BF00008171907A8F30EC0F601F7FC8591F7FE58
:100C000081916F0190E0B3010E941907E110EA940D
:100C1000015010400115110579F7EAC0943611F022
:100C2000993669F5F7FE08C0F501208131814281CE
:100C3000538184E090E00AC0F501808191819C019C
:100C4000442737FD4095542F82E090E0A80EB91E4E
:100C50009FE6F92257FF09C05095409530952195A0
:100C60003F4F4F4F5F4FE0E8FE2ACA01B901A10193
:100C70002AE030E00E944507D82ED21840C09537B0
:100C800029F41F2D1F7E2AE030E01DC01F2D197F83
:100C90009F3661F0903720F4983509F0ACC00FC052
:100CA000903739F0983709F0A6C004C028E030E04A
:100CB0000AC0106114FD146020E130E004C014FD8E
:100CC000166020E132E017FF08C0F50160817181F4
:100CD0008281938144E050E008C0F50180819181D8
:100CE000BC0180E090E042E050E0A40EB51EA101FE
:100CF0000E944507D82ED2188FE7F82EF122F6FE73
:100D00000BC05EEFF522D91438F4F4FE07C0F2FCF4
:100D100005C08FEEF82202C01D2D01C0192DF4FE72
:100D20000DC0FE01ED0DF11D8081803319F499EEA7
:100D3000F92208C01F5FF2FE05C003C08F2D867820
:100D400009F01F5F0F2DF3FC14C0F0FE0FC01E153D
:100D500010F09D2C0BC09D2C9E0C911A1E2D06C0D0
:100D600080E290E0B3010E9419071F5F1E15C0F3D7
:100D700004C01E1510F4E11A01C0EE2404FF0FC0D8
:100D800080E390E0B3010E94190702FF1DC001FD3E
:100D900003C088E790E00EC088E590E00BC0802F8C
:100DA000867891F001FF02C08BE201C080E2F7FC7F
:100DB0008DE290E0B3010E94190706C080E390E045
:100DC000B3010E9419079A94D914C0F3DA94F1017F
:100DD000ED0DF11D808190E0B3010E941907DD2027
:100DE000A9F706C080E290E0B3010E941907EA94D7
:100DF000EE20C1F743CEF30166817781CB012B96BC
:100E0000E2E10C94BF07FC010590615070400110B5
:100E1000D8F7809590958E0F9F1F0895FC01615023
:100E2000704001900110D8F7809590958E0F9F1F0C
:100E300008950F931F93CF93DF938C01EB018B8168
:100E400081FF1BC082FF0DC02E813F818C819D815F
:100E50002817390764F4E881F9810193F983E8835D
:100E600006C0E885F985802F0995892B31F48E819C
:100E70009F8101969F838E8302C00FEF1FEFC801F1
:100E8000DF91CF911F910F910895FA01AA27283081
:100E900051F1203181F1E8946F936E7F6E5F7F4F47
:100EA0008F4F9F4FAF4FB1E03ED0B4E03CD0670FC3
:100EB000781F891F9A1FA11D680F791F8A1F911D16
:100EC000A11D6A0F711D811D911DA11D20D009F466
:100ED00068943F912AE0269F11243019305D3193A8
:100EE000DEF6CF010895462F4770405D4193B3E091
:100EF0000FD0C9F7F6CF462F4F70405D4A3318F038
:100F0000495D31FD4052419302D0A9F7EACFB4E0E8
:100F1000A6959795879577956795BA95C9F70097A0
:100F20006105710508959B01AC010A2E0694579541
:100F3000479537952795BA95C9F7620F731F841F98
:100F4000951FA01D08952F923F924F925F926F922E
:100F50007F928F929F92AF92BF92CF92DF92EF9249
:100F6000FF920F931F93CF93DF93CDB7DEB7CA1BCA
:100F7000DB0B0FB6F894DEBF0FBECDBF09942A88F5
:100F8000398848885F846E847D848C849B84AA849D
:100F9000B984C884DF80EE80FD800C811B81AA812A
:100FA000B981CE0FD11D0FB6F894DEBF0FBECDBFF5
:080FB000ED010895F894FFCF54
:100FB8000A50574D3D25337520203D3D3E202000E9
:100FC8007425647925647025647225640A000A0D05
:100FD800486F6F6B207570000A0D486F6F6B206447
:100FE8006F776E000A0D456E746572696E672066CC
:100FF8006C69676874206D6F6465000A0D456E74CE
:101008006572696E6720504944206D6F6465000001
:101018000000010000000000007D0000000000004A
:0C10280002000000006900000000000051
:00000001FF
