:100000000C944A000C94A1000C94B7020C94670065
:100010000C9467000C9467000C9467000C946700C4
:100020000C9467000C9467000C9467000C946700B4
:100030000C9467000C9467000C9467000C946700A4
:100040000C9467000C9467000C9467000C94670094
:100050000C9467000C9467000C9467000C94670084
:100060000C9467000C9467000C9467000C94670074
:100070000C9467000C9467000C946700D680018292
:10008000BCA502C62494ABC281CAF7C4709800C84C
:1000900000E0818211241FBECFEFD0E1DEBFCDBFD3
:1000A00011E0A0E0B1E0E8EEFDE002C005900D92A5
:1000B000AA32B107D9F714E0AAE2B1E001C01D925B
:1000C000A534B107E1F70E949D010C94F2060C944F
:1000D00000001F93182F8A3019F48DE00E946900E8
:1000E0008091C00085FFFCCF1093C600212F3327DD
:1000F00027FD3095C9011F9108958091C00087FFA9
:10010000FCCF8091C60090E008951092C5008CE06D
:100110008093C40088E18093C10086E08093C20090
:100120008CE191E0909342048093410490934404C5
:10013000809343048EE091E09093400480933F04C9
:1001400008951F920F920FB60F9211248F9381E0A2
:1001500080932A018F910F900FBE0F901F901895DA
:10016000FC018081918180509440A8F48281938128
:100170008050944080F4848195818050944058F45C
:1001800020E0868197818050944008F021E081E052
:100190002827822F089580E090E00895DC01FB017C
:1001A0009C9180E020813181280F391FC901937013
:1001B00091838083832F869586958C930895DC01A7
:1001C000FB01CA01937091838083852F8695869564
:1001D0008C930895DC01FB0140835C930895EAE76A
:1001E000F0E0808186688083089580937C00809110
:1001F0007A00806480937A0080917A0086FDFCCF3B
:100200004091790020917800942F80E030E0822B9B
:10021000932B90937900809378002091780030910F
:100220007900C9010895E1E8F0E08081856080836C
:1002300010928500109284000895DF93CF930F925F
:10024000CDB7DEB7382F330F330F20E0620F731FA7
:10025000698381E0672FAE014F5F5F4F0E94070403
:100260000F90CF91DF910895CF93DF93EC010E941F
:10027000B00020E031E0882311F18DB79EB70A97D6
:100280000FB6F8949EBF0FBE8DBFEDB7FEB7319687
:10029000ADB7BEB712963C932E9311978881998182
:1002A000938382838A819B81958384838C819D81C2
:1002B000978386838E819F819187808717C0ADB792
:1002C000BEB71A970FB6F894BEBF0FBEADBFEDB75D
:1002D000FEB7319612963C932E9311971382128299
:1002E0001582148217821682118610860E942904B4
:1002F0008DB79EB70A960FB6F8949EBF0FBE8DBFFE
:1003000010922A01DF91CF9108950F931F93CF93FD
:10031000DF938C01EC0109C000D0EDB7FEB701837B
:1003200012830E9429040F900F9089918823A1F7CE
:10033000DF91CF911F910F9108958F929F92AF926D
:10034000BF92CF92DF92EF92FF920F931F93DF93B2
:10035000CF93CDB7DEB728970FB6F894DEBF0FBEA8
:10036000CDBF8091810085608093810010928500CF
:100370001092840080917A00866880937A000E94AF
:10038000CF030E948500529A5A9880916900836039
:1003900080936900E89A7894E4E08E2EE1E09E2E46
:1003A00070E7C72E77E1D72E5E010894A11CB11C1F
:1003B0000E94810380913101282F30E0289DF001B7
:1003C000299DF00D389DF00D1124EE5CFE4F8081CB
:1003D000823009F03EC0F901EE0FFF1FC90196956A
:1003E000982F882797958795E80FF91FEE0FFF1F25
:1003F000EC5CFE4FF080F90196E0EE0FFF1F9A953E
:10040000E1F7E20FF31FEE0FFF1FEE0FFF1FEA5C95
:10041000FE4F008110E00E94BA03EE24C701800F56
:10042000911F9C01337096959695913051F09130C3
:1004300028F0923049F0933061F409C03A8329835F
:1004400008C038872F8305C03C832B8302C03E83BE
:100450002D8380E090E00E94F5008C018091840063
:10046000909185008C57954108F45AC08091840082
:10047000909185008157974108F052C010928500F5
:10048000109284008EE0B8010E941D01C601019700
:10049000F1F70E9481038EE0B8010E941D01C601A0
:1004A0000197F1F70E9481038FE067E170E00E94FD
:1004B0001D01C6010197F1F70E9481038FE067E1FA
:1004C00070E00E941D01C6010197F1F70E948103AF
:1004D00080E165E370E00E941D01C6010197F1F71C
:1004E0000E94810380E165E370E00E941D01C60166
:1004F0000197F1F70E94810381E163E470E00E94BB
:100500001D01C6010197F1F70E94810381E163E4B7
:1005100070E00E941D01C6010197F1F70E9481035E
:1005200080912A01882309F443CFC5010E94340138
:100530003FCF2C989EBD0DB407FEFDCF8EBD0DB4F0
:1005400007FEFDCF2C9A08952C989EBD0DB407FE92
:10055000FDCF3EB58EBD0DB407FEFDCF2EB5932F5A
:1005600080E02C9A30E0282B392BC901089578942B
:100570001F920F920FB60F921124EF92FF920F93DA
:100580001F932F933F934F935F936F937F938F931B
:100590009F93AF93BF93CF93DF93EF93FF93E9982C
:1005A00000912B0182E0E82EC4E0D1E0FF24F39417
:1005B000ECBA2C981EBC0DB407FEFDCF2C9A0EB4DD
:1005C00007FE85C010912C01113029F1113020F067
:1005D000123009F071C055C0F0922F0180E090EB0D
:1005E0000E94A402082F0D5F00932E0103508091FA
:1005F000300190E08C9FF0018D9FF00D9C9FF00DDD
:100600001124EE5CFE4F8081882309F055C0F092E2
:100610002C010183CDCF80E090EB0E94A402382F03
:1006200020912F0180912E012817C8F40327809173
:10063000300190E08C9FF0018D9FF00D9C9FF00D9C
:1006400011243196E20FF11DEE5CFE4F3083223013
:1006500011F40F3F89F52F5F20932F01A9CF20912F
:100660003001822F90E08C9FF0018D9FF00D9C9FB8
:10067000F00D1124EE5CFE4FE08221272093300123
:100680001BC020912F0180912E01281758F4E22FD2
:10069000F0E0E65CFC4F808190E02F5F20932F011B
:1006A000986B12C010922D0181E892E80E94990285
:1006B0008AEA98EB0E94990210922C0181E89AEC48
:1006C0000E94990283E89AEC0E94990271CF0093EC
:1006D0002B01E99AFF91EF91DF91CF91BF91AF91FB
:1006E0009F918F917F916F915F914F913F912F914A
:1006F0001F910F91FF90EF900F900FBE0F901F90E2
:10070000189580912C01882301F580912D0181306D
:10071000E1F4E99881E092E80E94990280913C031B
:100720008A5F80932E0110922F0182E080932C012A
:100730008AEA98EB0E9499028AEA98EB0E94990251
:1007400081E292E80E949902E99A0895982F809197
:100750002D01882311F083E0089560933C0390936A
:100760003D036927609560933E0381E080932D01EE
:1007700080E8089540913101242F30E084E091E039
:10078000289FF001299FF00D389FF00D1124EE5C99
:10079000FE4F108281E04827409331010895CF93A6
:1007A000DF932C9A249A259A279A2C9A249A269891
:1007B00081E58CBD8DE280933A0384ED80933B0309
:1007C0001092300110923101CCE7D0E0FE0185910A
:1007D00094910E949902229680E0C439D807B1F71B
:1007E0008091690088608093690080E090E00E94B9
:1007F000A40282E08CBB81E89AEC0E94990283E813
:100800009AEC0E949902E99ADF91CF9108950F9393
:100810001F93182F062F80912D01882311F083E05C
:100820000CC02FE333E0C901BA01412F50E00E9410
:100830002004802F612F0E94A6031F910F9108951D
:10084000FB01DC0102C001900D9241505040D8F7ED
:100850000895A0E0B0E0EFE2F4E00C94CB06FE01D6
:100860003596619171918091410490914204AF015C
:100870000E943E042096E2E00C94E706ABE0B0E074
:10088000E4E4F4E00C94BB063C012B015A01FC01AA
:1008900017821682838181FD03C06FEF7FEFC6C18F
:1008A0009AE0892E1E010894211C311CF30123813A
:1008B000F20123FD859123FF81912F01882309F403
:1008C000B2C1853239F423FD859123FF81912F0137
:1008D000853229F490E0B3010E943106E7CF982FCA
:1008E000FF24EE249924FFE1FF15D0F09B3269F03C
:1008F0009C3228F4903259F0933291F40EC09D321C
:1009000049F0903369F441E024C052E0F52A84E0D4
:10091000F82A28C098E0F92A25C0E0E1FE2A22C082
:10092000F7FC29C0892F80538A3070F4F6FE05C089
:10093000989C902C1124980E15C0E89CE02C112452
:10094000E80EF0E2FF2A0EC09E3229F4F6FC6BC1DD
:1009500040E4F42A07C09C3619F450E8F52A02C096
:10096000983649F4F20123FD959123FF91912F01CF
:10097000992309F0B8CF892F8554833018F080521D
:10098000833038F444E050E0A40EB51E5FE3598391
:100990000FC0933631F0933779F0933509F056C094
:1009A00020C0F5018081898342E050E0A40EB51E8D
:1009B000610101E010E012C0F501C080D180F6FCB9
:1009C00003C06FEF7FEF02C0692D70E042E050E09E
:1009D000A40EB51EC6010E9426068C015FE7F52213
:1009E00014C0F501C080D180F6FC03C06FEF7FEF2B
:1009F00002C0692D70E042E050E0A40EB51EC601B1
:100A00000E941B068C0150E8F52AF3FE07C01AC0AD
:100A100080E290E0B3010E943106EA948E2D90E0CE
:100A200008171907A8F30EC0F601F7FC8591F7FE29
:100A300081916F0190E0B3010E943106E110EA94C8
:100A4000015010400115110579F7EAC0943611F0F4
:100A5000993669F5F7FE08C0F501208131814281A0
:100A6000538184E090E00AC0F501808191819C016E
:100A7000442737FD4095542F82E090E0A80EB91E20
:100A80009FE6F92257FF09C0509540953095219572
:100A90003F4F4F4F5F4FE0E8FE2ACA01B901A10165
:100AA0002AE030E00E945D06D82ED21840C095376B
:100AB00029F41F2D1F7E2AE030E01DC01F2D197F55
:100AC0009F3661F0903720F4983509F0ACC00FC024
:100AD000903739F0983709F0A6C004C028E030E01C
:100AE0000AC0106114FD146020E130E004C014FD60
:100AF000166020E132E017FF08C0F50160817181C6
:100B00008281938144E050E008C0F50180819181A9
:100B1000BC0180E090E042E050E0A40EB51EA101CF
:100B20000E945D06D82ED2188FE7F82EF122F6FE2D
:100B30000BC05EEFF522D91438F4F4FE07C0F2FCC6
:100B400005C08FEEF82202C01D2D01C0192DF4FE44
:100B50000DC0FE01ED0DF11D8081803319F499EE79
:100B6000F92208C01F5FF2FE05C003C08F2D8678F2
:100B700009F01F5F0F2DF3FC14C0F0FE0FC01E150F
:100B800010F09D2C0BC09D2C9E0C911A1E2D06C0A2
:100B900080E290E0B3010E9431061F5F1E15C0F392
:100BA00004C01E1510F4E11A01C0EE2404FF0FC0AA
:100BB00080E390E0B3010E94310602FF1DC001FDF9
:100BC00003C088E790E00EC088E590E00BC0802F5E
:100BD000867891F001FF02C08BE201C080E2F7FC51
:100BE0008DE290E0B3010E94310606C080E390E000
:100BF000B3010E9431069A94D914C0F3DA94F1013A
:100C0000ED0DF11D808190E0B3010E943106DD20E1
:100C1000A9F706C080E290E0B3010E943106EA9491
:100C2000EE20C1F743CEF30166817781CB012B968D
:100C3000E2E10C94D706FC01059061507040011070
:100C4000D8F7809590958E0F9F1F0895FC016150F5
:100C5000704001900110D8F7809590958E0F9F1FDE
:100C600008950F931F93CF93DF938C01EB018B813A
:100C700081FF1BC082FF0DC02E813F818C819D8131
:100C80002817390764F4E881F9810193F983E8832F
:100C900006C0E885F985802F0995892B31F48E816E
:100CA0009F8101969F838E8302C00FEF1FEFC801C3
:100CB000DF91CF911F910F910895FA01AA27283053
:100CC00051F1203181F1E8946F936E7F6E5F7F4F19
:100CD0008F4F9F4FAF4FB1E03ED0B4E03CD0670F95
:100CE000781F891F9A1FA11D680F791F8A1F911DE8
:100CF000A11D6A0F711D811D911DA11D20D009F438
:100D000068943F912AE0269F11243019305D319379
:100D1000DEF6CF010895462F4770405D4193B3E062
:100D20000FD0C9F7F6CF462F4F70405D4A3318F009
:100D3000495D31FD4052419302D0A9F7EACFB4E0BA
:100D4000A6959795879577956795BA95C9F7009772
:100D50006105710508959B01AC010A2E0694579513
:100D6000479537952795BA95C9F7620F731F841F6A
:100D7000951FA01D08952F923F924F925F926F9200
:100D80007F928F929F92AF92BF92CF92DF92EF921B
:100D9000FF920F931F93CF93DF93CDB7DEB7CA1B9C
:100DA000DB0B0FB6F894DEBF0FBECDBF09942A88C7
:100DB000398848885F846E847D848C849B84AA846F
:100DC000B984C884DF80EE80FD800C811B81AA81FC
:100DD000B981CE0FD11D0FB6F894DEBF0FBECDBFC7
:080DE000ED010895F894FFCF26
:100DE8007425647925647025647225640A000000FE
:100DF80000010000000000007D000000000000026B
:0A0E08000000000069000000000077
:00000001FF
