:100000000C94CB000C94E8000C94BF030C94E80013
:100010000C94E8000C94E8000C94E8000C94E800C0
:100020000C94E8000C94E8000C94E8000C94E800B0
:100030000C94E8000C94E8000C94E8000C94E800A0
:100040000C94E8000C94E8000C94E8000C94E80090
:100050000C94E8000C94E8000C94E8000C94E80080
:100060000C94E8000C94E8000C94E8000C94E80070
:100070000C94E8000C94E8000C94E800D68001820F
:10008000BCA502C62494ABC281CAF7C4709800C84C
:1000900000E081826E616E00696E660000407A1039
:1000A000F35A00A0724E18090010A5D4E80000E829
:1000B0007648170000E40B54020000CA9A3B000087
:1000C00000E1F505000080969800000040420F0016
:1000D0000000A08601000000102700000000E803D7
:1000E000000000006400000000000A0000000000A2
:1000F0000100000000002C76D888DC674F0823DF61
:10010000C1DFAE59E1B1B796E5E3E453C63AE65133
:10011000997696E8E6C28426EB898C9B62ED407C5A
:100120006FFCEFBC9C9F40F2BAA56FA5F490055AF6
:100130002AF75C936B6CF9676DC11BFCE0E40D471B
:10014000FEF520E6B500D0ED902E0300943577053E
:100150000080841E080000204E0A000000C80C33F6
:100160003333330F986E12831141EF8D2114893B85
:10017000E65516CFFEE6DB18D1844B381BF77C1D05
:10018000901DA4BBE424203284725E228100C9F158
:1001900024ECA1E53D2711241FBECFEFD0E1DEBF47
:1001A000CDBF12E0A0E0B1E0E6E0F7E102C00590CB
:1001B0000D92AA37B107D9F715E0AAE7B2E001C05E
:1001C0001D92AE38B107E1F70E94EA000C94810B52
:1001D0000C9400002F923F924F925F926F927F9209
:1001E0008F929F92BF92CF92DF92EF92FF920F93E6
:1001F0001F93DF93CF93CDB7DEB7A1970FB6F894D7
:10020000DEBF0FBECDBF0E9469030E94D704789461
:1002100080E091E00E947D03BB24B394CC24DD24D4
:10022000B4E0EB2EF12CEC0EFD1EA6EC4A2EA1E064
:100230005A2EFDED2F2EF1E03F2EE2E26E2EE1E090
:100240007E2E70E7872E77E1972E02C0BB24B394F1
:100250000E9489048091800290E024E031E0829F36
:10026000F001839FF00D929FF00D1124EF57FD4F89
:100270008081823009F0EBC10894C11CD11C00D0F0
:1002800000D000D0EDB7FEB73196ADB7BEB712962D
:10029000FC92EE9211972CE031E033832283D582D9
:1002A000C4820E94FF0A8DB79EB706960FB6F894D7
:1002B0009EBF0FBE8DBFC7010E947D0320918002AB
:1002C00030E0F901EE0FFF1FC9019695982F88279E
:1002D00097958795E80FF91FEE0FFF1FED57FD4F1C
:1002E00080818983F90196E0EE0FFF1F9A95E1F76F
:1002F000E20FF31FEE0FFF1FEE0FFF1FEB57FD4F37
:1003000080818A831B820E94C204CE010196BE01B5
:100310006E5F7F4F0E94480389818230D9F183301C
:1003200030F4882359F0813009F084C016C083303E
:1003300009F44FC0843009F07DC05AC000D000D00D
:1003400000D0EDB7FEB73196ADB7BEB71296FC92AE
:10035000EE92119723E131E02BC000D000D000D005
:10036000EDB7FEB73196ADB7BEB71296FC92EE92DE
:100370001197738262828A819B81958384830E9414
:10038000FF0AEDB7FEB736960FB6F894FEBF0FBE64
:10039000EDBF50C000D000D000D0EDB7FEB7319611
:1003A000ADB7BEB71296FC92EE9211972DE231E0F6
:1003B000338322838A819B81958384830E94FF0AF1
:1003C0008DB79EB706960FB6F8949EBF0FBE8DBF31
:1003D00031C000D000D000D0EDB7FEB73196ADB738
:1003E000BEB71296FC92EE92119727E331E0E0CF70
:1003F0008A819B818130910561F08130910530F0D7
:100400008230910581F00397A9F408C083E491E05C
:1004100002C085E591E00E947D030CC089E691E071
:100420000E947D030AC082E891E00E947D03BB2404
:10043000B39405C091E0B91611F0BB2408C18981BD
:10044000893009F474C08A3070F4863061F18730E5
:1004500020F4853009F0FBC013C08730D1F188301B
:1004600009F0F5C04DC08B3009F48DC08B3008F415
:1004700074C08C3009F49DC08D3009F0E8C0AFC065
:10048000ADB7BEB718970FB6F894BEBF0FBEADBFDD
:100490000DB71EB70F5F1F4F1296FC92EE92119789
:1004A00028E931E0B1C02DB73EB7285030400FB633
:1004B000F8943EBF0FBE2DBF0DB71EB70F5F1F4F85
:1004C000ADB7BEB71296FC92EE9211972FEA31E0CB
:1004D0009BC02DB73EB7285030400FB6F8943EBFB2
:1004E0000FBE2DBF0DB71EB70F5F1F4FADB7BEB705
:1004F0001296FC92EE921197F8015382428287C0C5
:100500002DB73EB7285030400FB6F8943EBF0FBE0F
:100510002DBF0DB71EB70F5F1F4FADB7BEB71296F9
:10052000FC92EE921197F8013382228270C02DB7AF
:100530003EB7285030400FB6F8943EBF0FBE2DBFD7
:100540000DB71EB70F5F1F4FADB7BEB71296FC9227
:10055000EE92119723EF31E057C02DB73EB72850E8
:1005600030400FB6F8943EBF0FBE2DBF0DB71EB77B
:100570000F5F1F4FADB7BEB71296FC92EE92119768
:1005800029E032E041C02DB73EB7285030400FB6C9
:10059000F8943EBF0FBE2DBF0DB71EB70F5F1F4FA4
:1005A000ADB7BEB71296FC92EE9211972FE132E0F2
:1005B0002BC02DB73EB7285030400FB6F8943EBF41
:1005C0000FBE2DBF0DB71EB70F5F1F4FADB7BEB724
:1005D0001296FC92EE92119727E332E015C02DB7E8
:1005E0003EB7285030400FB6F8943EBF0FBE2DBF27
:1005F0000DB71EB70F5F1F4FADB7BEB71296FC9277
:10060000EE9211972FE432E0F801338322836A815E
:100610007B8180E090E00E94900520E030E048EC93
:1006200052E40E942805D80114966D937D938D9312
:100630009C9317970E94FF0AEDB7FEB738960FB646
:10064000F894FEBF0FBEEDBFC7010E947D03F6E91F
:10065000CF16D10408F4FCCDBB2009F0F7CD87E616
:1006600092E00E947D036A817B8180E00E948A0380
:10067000C4010197F1F76A817B8180E00E948A03BF
:10068000C4010197F1F70E948904CC24DD24E0CD58
:10069000DC01FB019C9180E020813181280F391F12
:1006A000C901937091838083832F869586958C935F
:1006B0000895DC01FB01CA01937091838083852F2B
:1006C000869586958C930895DC01FB0140835C93AD
:1006D00008951092C5008CE08093C40086E080935A
:1006E000C20088E18093C1000895982F8091C000D6
:1006F00085FFFCCF9093C6000895FC0107C0809150
:10070000C00085FFFCCF9093C6003196908199235D
:10071000B1F70895DF93CF930F92CDB7DEB7382F9F
:10072000330F330F20E0620F731F698381E0672F5F
:10073000AE014F5F5F4F0E940F050F90CF91DF9189
:1007400008952C989EBD0DB407FEFDCF8EBD0DB44F
:1007500007FEFDCF2C9A08952C989EBD0DB407FE80
:10076000FDCF3EB58EBD0DB407FEFDCF2EB5932F48
:1007700080E02C9A30E0282B392BC9010895789419
:100780001F920F920FB60F921124EF92FF920F93C8
:100790001F932F933F934F935F936F937F938F9309
:1007A0009F93AF93BF93CF93DF93EF93FF93E9981A
:1007B00000917A0282E0E82EC4E0D1E0FF24F394B5
:1007C000ECBA2C981EBC0DB407FEFDCF2C9A0EB4CB
:1007D00007FE85C010917B02113029F1113020F005
:1007E000123009F071C055C0F0927E0280E090EBAB
:1007F0000E94AC03082F0D5F00937D02035080918F
:100800007F0290E08C9FF0018D9FF00D9C9FF00D7A
:100810001124EF57FD4F8081882309F055C0F092D5
:100820007B020183CDCF80E090EB0E94AC03382F98
:1008300020917E0280917D022817C8F403278091C1
:100840007F0290E08C9FF0018D9FF00D9C9FF00D3A
:1008500011243196E20FF11DEF57FD4F3083223006
:1008600011F40F3F89F52F5F20937E02A9CF2091CD
:100870007F02822F90E08C9FF0018D9FF00D9C9F56
:10088000F00D1124EF57FD4FE082212720937F02C6
:100890001BC020917E0280917D02281758F4E22F20
:1008A000F0E0E757FB4F808190E02F5F20937E02BE
:1008B000986B12C010927C0281E892E80E94A1031A
:1008C0008AEA98EB0E94A10310927B0281E89AECDD
:1008D0000E94A10383E89AEC0E94A10371CF0093C8
:1008E0007A02E99AFF91EF91DF91CF91BF91AF9199
:1008F0009F918F917F916F915F914F913F912F9138
:100900001F910F91FF90EF900F900FBE0F901F90CF
:10091000189580917B02882301F580917C028130BB
:10092000E1F4E99881E092E80E94A10380918B04B0
:100930008A5F80937D0210927E0282E080937B0228
:100940008AEA98EB0E94A1038AEA98EB0E94A1032D
:1009500081E292E80E94A103E99A0895982F80917C
:100960007C02882311F083E0089560938B049093B8
:100970008C046927609560938D0481E080937C02EC
:1009800080E8089540918002242F30E084E091E0D7
:10099000289FF001299FF00D389FF00D1124EF578B
:1009A000FD4F108281E04827409380020895CF9345
:1009B000DF932C9A249A259A279A2C9A249A26987F
:1009C00081E58CBD8DE28093890484ED80938A0457
:1009D00010927F0210928002CCE7D0E0FE01859158
:1009E00094910E94A103229680E0C439D807B1F700
:1009F0008091690088608093690080E090E00E94A7
:100A0000AC0382E08CBB81E89AEC0E94A10383E8EE
:100A10009AEC0E94A103E99ADF91CF9108950F9378
:100A20001F93182F062F80917C02882311F083E0FA
:100A30000CC02EE834E0C901BA01412F50E00E94F9
:100A4000BF0A802F612F0E94AE041F910F9108955D
:100A50000CD0BAC0B2D040F0A9D030F021F45F3F42
:100A600019F09BC05111E4C09EC0BFD098F39923E8
:100A7000C9F35523B1F3951B550BBB27AA27621762
:100A80007307840738F09F5F5F4F220F331F441FA7
:100A9000AA1FA9F333D00E2E3AF0E0E830D09150DF
:100AA0005040E695001CCAF729D0FE2F27D0660FCC
:100AB000771F881FBB1F261737074807AB07B0E80B
:100AC00009F0BB0B802DBF01FF2793585F4F2AF021
:100AD0009E3F510568F061C0ABC05F3FECF3983EAC
:100AE000DCF3869577956795B795F7959F5FC9F77E
:100AF000880F911D9695879597F90895E1E0660F07
:100B0000771F881FBB1F621773078407BA0720F07F
:100B1000621B730B840BBA0BEE1F88F7E0950895E8
:100B2000E89409C097FB3EF4909580957095619587
:100B30007F4F8F4F9F4F9923A9F0F92F96E9BB273D
:100B40009395F695879577956795B795F111F8CFB9
:100B5000FAF4BB0F11F460FF1BC06F5F7F4F8F4F24
:100B60009F4F16C0882311F096E911C0772321F01A
:100B70009EE8872F762F05C0662371F096E8862FB2
:100B800070E060E02AF09A95660F771F881FDAF709
:100B9000880F9695879597F9089597F99F6780E84C
:100BA00070E060E008959FEF80EC089500240A94BF
:100BB0001616170618060906089500240A94121638
:100BC0001306140605060895092E0394000C11F46B
:100BD000882352F0BB0F40F4BF2B11F460FF04C018
:100BE0006F5F7F4F8F4F9F4F089557FD9058440F71
:100BF000551F59F05F3F71F04795880F97FB991F7C
:100C000061F09F3F79F08795089512161306140638
:100C1000551FF2CF4695F1DF08C0161617061806C5
:100C2000991FF1CF86957105610508940895E894A0
:100C3000BB2766277727CB0197F90895A1E1B0E09C
:100C4000E4E2F6E00C94A5093C017F876E876A0117
:100C5000FC0117821682838181FD03C06FEF7FEF55
:100C60006FC39E012F5F3F4F398B288BF301238188
:100C7000EE85FF8523FD859123FF8191FF87EE8718
:100C8000882309F45AC3853251F4EE85FF8523FD8C
:100C9000859123FF8191FF87EE87853229F490E0CB
:100CA000B3010E94D30AE2CF982F10E08824992440
:100CB0001032B0F49B3269F09C3228F4903251F03B
:100CC000933271F40BC09D3239F0903349F41160C6
:100CD00028C01260146025C0186023C0106121C0B4
:100CE00017FD2AC0892F80538A3078F416FF06C07A
:100CF000FAE09F9E902C1124980E13C03AE0839E38
:100D0000802C1124880E10620CC09E3221F416FD36
:100D100014C3106406C09C3611F4106802C09836E3
:100D200059F4EE85FF8523FD959123FF9191FF876F
:100D3000EE87992309F0BCCF892F8554833020F4A6
:100D4000812F8061905E07C0892F8556833008F01F
:100D50009FC1812F8F7E86FD02C076E0972E6FE3C4
:100D6000F62EF822953619F4F0E4FF2A07C09636DD
:100D700019F420E8F22A02C091109A94F7FE0AC0F2
:100D80003BE3391518F45CE3B52E02C0B92CB394DB
:100D900027E009C047E0491520F4BB2447E0942E22
:100DA000F7CF292DBB24C60104969D878C87F601B9
:100DB0006081718182819381AE014F5F5F4F0B2D06
:100DC0000E94DC096C010981202E332400FF04C03D
:100DD00003FD02C01DE209C0F1FE02C01BE205C016
:100DE000F2FC02C010E001C010E2C1018C709070F2
:100DF000892BB9F1112311F483E001C084E0881537
:100E000010F088240AC0881AF3FC07C080E290E042
:100E1000B3010E94D30A8A94C9F7112329F0812FC4
:100E200090E0B3010E94D30A23FE03C004E910E05E
:100E30000EC008E910E00BC0E114F10409F0805283
:100E400090E0B3010E94D30A0F5F1F4F05C0EF2C43
:100E5000FF24F0E1EF22FF24F8018491882361F759
:100E600014C1F7FE12C0BC0C24FE04C08A81813379
:100E700009F4BA941B141CF0BB24B3942DC0F8E001
:100E8000FB1550F538E0B32E27C0F6FC25C0892DA0
:100E900090E08C159D054CF02CEFC2162FEFD2067A
:100EA00024F030E8F32A01C09A94992049F0E2E056
:100EB000F0E0EC0FFD1FE90DF11D80818033A1F3FF
:100EC000F7FE0AC0B92CB394892D90E0C816D90654
:100ED00014F0992401C09C18F7FC03C025E030E011
:100EE00009C01C141D041CF021E030E003C0960171
:100EF0002F5F3F4F112311F02F5F3F4F992029F0B3
:100F0000892D90E00196280F391F882D90E0281731
:100F1000390714F0882401C0821A4F2C5524C201CD
:100F200089709070892B39F008C080E290E0B3019D
:100F30000E94D30A8A948820C1F7112329F0812FB7
:100F400090E0B3010E94D30A43FE07C008C080E3CB
:100F500090E0B3010E94D30A8A948820C1F7F7FE7B
:100F600046C08601D7FE02C000E010E0760108947A
:100F7000E11CF11CE01AF10A41E050E04C0F5D1F4A
:100F8000E40EF51E26014B185108892D90E0AA2485
:100F9000BB24A81AB90A5FEF0F3F150729F48EE2A8
:100FA00090E0B3010E94D30AC016D10634F0401677
:100FB00051061CF4F701808101C080E3015010400C
:100FC0000894E11CF11C0A151B052CF090E0B301FC
:100FD0000E94D30AE0CF0C151D0539F49A8196338F
:100FE00018F4953311F424FE81E390E04BC08A811C
:100FF000813309F00F7E90E0B3010E94D30A99205B
:10100000A1F08EE290E0B3010E94D30A12E0E1E089
:10101000F0E0EC0FFD1FE10FF11D1F5F808190E0FC
:10102000B3010E94D30A9A9491F744FC03C085E669
:1010300090E002C085E490E0B3010E94D30AD7FC9F
:1010400005C0C114D10441F404FF06C0D094C1947A
:10105000D108D3948DE201C08BE290E0B3010E94ED
:10106000D30A80E305C08F5F26EF3FEFC20ED31E89
:101070003AE0C316D104BCF790E0B3010E94D30A52
:10108000C601C096B3010E94D30ACC84DD8452C14C
:10109000933631F0933799F0933509F059C023C056
:1010A000F601808189835E010894A11CB11C22E0B5
:1010B00030E0C20ED31E21E0E22EF12C12C0F60168
:1010C000A080B18016FD03C06FEF7FEF02C0692DD5
:1010D00070E022E030E0C20ED31EC5010E94C80AB3
:1010E0007C011F7713C0F601A080B18016FD03C0FC
:1010F0006FEF7FEF02C0692D70E022E030E0C20E9A
:10110000D31EC5010E94B40A7C01106813FF07C0FA
:101110001BC080E290E0B3010E94D30A8A94882D1C
:1011200090E0E816F906A8F30FC0F50117FD8591C8
:1011300017FF81915F0190E0B3010E94D30A8110F3
:101140008A940894E108F108E114F10471F7F2C0FF
:10115000943611F0993689F517FF08C0F601208101
:1011600031814281538184E090E00AC0F6018081A0
:1011700091819C01442737FD4095542F82E090E0F7
:10118000C80ED91E9FE6F92EF12257FF09C05095CF
:101190004095309521953F4F4F4F5F4F90E8F92A8A
:1011A000CA01B901AE014F5F5F4F2AE030E00E94F3
:1011B000230BE82EE889EE1A41C0953721F41F7EF3
:1011C0002AE030E01CC0197F9F3661F0903720F490
:1011D000983509F0B2C00FC0903739F0983709F050
:1011E000ACC004C028E030E00AC0106114FD1460F7
:1011F00020E130E004C014FD166020E132E017FF6A
:1012000008C0F601608171818281938144E050E0E1
:1012100008C0F60180819181BC0180E090E042E04D
:1012200050E0C40ED51EAE014F5F5F4F0E94230BEE
:10123000E82E5889E51A8FE7F82EF122F6FE0BC04A
:101240008EEFF822E91438F4F4FE07C0F2FC05C072
:101250009FEEF92202C01E2D01C0192DF4FE0DC013
:10126000FE01EE0DF11D8081803319F4E9EEFE22BE
:1012700008C01F5FF2FE05C003C08F2D867809F0FD
:101280001F5F0F2DF3FC14C0F0FE0FC0181510F0F7
:101290009E2C0BC09E2C980C911A182D06C080E233
:1012A00090E0B3010E94D30A1F5F1815C0F304C079
:1012B000181510F4811A01C0882404FF0FC080E3C0
:1012C00090E0B3010E94D30A02FF1DC001FD03C0DC
:1012D00088E790E00EC088E590E00BC0802F86780C
:1012E00091F001FF02C08BE201C080E2F7FC8DE2C9
:1012F00090E0B3010E94D30A06C080E390E0B301FE
:101300000E94D30A9A94E914C0F3EA94E1E0F0E071
:10131000EC0FFD1FEE0DF11D808190E0B3010E94E6
:10132000D30AEE2091F706C080E290E0B3010E945C
:10133000D30A8A948820C1F799CCF301668177811A
:10134000CB016196E2E10C94C1092F923F924F923A
:101350005F926F927F928F929F92AF92BF92CF9245
:10136000DF92EF92FF920F931F93CF93DF93CDB74E
:10137000DEB7CA1BDB0B0FB6F894DEBF0FBECDBFC6
:1013800009942A88398848885F846E847D848C8497
:101390009B84AA84B984C884DF80EE80FD800C81A0
:1013A0001B81AA81B981CE0FD11D0FB6F894DEBF83
:1013B0000FBECDBFED010895283008F027E0332798
:1013C000DA01990F311D87FD916000966105710565
:1013D00039F432602E5F3D9330E32A95E1F70895AA
:1013E0009F3F30F080387105610509F03C5F3C5F3C
:1013F0003D93913008F08068911DDF93CF931F9348
:101400000F93FF92EF92192F987F9695E92F96955B
:101410009695E90FFF27EA50FF4F99273327EE24CF
:10142000FF24A701E70105900894079428F4360FDC
:10143000E71EF81E491F511D660F771F881F991F51
:101440000694A1F70590079428F4E70EF81E491FAB
:10145000561FC11D770F881F991F661F0694A1F79D
:101460000590079428F4F80E491F561FC71FD11D79
:10147000880F991F661F771F0694A1F705900794A0
:1014800020F4490F561FC71FD81F990F661F771FDB
:10149000881F0694A9F784911095177041F0D6958E
:1014A000C79557954795F794E7941A95C1F7ECE9D6
:1014B000F0E068941590159135916591959105909E
:1014C0007FE27395E118F10A430B560BC90BD00963
:1014D000C0F7E10CF11E431F561FC91FD01D7EF43B
:1014E000703311F48A95E6CFE894015030F0080F7C
:1014F0000AF40027021708F4202F2395022F7A33CD
:1015000028F079E37D932A95E9F710C07D932A9519
:1015100089F6069497956795379517951794E1186E
:10152000F10A430B560BC90BD00998F023957E9115
:1015300073957A3308F070E37C932013B8F77E91AB
:1015400070617D9330F0839571E37D9370E32A950C
:10155000E1F71124EF90FF900F911F91CF91DF9150
:10156000992787FD90950895FC0105906150704082
:101570000110D8F7809590958E0F9F1F0895FB015D
:10158000DC0102C001900D9241505040D8F70895FF
:10159000FC016150704001900110D8F78095909542
:1015A0008E0F9F1F08950F931F93CF93DF938C018E
:1015B000EB018B8181FF1BC082FF0DC02E813F811B
:1015C0008C819D812817390764F4E881F9810193A2
:1015D000F983E88306C0E885F985802F0995892B72
:1015E00031F48E819F8101969F838E8302C00FEF1D
:1015F0001FEFC801DF91CF911F910F910895AEE0C9
:10160000B0E0E5E0FBE00C94B3090D891E8986E0AB
:101610008C831A8309838FEF9FE79E838D839E01BE
:10162000275E3F4FCE0101966F89788DA9010E94F8
:101630001E062F813885020F131FF80110822E9687
:10164000E4E00C94CF09FA01AA27283051F12031A7
:1016500081F1E8946F936E7F6E5F7F4F8F4F9F4F46
:10166000AF4FB1E03ED0B4E03CD0670F781F891F88
:101670009A1FA11D680F791F8A1F911DA11D6A0F56
:10168000711D811D911DA11D20D009F468943F9109
:101690002AE0269F11243019305D3193DEF6CF0108
:1016A0000895462F4770405D4193B3E00FD0C9F7CE
:1016B000F6CF462F4F70405D4A3318F0495D31FD3B
:1016C0004052419302D0A9F7EACFB4E0A69597958E
:1016D000879577956795BA95C9F700976105710564
:1016E00008959B01AC010A2E0694579547953795AE
:1016F0002795BA95C9F7620F731F841F951FA01D08
:061700000895F894FFCFEC
:10170600496E697469616C697365640069203D207E
:101716002575000A0D20546872757374203D2025C6
:10172600750020526F6C6C203D2025750020596194
:1017360077203D20257500205069746368203D2080
:101746002575000A0D436172676F20686F6F6B2005
:1017560075700A0D000A0D436172676F20686F6F1E
:101766006B20646F776E0A0D000A0D456E74657204
:10177600696E6720666C69676874206D6F64650AB8
:101786000D000A0D456E746572696E6720504944F6
:10179600206D6F64650A0D000A0D526F6C6C204B4C
:1017A600702076616C7565203D20252E3366000A13
:1017B6000D526F6C6C204B692076616C7565203D0F
:1017C60020252E3366000A0D526F6C6C204B642068
:1017D60076616C7565203D20252E3366000A0D590D
:1017E6006177204B702076616C7565203D20252E33
:1017F6003366000A0D596177204B692076616C7556
:1018060065203D20252E3366000A0D596177204B51
:10181600642076616C7565203D20252E3366000AAE
:101826000D5069746368204B702076616C75652075
:101836003D20252E3366000A0D5069746368204BDF
:10184600692076616C7565203D20252E3366000A79
:101856000D5069746368204B642076616C75652051
:101866003D20252E33660053656E64696E672074CD
:0A187600656C656D65747279000001
:00000001FF
