:100000000C948B000C94A8000C9499020C94A800FA
:100010000C94A8000C94A8000C94A8000C94A800C0
:100020000C94A8000C94A8000C94A8000C94A800B0
:100030000C94A8000C94A8000C94A8000C94A800A0
:100040000C94A8000C94A8000C94A8000C94A80090
:100050000C94A8000C94A8000C94A8000C94A80080
:100060000C94A8000C94A8000C94A8000C94A80070
:100070000C94A8000C94A8000C94A80007634236C6
:10008000B79BD8A71A39685618AEBAAB558C1D3C29
:10009000B7CC5763BD6DEDFD753EF6177231BF00ED
:1000A0000000803F08000000BE922449123EABAA27
:1000B000AA2ABECDCCCC4C3E00000080BEABAAAA82
:1000C000AA3E00000000BF000000803F00000000CA
:1000D00000084178D3BB4387D1133D190E3CC3BD03
:1000E0004282AD2B3E68EC8276BED98FE1A93E4CB0
:1000F00080EFFFBE01C4FF7F3F0000000000D680FC
:100100000182BCA502C62494ABC281CAF7C4709810
:1001100000C800E0818211241FBECFEFD0E1DEBF16
:10012000CDBF11E0A0E0B1E0E8E6F4E102C0059047
:100130000D92AC33B107D9F714E0ACE3B1E001C0E4
:100140001D92A135B107E1F70E94AA000C94320A72
:100150000C9400002F923F924F925F926F927F9289
:100160008F929F92AF92BF92CF92DF92EF92FF92C7
:100170000F931F93DF93CF93CDB7DEB7A1970FB641
:10018000F894DEBF0FBECDBF0E94E7010E94B1030D
:10019000789480E091E00E94FB01B2E02B2E312C9C
:1001A0002C0E3D1E2E010894411C511C8E010C5F2B
:1001B0001F4FABE16A2EA1E07A2EFCE08F2EF1E01A
:1001C0009F2EE6E2AE2EE1E0BE2E70E3C72E71E078
:1001D000D72EEE24FF240E94630380914301282F31
:1001E00030E084E091E0289FF001299FF00D389FD6
:1001F000F00D1124EC5BFE4F8081823009F082C04B
:100200000894E11CF11CF901EE0FFF1FC90196953E
:10021000982F882797958795E80FF91FEE0FFF1FF6
:10022000EA5BFE4F80818983F90196E0EE0FFF1FA4
:100230009A95E1F7E20FF31FEE0FFF1FEE0FFF1F7E
:10024000E85BFE4F80818A831B820E949C03C2016F
:10025000B1010E94C30189818130B9F0813030F051
:10026000823011F1833009F04DC02DC000D000D094
:1002700000D0EDB7FEB73196ADB7BEB712961C935E
:100280000E931197938282822CC000D000D000D0B0
:10029000EDB7FEB73196ADB7BEB712961C930E936D
:1002A0001197738262821DC000D000D000D0EDB7DC
:1002B000FEB73196ADB7BEB712961C930E93119749
:1002C000B382A2820EC000D000D000D0EDB7FEB73E
:1002D0003196ADB7BEB712961C930E931197D38289
:1002E000C2828A819B81958384830E945A078DB73D
:1002F0009EB706960FB6F8949EBF0FBE8DBFC8017D
:100300000E94FB0196E9E916F10408F464CF6A81C2
:100310007B8187E00E9461020E9463036A817B8186
:1003200087E00E9461020E9463036A817B8187E00B
:100330000E9461020E9463034CCFDC01FB01CA01F1
:10034000937091838083852F869586958C930895ED
:100350009C013F71492F42954695477050E08DE0D2
:1003600090E0841B950BB90102C0769567958A953C
:10037000E2F702C0220F331F4A95E2F73F71260FC2
:10038000311DC9010895EF92FF920F931F937C01D5
:100390008B01F701908180E0FB0120813181820F88
:1003A000931F0E94A8019C013370F80131832083C0
:1003B000892F86958695F70180831F910F91FF9075
:1003C000EF900895DC01FB0140835C930895109247
:1003D000C5008CE08093C40086E08093C20088E171
:1003E0008093C1000895982F8091C00085FFFCCFB5
:1003F0009093C6000895FC0107C08091C00085FF5E
:10040000FCCF9093C600319690819923B1F708955F
:10041000FF920F931F93CF93DF93EC0160913D0107
:1004200010913D01F0903D0100913D0180913D0111
:10043000833020F480913D018B5F03C080913D01AA
:10044000835080933D0180913D01882319F485E01C
:1004500080933D0170E080E090E00E942E049B01BB
:10046000AC0160E070E080E090E40E9494049B01A5
:10047000AC01902F9295990F907E80E0BE0102C052
:10048000769567951A95E2F78B01080F191FCA0137
:10049000B9010E94020461506C23262F30E08DE0E8
:1004A00090E08F19910902C0220F331F8A95E2F75D
:1004B000200F311FC901DF91CF911F910F91FF9044
:1004C0000895DF93CF930F92CDB7DEB7382F330F58
:1004D000330F20E0C901860F971F0E94080289830D
:1004E00081E0692FAE014F5F5F4F0E94E9030F90DB
:1004F000CF91DF9108952C989EBD0DB407FEFDCFDE
:100500008EBD0DB407FEFDCF2C9A08952C989EBD8C
:100510000DB407FEFDCF3EB58EBD0DB407FEFDCF79
:100520002EB5932F80E02C9A30E0282B392BC9016F
:10053000089578941F920F920FB60F921124EF92A4
:10054000FF920F931F932F933F934F935F936F935C
:100550007F938F939F93AF93BF93CF93DF93EF934B
:10056000FF93E99800913C0182E0E82EC4E0D1E0DD
:10057000FF24F394ECBA2C981EBC0DB407FEFDCFFB
:100580002C9A0EB407FE85C010913E01113029F15E
:10059000113020F0123009F071C055C0F0924101C5
:1005A00080E090EB0E948602082F0D5F00934001CF
:1005B00003508091420190E08C9FF0018D9FF00DDF
:1005C0009C9FF00D1124EC5BFE4F8081882309F085
:1005D00055C0F0923E010183CDCF80E090EB0E94A8
:1005E0008602382F20914101809140012817C8F4DC
:1005F00003278091420190E08C9FF0018D9FF00DC8
:100600009C9FF00D11243196E20FF11DEC5BFE4F23
:100610003083223011F40F3F89F52F5F2093410181
:10062000A9CF20914201822F90E08C9FF0018D9FF5
:10063000F00D9C9FF00D1124EC5BFE4FE082212712
:10064000209342011BC02091410180914001281755
:1006500058F4E22FF0E0E45BFC4F808190E02F5FE4
:1006600020934101986B12C010923F0181E892E8FB
:100670000E947B028AEA98EB0E947B0210923E0164
:1006800081E89AEC0E947B0283E89AEC0E947B024C
:1006900071CF00933C01E99AFF91EF91DF91CF91E7
:1006A000BF91AF919F918F917F916F915F914F918A
:1006B0003F912F911F910F91FF90EF900F900FBEE0
:1006C0000F901F90189580913E01882301F580912D
:1006D0003F018130E1F4E99881E092E80E947B02D9
:1006E00080914E038A5F809340011092410182E025
:1006F00080933E018AEA98EB0E947B028AEA98EB9B
:100700000E947B0281E292E80E947B02E99A0895AE
:10071000982F80913F01882311F083E00895609322
:100720004E0390934F03692760956093500381E0D7
:1007300080933F0180E8089540914301242F30E0E9
:1007400084E091E0289FF001299FF00D389FF00D83
:100750001124EC5BFE4F108281E048274093430157
:100760000895CF93DF932C9A249A259A279A2C9A4E
:10077000249A269881E58CBD8DE280934C0384ED0C
:1007800080934D031092420110924301CEEFD0E0CE
:10079000FE01859194910E947B02229681E0C631F0
:1007A000D807B1F78091690088608093690080E084
:1007B00090E00E94860282E08CBB81E89AEC0E9465
:1007C0007B0283E89AEC0E947B02E99ADF91CF9149
:1007D00008950F931F93182F062F80913F018823B0
:1007E00011F083E00CC021E533E0C901BA01412FCB
:1007F00050E00E945107802F612F0E9488031F91B3
:100800000F91089570D088F09F5790F0B92F9927D5
:10081000B751A0F0D1F0660F771F881F991F1AF00B
:10082000BA95C9F712C0B13081F077D0B1E0089520
:1008300074C0672F782F8827B85F39F0B93FCCF3A1
:10084000869577956795B395D9F73EF49095809501
:10085000709561957F4F8F4F9F4F0895E89409C021
:1008600097FB3EF490958095709561957F4F8F4FE3
:100870009F4F9923A9F0F92F96E9BB279395F695F9
:10088000879577956795B795F111F8CFFAF4BB0F77
:1008900011F460FF1BC06F5F7F4F8F4F9F4F16C0DB
:1008A000882311F096E911C0772321F09EE8872F65
:1008B000762F05C0662371F096E8862F70E060E021
:1008C0002AF09A95660F771F881FDAF7880F96959A
:1008D000879597F9089557FD9058440F551F59F083
:1008E0005F3F71F04795880F97FB991F61F09F3F1D
:1008F00079F087950895121613061406551FF2CF46
:100900004695F1DF08C0161617061806991FF1CF95
:1009100086957105610508940895E894BB276627BC
:100920007727CB0197F90895FA01EE0FFF1F309654
:100930002105310599F16115710561F48038BFE336
:100940009B0749F168949038810561F08038BFEFCA
:100950009B0741F0992342F5FF3FE1053105210551
:1009600011F1E8940894E795D901AA2329F4AB2F53
:10097000BE2FF85FD0F310C0FF5F70F4A695E0F7CC
:10098000F73950F019F0FF3A38F49F779F930CD065
:100990000F9007FC905808953EF049C060E070E069
:1009A00080E89FE308954FE79F775F934F933F93CE
:1009B0002F93A7D02F913F914F915F9115D105C0F3
:1009C00019F40EF02EC0A9CF32C08DDFC8F39638CF
:1009D000C0F707F80F92E8942BE33AEA48EB5FE799
:1009E00011D10F920F920F924DB75EB70F92C9D0EF
:1009F000ECE7F0E01FD04F915F91EF91FF91E5950B
:100A0000EE1FFF1F49F0FE57E0684427EE0F441F1A
:100A1000FA95E1F74195550B3BD00F9007FE2FC09B
:100A2000089597F99F6780E870E060E008959FEF70
:100A300080EC0895DF93CF931F930F93FF92EF9273
:100A4000DF927B018C01689405C0DA2EEF01D8D0CB
:100A5000FE01E894A5912591359145915591AEF30C
:100A6000EF0137D1FE019701A801DA9479F7DF9001
:100A7000EF90FF900F911F91CF91DF9108959B010F
:100A8000AC0160E070E080E89FE376C1CACFDCC1D2
:100A90002ADFE8F39923D9F3940F511DBBF391504A
:100AA000504094F059F0882332F0660F771F881F6A
:100AB00091505040C1F79E3F510544F7880F911D5A
:100AC0009695879597F908955F3FACF0983E9CF016
:100AD000BB27869577956795B79508F4B160939590
:100AE000C1F7BB0F58F711F460FFE8CF6F5F7F4F7E
:100AF0008F4F9F4FE3CF12CF0EF0A6C198CF6894CF
:100B000090CFF1DEC8F39923D1F3C6F3DF93CF93EF
:100B10001F930F93FF92C92FDD2788232AF0219777
:100B2000660F771F881FDAF720E030E040E85FEBC0
:100B30009FE3883920F0803E30F021968F77B8D03F
:100B4000E4EAF0E003C0B4D0E1EDF0E073DF8B0144
:100B5000BE01EC01FB2E6F5771097595771F880B4D
:100B6000990B7EDE28E132E741E35FE349D0AF2D08
:100B70009801AE01FF900F911F91CF91DF91A9D005
:100B80007FC1FA01DC01AA0FBB1F9B01AC01BF575B
:100B900028F422273327442750781FC0B75188F400
:100BA000AB2F0024469537952795011CA395D2F3CA
:100BB000002069F0220F331F441FB395DAF30DD0E4
:100BC00076C061307105A0E88A07B94630F49B0110
:100BD000AC016627772788279078309621F020830C
:100BE00031834283538308950BD04AC13BD128F00F
:100BF00040D118F0952309F014CF19CF11248ECECF
:100C00006ADEA0F3959FD1F3950F50E0551F629FC8
:100C1000F001729FBB27F00DB11D639FAA27F00D55
:100C2000B11DAA1F649F6627B00DA11D661F829F7C
:100C30002227B00DA11D621F739FB00DA11D621F61
:100C4000839FA00D611D221F749F3327A00D611D7E
:100C5000231F849F600D211D822F762F6A2F112460
:100C60009F5750408AF0E1F088234AF0EE0FFF1FB3
:100C7000BB1F661F771F881F91505040A9F79E3FEA
:100C8000510570F0CECE4ACE5F3FECF3983EDCF3D8
:100C9000869577956795B795F795E7959F5FC1F727
:100CA000FE2B880F911D9695879597F908955058BA
:100CB000BB27AA270ED0E4C0D5D030F0DAD020F080
:100CC00031F49F3F11F41EF4B2CE0EF4E095E7FB31
:100CD000A8CEE92F00DE80F3BA17620773078407F6
:100CE000950718F071F49EF518CE0EF4E0950B2ED2
:100CF000BA2FA02D0B01B90190010C01CA01A0016E
:100D00001124FF27591B99F0593F50F4503E68F1C8
:100D10001A16F040A22F232F342F4427585FF3CF09
:100D2000469537952795A795F0405395C9F77EF4DA
:100D30001F16BA0B620B730B840BBAF09150A1F023
:100D4000FF0FBB1F661F771F881FC2F70EC0BA0FA9
:100D5000621F731F841F48F4879577956795B79531
:100D6000F7959E3F08F0B3CF9395880F08F0992729
:100D7000EE0F9795879508950CD082C07AD040F0F9
:100D800071D030F021F45F3F19F04BCE5111C6CD38
:100D90004ECEA1DD98F39923C9F35523B1F3951BEA
:100DA000550BBB27AA2762177307840738F09F5F8C
:100DB0005F4F220F331F441FAA1FA9F333D00E2EFB
:100DC0003AF0E0E830D091505040E695001CCAF768
:100DD00029D0FE2F27D0660F771F881FBB1F26172D
:100DE00037074807AB07B0E809F0BB0B802DBF0100
:100DF000FF2793585F4F2AF09E3F510568F011CEB0
:100E00008DCD5F3FECF3983EDCF386957795679543
:100E1000B795F7959F5FC9F7880F911D96958795B0
:100E200097F90895E1E0660F771F881FBB1F6217CF
:100E300073078407BA0720F0621B730B840BBA0B8D
:100E4000EE1F88F7E09508959F3F31F0915020F410
:100E5000879577956795B795880F911D9695879596
:100E600097F9089500240A9416161706180609061D
:100E7000089500240A941216130614060506089510
:100E8000092E0394000C11F4882352F0BB0F40F498
:100E9000BF2B11F460FF04C06F5F7F4F8F4F9F4FD8
:100EA0000895FB01DC0102C001900D9241505040B9
:100EB000D8F70895AEE0B0E0E0E6F7E00C94090A58
:100EC0000D891E8986E08C831A8309838FEF9FE743
:100ED0009E838D839E01275E3F4FCE0101966F89D1
:100EE000788DA9010E947E072F813885020F131F7C
:100EF000F80110822E96E4E00C94250AABE0B0E0F5
:100F0000E4E8F7E00C94FB093C012B015A01FC01D9
:100F100017821682838181FD03C06FEF7FEFC6C108
:100F20009AE0892E1E010894211C311CF3012381B3
:100F3000F20123FD859123FF81912F01882309F47C
:100F4000B2C1853239F423FD859123FF81912F01B0
:100F5000853229F490E0B3010E947109E7CF982F00
:100F6000FF24EE249924FFE1FF15D0F09B3269F0B5
:100F70009C3228F4903259F0933291F40EC09D3295
:100F800049F0903369F441E024C052E0F52A84E04E
:100F9000F82A28C098E0F92A25C0E0E1FE2A22C0FC
:100FA000F7FC29C0892F80538A3070F4F6FE05C003
:100FB000989C902C1124980E15C0E89CE02C1124CC
:100FC000E80EF0E2FF2A0EC09E3229F4F6FC6BC157
:100FD00040E4F42A07C09C3619F450E8F52A02C010
:100FE000983649F4F20123FD959123FF91912F0149
:100FF000992309F0B8CF892F8554833018F0805297
:10100000833038F444E050E0A40EB51E5FE359830A
:101010000FC0933631F0933779F0933509F056C00D
:1010200020C0F5018081898342E050E0A40EB51E06
:10103000610101E010E012C0F501C080D180F6FC32
:1010400003C06FEF7FEF02C0692D70E042E050E017
:10105000A40EB51EC6010E9466098C015FE7F52249
:1010600014C0F501C080D180F6FC03C06FEF7FEFA4
:1010700002C0692D70E042E050E0A40EB51EC6012A
:101080000E945B098C0150E8F52AF3FE07C01AC0E4
:1010900080E290E0B3010E947109EA948E2D90E005
:1010A00008171907A8F30EC0F601F7FC8591F7FEA3
:1010B00081916F0190E0B3010E947109E110EA94FF
:1010C000015010400115110579F7EAC0943611F06E
:1010D000993669F5F7FE08C0F5012081318142811A
:1010E000538184E090E00AC0F501808191819C01E8
:1010F000442737FD4095542F82E090E0A80EB91E9A
:101100009FE6F92257FF09C05095409530952195EB
:101110003F4F4F4F5F4FE0E8FE2ACA01B901A101DE
:101120002AE030E00E949D09D82ED21840C09537A1
:1011300029F41F2D1F7E2AE030E01DC01F2D197FCE
:101140009F3661F0903720F4983509F0ACC00FC09D
:10115000903739F0983709F0A6C004C028E030E095
:101160000AC0106114FD146020E130E004C014FDD9
:10117000166020E132E017FF08C0F501608171813F
:101180008281938144E050E008C0F5018081918123
:10119000BC0180E090E042E050E0A40EB51EA10149
:1011A0000E949D09D82ED2188FE7F82EF122F6FE64
:1011B0000BC05EEFF522D91438F4F4FE07C0F2FC40
:1011C00005C08FEEF82202C01D2D01C0192DF4FEBE
:1011D0000DC0FE01ED0DF11D8081803319F499EEF3
:1011E000F92208C01F5FF2FE05C003C08F2D86786C
:1011F00009F01F5F0F2DF3FC14C0F0FE0FC01E1589
:1012000010F09D2C0BC09D2C9E0C911A1E2D06C01B
:1012100080E290E0B3010E9471091F5F1E15C0F3C8
:1012200004C01E1510F4E11A01C0EE2404FF0FC023
:1012300080E390E0B3010E94710902FF1DC001FD2F
:1012400003C088E790E00EC088E590E00BC0802FD7
:10125000867891F001FF02C08BE201C080E2F7FCCA
:101260008DE290E0B3010E94710906C080E390E036
:10127000B3010E9471099A94D914C0F3DA94F10170
:10128000ED0DF11D808190E0B3010E947109DD2018
:10129000A9F706C080E290E0B3010E947109EA94C8
:1012A000EE20C1F743CEF30166817781CB012B9607
:1012B000E2E10C94170AFC010590615070400110A6
:1012C000D8F7809590958E0F9F1F0895FC0161506F
:1012D000704001900110D8F7809590958E0F9F1F58
:1012E00008950F931F93CF93DF938C01EB018B81B4
:1012F00081FF1BC082FF0DC02E813F818C819D81AB
:101300002817390764F4E881F9810193F983E883A8
:1013100006C0E885F985802F0995892B31F48E81E7
:101320009F8101969F838E8302C00FEF1FEFC8013C
:10133000DF91CF911F910F910895FA01AA272830CC
:1013400051F1203181F1E8946F936E7F6E5F7F4F92
:101350008F4F9F4FAF4FB1E03ED0B4E03CD0670F0E
:10136000781F891F9A1FA11D680F791F8A1F911D61
:10137000A11D6A0F711D811D911DA11D20D009F4B1
:1013800068943F912AE0269F11243019305D3193F3
:10139000DEF6CF010895462F4770405D4193B3E0DC
:1013A0000FD0C9F7F6CF462F4F70405D4A3318F083
:1013B000495D31FD4052419302D0A9F7EACFB4E034
:1013C000A6959795879577956795BA95C9F70097EC
:1013D0006105710508959B01AC010A2E069457958D
:1013E000479537952795BA95C9F7620F731F841FE4
:1013F000951FA01D08952F923F924F925F926F927A
:101400007F928F929F92AF92BF92CF92DF92EF9294
:10141000FF920F931F93CF93DF93CDB7DEB7CA1B15
:10142000DB0B0FB6F894DEBF0FBECDBF09942A8840
:10143000398848885F846E847D848C849B84AA84E8
:10144000B984C884DF80EE80FD800C811B81AA8175
:10145000B981CE0FD11D0FB6F894DEBF0FBECDBF40
:08146000ED010895F894FFCF9F
:10146800496E697469616C69736564000A0D20547A
:101478006872757374203D2025750020526F6C6C5E
:10148800203D2025750020596177203D20257500D5
:0C149800205069746368203D2025750019
:00000001FF
