:100000000C94BB000C94D8000C94D8000C94D8002D
:100010000C94D8000C94D8000C94D8000C94D80000
:100020000C94D8000C94D8000C94D8000C94D800F0
:100030000C94D8000C94D8000C94D8000C94D800E0
:100040000C94D8000C94D8000C94D8000C94D800D0
:100050000C94D8000C94D8000C94D8000C94D800C0
:100060000C94D8000C94D8000C94D8000C94D800B0
:100070000C94D8000C94D8000C94D80000407A104E
:10008000F35A00A0724E18090010A5D4E80000E849
:100090007648170000E40B54020000CA9A3B0000A7
:1000A00000E1F505000080969800000040420F0036
:1000B0000000A08601000000102700000000E803F7
:1000C000000000006400000000000A0000000000C2
:1000D0000100000000002C76D888DC674F0823DF81
:1000E000C1DFAE59E1B1B796E5E3E453C63AE65154
:1000F000997696E8E6C28426EB898C9B62ED407C7B
:100100006FFCEFBC9C9F40F2BAA56FA5F490055A16
:100110002AF75C936B6CF9676DC11BFCE0E40D473B
:10012000FEF520E6B500D0ED902E0300943577055E
:100130000080841E080000204E0A000000C80C3316
:100140003333330F986E12831141EF8D2114893BA5
:10015000E65516CFFEE6DB18D1844B381BF77C1D25
:10016000901DA4BBE424203284725E228100C9F178
:1001700024ECA1E53D2711241FBECFEFD0E1DEBF67
:10018000CDBF12E0A0E0B1E0E4E1F0E202C00590F2
:100190000D92AA33B107D9F712E0AAE3B2E001C089
:1001A0001D92AE34B107E1F70E9412010C940810C1
:1001B0000C9400001F93182F8A3019F48DE00E94D0
:1001C000DA008091C00085FFFCCF1093C600212F7C
:1001D000332727FD3095C9011F9108958091C000F4
:1001E00087FFFCCF8091C60090E008951092C50073
:1001F0008DE48093C40088E18093C10086E0809301
:10020000C20084E291E090934B0280934A02909363
:100210004D0280934C0286E191E0909349028093D5
:10022000480208952F923F924F925F926F927F9271
:100230008F929F92AF92BF92CF92DF92EF92FF92F6
:100240000F931F93DF93CF93CDB7DEB7AE970FB663
:10025000F894DEBF0FBECDBF1A8219821C821B82AA
:100260001E821D8218861F821A8619861C861B868E
:1002700080E090E0A0E0B0E08D879E87AF87B88BEC
:10028000898B9A8BAB8BBC8B8D8B9E8BAF8BB88FF6
:10029000898F9A8FAB8FBC8F8D8F9E8FAF8FB8A3B6
:1002A00089A39AA3ABA3BCA30E94F60000D080E070
:1002B00091E0EDB7FEB7928381830E94D50A7894CE
:1002C0000F900F900E94130584EF91E02CE231E033
:1002D000F9013197F1F70197D9F789E1482E512CAF
:1002E0004C0E5D1E0DE1202E312C2C0E3D1E11E218
:1002F000612E712C6C0E7D1EB5E2CB2ED12CCC0E56
:10030000DD1EAFE0AA2EA1E0BA2EFCE28F2EF1E0B6
:100310009F2ECE010196BE016D5F7F4FAE014B5FF8
:100320005F4F9E01295F3F4F8E01075F1F4FEBE03C
:10033000EE2EF12CEC0EFD1E0E945303CE010D9605
:10034000BE016F5E7F4FAE014B5E5F4F9201810138
:1003500073010E94BE0369817A81882777FD8095A9
:10036000982FA6012AE030E00E94A10A00D000D018
:10037000EDB7FEB7B282A182D482C3820E94D50AB1
:100380000F900F900F900F906B817C81882777FDE5
:100390008095982FA6012AE030E00E94A10A00D0A3
:1003A00000D0EDB7FEB7B282A182D482C3820E9490
:1003B000D50A0F900F900F900F906D817E81882746
:1003C00077FD8095982FA6012AE030E00E94A10ACF
:1003D00000D000D0EDB7FEB7B282A182D482C38232
:1003E0000E94D50A0F900F900F900F906F81788523
:1003F000882777FD8095982FA6012AE030E00E949B
:10040000A10A00D000D0EDB7FEB7B282A182D4829B
:10041000C3820E94D50A0F900F900F900F906985AC
:100420007A85882777FD8095982FA6012AE030E00D
:100430000E94A10A00D000D0EDB7FEB7B282A1821F
:10044000D482C3820E94D50A0F900F900F900F9014
:100450006B857C85882777FD8095982FA6012AE0FB
:1004600030E00E94A10A00D000D0EDB7FEB7B28202
:10047000A182D482C3820E94D50A0F900F900F9060
:100480000F9084E191E00E94EA0A6D857E858F8558
:10049000988943E025E086010E94800A00D000D0C0
:1004A000EDB7FEB7B282A182D482C3820E94D50A80
:1004B0000F900F900F900F9069897A898B899C8992
:1004C00043E025E00E94800A00D000D0EDB7FEB7DF
:1004D000B282A182D482C3820E94D50A0F900F906B
:1004E0000F900F906D897E898F89988D43E025E06C
:1004F0000E94800A00D000D0EDB7FEB7B282A18280
:10050000D482C3820E94D50A0F900F900F900F9053
:10051000698D7A8D8B8D9C8D43E025E00E94800A49
:1005200000D000D0EDB7FEB7B282A182D482C382E0
:100530000E94D50A0F900F900F900F906D8D7E8DB9
:100540008F8D98A143E025E00E94800A00D000D062
:10055000EDB7FEB7B282A182D482C3820E94D50ACF
:100560000F900F900F900F9069A17AA18BA19CA181
:1005700043E025E00E94800A00D000D0EDB7FEB72E
:10058000B282A182D482C3820E94D50A0F900F90BA
:100590000F900F9084E191E00E94EA0A84E191E0DB
:1005A0000E94EA0A80E197E2F4013197F1F701979E
:1005B000D9F7AFCEEF92FF920F931F93CF93DF93B4
:1005C000182FE62E042FF52E6623A1F080ED0E9451
:1005D000BC05812F0E945406802F9F2D9C01E901AC
:1005E00010E004C089910E9454061F5F1E15D0F3CD
:1005F0000E944406DF91CF911F910F91FF90EF90E1
:100600000895DF93CF930F92CDB7DEB7698361E092
:10061000AE014F5F5F4F0E94DA020F90CF91DF91E2
:100620000895DF92EF92FF920F931F93CF93DF9382
:10063000182FD62E042FF52E662311F410E02AC0B1
:1006400080ED0E94BC05812F0E94540688E28A95A5
:10065000F1F781ED0E94BC05802F9F2D9C0189013F
:10066000C0E0D0E0ED2CFF240894E108F1080DC0B3
:10067000CE15DF0519F40E948F0602C00E94750690
:10068000F801808321960F5F1F4FCD1588F31D2D34
:100690000E944406812FDF91CF911F910F91FF900F
:1006A000EF90DF9008956F927F928F929F92AF921A
:1006B000BF92CF92DF92EF92FF920F931F936C0144
:1006C0005B014A0139018BE36EE04AE352E00E948C
:1006D000110340913A0220913B02942F80E030E0D8
:1006E000822B932BF6019183808340913C022091D1
:1006F0003D02942F80E030E0822B932BF501918313
:10070000808340913E0220913F02942F80E030E0B0
:10071000822B932BF401918380834091420220919C
:100720004302942F80E030E0822B932BF3019183DE
:1007300080834091440220914502942F80E030E074
:10074000822B932BF8019183808340914602209164
:100750004702942F80E030E0822B932BF7019183A6
:1007600080831F910F91FF90EF90DF90CF90BF900B
:10077000AF909F908F907F906F9008952F923F92AF
:100780004F925F926F927F928F929F92AF92BF92A1
:10079000CF92DF92EF92FF920F931F93DF93CF934D
:1007A000CDB7DEB72C970FB6F894DEBF0FBECDBF26
:1007B0006C015B014A013901280117011A82198273
:1007C0001C821B821E821D8218861F821A86198631
:1007D0001C861B86CE010196BE016D5F7F4FAE0168
:1007E0004B5F5F4F9E01295F3F4F8E01075F1F4F99
:1007F000EBE0EE2EF12CEC0EFD1E0E9453036981FE
:100800007A81882777FD8095982F0E944F0820E0F5
:1008100030E040E858E30E94A906F6016083718346
:10082000828393836B817C81882777FD8095982FC5
:100830000E944F0820E030E040E858E30E94A906FB
:10084000F50160837183828393836D817E81882724
:1008500077FD8095982F0E944F0820E030E040E817
:1008600058E30E94A906F401608371838283938315
:100870006F817885882777FD8095982F0E944F0893
:1008800023E333E343E851E40E94A307F3016083C9
:1008900071838283938369857A85882777FD809524
:1008A000982F0E944F0823E333E343E851E40E946A
:1008B000A307F20160837183828393836B857C85B8
:1008C000882777FD8095982F0E944F0823E333E314
:1008D00043E851E40E94A307F1016083718382839E
:1008E00093832C960FB6F894DEBF0FBECDBFCF9189
:1008F000DF911F910F91FF90EF90DF90CF90BF900D
:10090000AF909F908F907F906F905F904F903F90AF
:100910002F900895AB0161E00E9411030895FF92AA
:100920000F931F93DF93CF930F92CDB7DEB7F82EBF
:10093000062F142FBE016F5F7F4F0E948A0429810A
:10094000112351F081E090E002C0880F991F0A95B1
:10095000E2F7622F682B0AC081E090E002C0880FA6
:10096000991F0A95E2F7682F6095622369838F2D9E
:100970000E9401030F90CF91DF911F910F91FF9083
:1009800008958BE666E041E00E948F0408958BE6AF
:1009900066E040E00E948F040895EF92FF920F936B
:1009A0001F93DF93CF930F92CDB7DEB7E82E062FBC
:1009B000142FF22E442379F11982BE016F5F7F4F0D
:1009C0000E948A04882339F1212F30E0402F50E023
:1009D0004F5F5F4F421B530B81E090E002C0880FD6
:1009E000991F1A95E2F70197042E02C0880F991FEC
:1009F0000A94E2F72F2D30E002C0220F331F4A95F0
:100A0000E2F7682F6095498164238223682B69830C
:100A10008E2D0E9401030F90CF91DF911F910F91B6
:100A2000FF90EF9008950E94B60588E28A95F1F74D
:100A300088EE93E02CE231E0F9013197F1F701976C
:100A4000D9F70E94C70480E395E70197F1F78BE699
:100A500062E043E021E00E94CD048AE162E043E0ED
:100A600023E00E94CD0489E164E00E9401038BE150
:100A700064E042E023E00E94CD048CE164E042E0C7
:100A800020E00E94CD040895FF920F931F93DF93FF
:100A9000CF930F92CDB7DEB7F62E8A01BE016F5FFE
:100AA0007F4F0E948A0421E030E002C0220F331FF2
:100AB000FA94E2F799819223F80190830F90CF91F5
:100AC000DF911F910F91FF900895EF92FF920F9386
:100AD0001F93DF93CF930F92CDB7DEB7062F142F5E
:100AE0007901442311F460E029C0BE016F5F7F4F9C
:100AF0000E948A04682F882309F1812F90E0402FFB
:100B000050E04F5F5F4F481B590B21E030E002C0BF
:100B1000220F331F1A95E2F721503040042E02C0F5
:100B2000220F331F0A94E2F78981822390E002C0EA
:100B3000959587954A95E2F7F7018083862F0F9068
:100B4000CF91DF911F910F91FF90EF90089585E76E
:100B500066E046E02AE332E00E94650580913A02B1
:100B600090E0843309F491E0892F08951092B90040
:100B700084E38093B8000895982F84EA8093BC00A2
:100B80002FEF30E040E050E08091BC0087FF07C0CD
:100B9000211531054105510509F431C005C0215029
:100BA00031094109510980F78091B900887F883067
:100BB00011F0803121F59093BB0084E88093BC0054
:100BC0002FEF30E040E050E08091BC0087FF06C08E
:100BD000211531054105510591F005C0215031091C
:100BE0004109510988F79091B900987F983111F423
:100BF00080E0089580E0903419F081E0089581E06C
:100C00000895982F64EA54E844E96093BC0020E01A
:100C100030E08091BC0087FD06C02F5F3F4F81E030
:100C200020303807B1F78091B900887F883011F003
:100C3000803159F79093BB005093BC0020E030E026
:100C40008091BC0087FD06C02F5F3F4F81E02030C0
:100C50003807B1F78091B900887F803211F088356C
:100C600079F44093BC0020E030E08091BC0084FF28
:100C7000CCCF2F5F3F4F81E020303807B1F7C5CF91
:100C800008950E94BC05089584E98093BC0020E08B
:100C900030E08091BC0084FF06C02F5F3F4F81E0B1
:100CA00020303807B1F708958093BB0084E8809323
:100CB000BC002FEF30E040E050E08091BC0087FFA7
:100CC00006C0211531054105510561F005C02150CF
:100CD00031094109510988F78091B90090E0887F76
:100CE000883209F091E0892F089584EC8093BC004C
:100CF0002FEF30E040E050E08091BC0087FF07C05C
:100D0000211531054105510539F480E00895215040
:100D100031094109510980F78091BB00089584E8A9
:100D20008093BC002FEF30E040E050E08091BC00A9
:100D300087FF07C0211531054105510539F480E0D1
:100D40000895215031094109510980F78091BB0074
:100D50000895A0E2B0E0EFEAF6E00C94490A698356
:100D60007A838B839C832D833E834F835887CE0168
:100D70000196BE01675F7F4F0E94D109CE010596A3
:100D8000BE016F5E7F4F0E94D1099985923088F035
:100D900089898230C8F0943019F4823051F404C04B
:100DA000843029F4923081F482E391E0C6C092301D
:100DB00049F420E09A858A89981321E02A87CE0198
:100DC0000996BBC0823049F420E09A858A8998133D
:100DD00021E02A8BCE014196B0C02D843E844F8401
:100DE00058886D887E888F88988CEE24FF24870130
:100DF000AA24BB24650140E050E060E070E0E0E040
:100E0000F0E0C10181709070892BE9F0E60CF71CCD
:100E1000081D191D9A01AB012A0D3B1D4C1D5D1DBE
:100E200080E090E0A0E0B0E0E614F70408051905C2
:100E300020F481E090E0A0E0B0E0BA01A901480F01
:100E4000591F6A1F7B1FAA0CBB1CCC1CDD1C97FE04
:100E500008C081E090E0A0E0B0E0A82AB92ACA2A40
:100E6000DB2A3196E032F10549F0660C771C881CCC
:100E7000991C5694479437942794C3CFFA85EA89EE
:100E80002B893C898B859C85280F391F2E5F3F4F0E
:100E900017C0CA0181709070892B61F01695079573
:100EA000F794E79480E090E0A0E0B0E8E82AF92A1F
:100EB0000A2B1B2B76956795579547952F5F3F4FCC
:100EC00077FDE7CF0CC0440F551F661F771F17FD36
:100ED0004160EE0CFF1C001F111F215030404030BC
:100EE00090E0590790E0690790E4790760F32B8F51
:100EF0003C8FDB01CA018F779070A070B070803496
:100F00009105A105B10561F447FD0AC0E114F104A2
:100F10000105110529F0405C5F4F6F4F7F4F40780E
:100F20001A8EFE1711F081E08A8F4D8F5E8F6F8FC2
:100F300078A383E0898FCE0149960E94FC08A09691
:100F4000E2E10C94650AA8E1B0E0E9EAF7E00C946C
:100F5000510A69837A838B839C832D833E834F83DD
:100F60005887B9E0EB2EF12CEC0EFD1ECE01019658
:100F7000B7010E94D1098E010F5E1F4FCE01059669
:100F8000B8010E94D1092985223008F47EC0398930
:100F9000323010F4B8017CC08A859A8989278A8703
:100FA000243011F0223031F4231709F06EC062E3CF
:100FB00071E06EC0343039F41D861E861F86188A93
:100FC0001C861B8604C0323021F484E08987B70177
:100FD0005FC02B853C858B899C89281B390B3C87FE
:100FE0002B87ED84FE840F851889AD88BE88CF8855
:100FF000D88CEA14FB040C051D0540F4EE0CFF1C14
:10100000001F111F215030403C872B8720E030E02B
:1010100040E050E080E090E0A0E0B0E460E070E00C
:10102000EA14FB040C051D0540F0282B392B4A2B34
:101030005B2BEA18FB080C091D09B695A795979537
:101040008795EE0CFF1C001F111F6F5F7F4F6F31E4
:10105000710531F7DA01C9018F779070A070B07017
:1010600080349105A105B10561F427FD0AC0E114A2
:10107000F1040105110529F0205C3F4F4F4F5F4FF0
:1010800020782D873E874F87588BBE01675F7F4F43
:10109000CB010E94FC086896EAE00C946D0AA8E077
:1010A000B0E0E5E5F8E00C94520A9B01AC0183E066
:1010B0008983DA01C9018827B7FD83959927AA2773
:1010C000BB27B82E211531054105510519F482E0E1
:1010D00089833AC08823A9F0203080E0380780E077
:1010E000480780E8580729F460E070E080E09FEC52
:1010F00030C0EE24FF248701E21AF30A040B150B1B
:1011000002C079018A018EE1C82ED12CDC82CB820B
:10111000ED82FE820F831887C801B7010E94AD08D7
:1011200001971816190684F4082E04C0EE0CFF1C53
:10113000001F111F0A94D2F7ED82FE820F831887D9
:10114000C81AD90ADC82CB82BA82CE0101960E94EB
:10115000FC082896E9E00C946E0AEF92FF920F9338
:101160001F937B018C0180E0E81680E0F80681E0A7
:10117000080780E0180788F48FEFE816F1040105EE
:10118000110531F028F088E090E0A0E0B0E017C051
:1011900080E090E0A0E0B0E012C080E0E81680E0DF
:1011A000F80680E0080781E0180728F088E190E061
:1011B000A0E0B0E004C080E190E0A0E0B0E020E278
:1011C00030E040E050E0281B390B4A0B5B0B04C0B9
:1011D00016950795F794E7948A95D2F7F701E65CA0
:1011E000FE4F8081281B310941095109C9011F9116
:1011F0000F91FF90EF900895DF92EF92FF920F937F
:101200001F93FC01E480F58006811781D1808081E5
:10121000823048F480E090E0A0E1B0E0E82AF92ACA
:101220000A2B1B2BA5C0843009F49FC0823021F407
:10123000EE24FF24870105C0E114F1040105110526
:1012400019F4E0E0F0E096C0628173819FEF6238AC
:1012500079070CF05BC022E83FEF261B370B2A31E1
:1012600031052CF020E030E040E050E02AC0B80129
:10127000A701022E04C076956795579547950A9465
:10128000D2F781E090E0A0E0B0E004C0880F991FA1
:10129000AA1FBB1F2A95D2F70197A109B1098E2178
:1012A0009F21A023B1230097A105B10521F081E082
:1012B00090E0A0E0B0E09A01AB01282B392B4A2B3B
:1012C0005B2BDA01C9018F779070A070B070803409
:1012D0009105A105B10539F427FF09C0205C3F4FF6
:1012E0004F4F5F4F04C0215C3F4F4F4F5F4FE0E0D7
:1012F000F0E02030A0E03A07A0E04A07A0E45A0757
:1013000010F0E1E0F0E079018A0127C06038710552
:1013100064F5FB01E158FF4FD801C7018F7790704A
:10132000A070B07080349105A105B10539F4E7FED5
:101330000DC080E490E0A0E0B0E004C08FE390E056
:10134000A0E0B0E0E80EF91E0A1F1B1F17FF05C042
:1013500016950795F794E794319687E016950795CB
:10136000F794E7948A95D1F705C0EE24FF2487010E
:10137000EFEFF0E06E2F679566276795902F9F77C8
:10138000D794DD24D7948E2F8695492F462B582F3E
:101390005D29B701CA011F910F91FF90EF90DF9077
:1013A0000895FC01DB01408151812281622F6F771A
:1013B00070E0221F2227221F9381892F880F822B02
:1013C000282F30E0991F9927991F11969C93119708
:1013D00021153105A9F5411551056105710511F476
:1013E00082E037C082E89FEF13969C938E9312970A
:1013F0009A01AB0167E0220F331F441F551F6A9506
:10140000D1F783E08C930DC0220F331F441F551F6B
:1014100012968D919C911397019713969C938E939E
:101420001297203080E0380780E0480780E45807B2
:1014300058F314962D933D934D935C93179708950D
:101440002F3F310579F4411551056105710519F4F6
:1014500084E08C93089564FF03C081E08C9312C0F4
:101460001C9210C02F57304013963C932E93129726
:1014700083E08C9387E0440F551F661F771F8A9582
:10148000D1F7706414964D935D936D937C93179789
:1014900008952F923F924F925F926F927F928F9218
:1014A0009F92AF92BF92CF92DF92EF92FF920F93F3
:1014B0001F93CF93DF93CDB7DEB7CA1BDB0B0FB6FD
:1014C000F894DEBF0FBECDBF09942A8839884888BA
:1014D0005F846E847D848C849B84AA84B984C88450
:1014E000DF80EE80FD800C811B81AA81B981CE0F47
:1014F000D11D0FB6F894DEBF0FBECDBFED0108952C
:10150000EF92FF920F931F93F22FF02E47FD02C030
:10151000E4E001C0E4E1242F332727FD309537FFB5
:1015200003C0309521953F4F4F2D512F0F2FEE2E99
:101530000E94FC0C8F2D912F1F910F91FF90EF9027
:101540000895FA01CF93FF93EF93223044F12532AF
:1015500034F5C22FE894CA3049F497FB3EF49095D5
:101560008095709561957F4F8F4F9F4F2C2F33271C
:1015700044275527FF93EF930E94E60FEF91FF91C9
:10158000605D6A330CF0695D6193B901CA01605016
:1015900070408040904051F716F4CDE2C193108224
:1015A0008F919F91CF910C944C0FA0E0B0E0EBEDA8
:1015B000FAE00C94590AFE0135966191719180917F
:1015C0004A0290914B02AF010E941F0B2096E2E06D
:1015D0000C94750A0F931F93CF93DF938C01E091C6
:1015E0004A02F0914B02838181FF21C0C0E0D0E02C
:1015F0000DC0E0914A02F0914B0220853185BF0178
:10160000F9010995892B11F0CFEFDFEFF8018191F6
:101610008F01882371F7E0914A02F0914B022085F7
:1016200031858AE0BF01F9010995892B11F0CFEFCF
:10163000DFEFCE01DF91CF911F910F910895ABE0C5
:10164000B0E0E5E2FBE00C94490A3C012B015A01B1
:10165000FC0117821682838181FD03C06FEF7FEF4B
:10166000C6C19AE0892E1E010894211C311CF30189
:101670002381F20123FD859123FF81912F0188238E
:1016800009F4B2C1853239F423FD859123FF81919C
:101690002F01853229F490E0B3010E945C0FE7CF5F
:1016A000982FFF24EE249924FFE1FF15D0F09B3200
:1016B00069F09C3228F4903259F0933291F40EC0C4
:1016C0009D3249F0903369F441E024C052E0F52A9C
:1016D00084E0F82A28C098E0F92A25C0E0E1FE2A33
:1016E00022C0F7FC29C0892F80538A3070F4F6FE9F
:1016F00005C0989C902C1124980E15C0E89CE02CF5
:101700001124E80EF0E2FF2A0EC09E3229F4F6FC06
:101710006BC140E4F42A07C09C3619F450E8F52A5E
:1017200002C0983649F4F20123FD959123FF91916F
:101730002F01992309F0B8CF892F8554833018F0F1
:101740008052833038F444E050E0A40EB51E5FE3CD
:1017500059830FC0933631F0933779F0933509F000
:1017600056C020C0F5018081898342E050E0A40E7C
:10177000B51E610101E010E012C0F501C080D1800A
:10178000F6FC03C06FEF7FEF02C0692D70E042E00E
:1017900050E0A40EB51EC6010E94410F8C015FE708
:1017A000F52214C0F501C080D180F6FC03C06FEFB4
:1017B0007FEF02C0692D70E042E050E0A40EB51E3C
:1017C000C6010E94360F8C0150E8F52AF3FE07C0CF
:1017D0001AC080E290E0B3010E945C0FEA948E2D63
:1017E00090E008171907A8F30EC0F601F7FC8591E1
:1017F000F7FE81916F0190E0B3010E945C0FE11050
:10180000EA94015010400115110579F7EAC09436A9
:1018100011F0993669F5F7FE08C0F5012081318194
:101820004281538184E090E00AC0F501808191817A
:101830009C01442737FD4095542F82E090E0A80E8C
:10184000B91E9FE6F92257FF09C050954095309583
:1018500021953F4F4F4F5F4FE0E8FE2ACA01B90183
:10186000A1012AE030E00E94880FD82ED21840C093
:10187000953729F41F2D1F7E2AE030E01DC01F2D53
:10188000197F9F3661F0903720F4983509F0ACC08D
:101890000FC0903739F0983709F0A6C004C028E08F
:1018A00030E00AC0106114FD146020E130E004C093
:1018B00014FD166020E132E017FF08C0F5016081D9
:1018C00071818281938144E050E008C0F5018081FC
:1018D0009181BC0180E090E042E050E0A40EB51E92
:1018E000A1010E94880FD82ED2188FE7F82EF1227E
:1018F000F6FE0BC05EEFF522D91438F4F4FE07C0F3
:10190000F2FC05C08FEEF82202C01D2D01C0192D7A
:10191000F4FE0DC0FE01ED0DF11D8081803319F440
:1019200099EEF92208C01F5FF2FE05C003C08F2D9B
:10193000867809F01F5F0F2DF3FC14C0F0FE0FC076
:101940001E1510F09D2C0BC09D2C9E0C911A1E2D67
:1019500006C080E290E0B3010E945C0F1F5F1E157D
:10196000C0F304C01E1510F4E11A01C0EE2404FFF8
:101970000FC080E390E0B3010E945C0F02FF1DC026
:1019800001FD03C088E790E00EC088E590E00BC041
:10199000802F867891F001FF02C08BE201C080E2C7
:1019A000F7FC8DE290E0B3010E945C0F06C080E37B
:1019B00090E0B3010E945C0F9A94D914C0F3DA94BA
:1019C000F101ED0DF11D808190E0B3010E945C0FEB
:1019D000DD20A9F706C080E290E0B3010E945C0F11
:1019E000EA94EE20C1F743CEF30166817781CB0103
:1019F0002B96E2E10C94650AA9E0B0E0E2E0FDE09C
:101A00000C944D0A6A01122FA02EBE2C2BE3201736
:101A100018F42CE3922E02C0902E9394AE014F5FE7
:101A20005F4F27E0092D0E945E0EBC018981E82EE0
:101A3000FF24C70189709070019711F4ADE209C0CD
:101A4000B1FE02C0ABE205C0B0FC02C0A0E001C024
:101A5000A0E2E3FE3BC0AA2311F423E001C024E08E
:101A6000211710F020E002C0121B212FEB2CB4FE36
:101A700002C0322F0AC0F601322F80E202C08193E9
:101A800031503323E1F7C20ED11CAA2319F0F6011D
:101A9000A1936F01F6013196E2FE05C09EE4D601E6
:101AA0009C9381E404C09EE6D6019C9381E6119646
:101AB0008C9391833296DF01832F90E202C09D9335
:101AC00081508823E1F7E30FF11D40C0E2FE42C0E0
:101AD000AA2311F423E001C024E0211710F020E034
:101AE00002C0121B212FEB2CB4FE02C0922F0AC0A1
:101AF000F601922F80E202C0819391509923E1F781
:101B0000C20ED11CAA2319F0F601A1936F01F601B0
:101B10003196E2FE08C089E4D6018C938EE41196DA
:101B20008C9386E407C089E6D6018C938EE61196E5
:101B30008C9386E681833296DF01892F20E202C0F2
:101B40002D9381508823E1F7E90FF11D10822EEFCC
:101B50003FEFAFC0161617061CF041E050E003C07F
:101B6000AB014F5F5F4FAA2019F480E090E003C003
:101B70008A2D90E0019620E030E0AA2311F021E0C8
:101B800030E0240F351F280F391F812F90E02817D0
:101B9000390714F020E002C0121B212F4B2D50E01A
:101BA000CA0180719070B4FC0DC0B3FC0BC0F6018B
:101BB000322F40E202C0419331503323E1F7C20E8D
:101BC000D11C01C0322FAA2319F0F601A1936F0195
:101BD000892B11F0132F0AC0F601132F80E302C0E6
:101BE000819311501123E1F7C30ED11C092D060F6B
:101BF000BA8090E1892E912C8E209F20E4FE04C0B3
:101C0000F1E3BF1609F40150101614F001E003C00F
:101C1000093008F008E09B0177FF02C020E030E0C7
:101C2000CB010196821B930BFE013196E80FF91F41
:101C30008EE2F82E3B01601A71088A2D90E044274D
:101C40005527481B590B8FEF2F3F380719F4D60142
:101C5000FD926D01621773072CF06216730614F47F
:101C6000808101C080E32150304031962417350730
:101C700024F0D6018D936D01E6CF2617370749F47E
:101C8000B5E3BB1528F0BB1621F48114910409F4C7
:101C900081E3F6018193D601812F90E202C09C93EB
:101CA000815011968823D9F7E10FF11D108220E0B1
:101CB00030E0C9012996EEE00C94690A283008F05A
:101CC00027E03327DA01990F311D87FD91600096D7
:101CD0006105710539F432602E5F3D9330E32A953A
:101CE000E1F708959F3F30F080387105610509F0F4
:101CF0003C5F3C5F3D93913008F08068911DDF931D
:101D0000CF931F930F93FF92EF92192F987F969581
:101D1000E92F96959695E90FFF27EA52FF4F9927ED
:101D20003327EE24FF24A701E701059008940794C8
:101D300028F4360FE71EF81E491F511D660F771F46
:101D4000881F991F0694A1F70590079428F4E70EC1
:101D5000F81E491F561FC11D770F881F991F661F48
:101D60000694A1F70590079428F4F80E491F561F12
:101D7000C71FD11D880F991F661F771F0694A1F7F3
:101D80000590079420F4490F561FC71FD81F990FBD
:101D9000661F771F881F0694A9F784911095177006
:101DA00041F0D695C79557954795F794E7941A95BE
:101DB000C1F7ECE7F0E068941590159135916591C5
:101DC000959105907FE27395E118F10A430B560B4C
:101DD000C90BD009C0F7E10CF11E431F561FC91FE4
:101DE000D01D7EF4703311F48A95E6CFE89401504B
:101DF00030F0080F0AF40027021708F4202F23956B
:101E0000022F7A3328F079E37D932A95E9F710C001
:101E10007D932A9589F6069497956795379517953A
:101E20001794E118F10A430B560BC90BD00998F02F
:101E300023957E9173957A3308F070E37C93201399
:101E4000B8F77E9170617D9330F0839571E37D9357
:101E500070E32A95E1F71124EF90FF900F911F9105
:101E6000CF91DF91992787FD90950895FC0105900A
:101E7000615070400110D8F7809590958E0F9F1F8C
:101E80000895FC016150704001900110D8F78095D1
:101E900090958E0F9F1F0895DC01FC01672F7191B3
:101EA0007723E1F7329704C07C916D937083629140
:101EB000AE17BF07C8F308950F931F93CF93DF9317
:101EC0008C01EB018B8181FF1BC082FF0DC02E8135
:101ED0003F818C819D812817390764F4E881F9815D
:101EE0000193F983E88306C0E885F985802F099579
:101EF000892B31F48E819F8101969F838E8302C04E
:101F00000FEF1FEFC801DF91CF911F910F9108953F
:101F1000FA01AA27283051F1203181F1E8946F931A
:101F20006E7F6E5F7F4F8F4F9F4FAF4FB1E03ED0C0
:101F3000B4E03CD0670F781F891F9A1FA11D680F5E
:101F4000791F8A1F911DA11D6A0F711D811D911D91
:101F5000A11D20D009F468943F912AE0269F112406
:101F60003019305D3193DEF6CF010895462F47706A
:101F7000405D4193B3E00FD0C9F7F6CF462F4F70C5
:101F8000405D4A3318F0495D31FD4052419302D023
:101F9000A9F7EACFB4E0A6959795879577956795C9
:101FA000BA95C9F700976105710508959B01AC01C9
:101FB0000A2E06945795479537952795BA95C9F7F0
:101FC000620F731F841F951FA01D0895A1E21A2E92
:101FD000AA1BBB1BFD010DC0AA1FBB1FEE1FFF1FCD
:101FE000A217B307E407F50720F0A21BB30BE40B1D
:101FF000F50B661F771F881F991F1A9469F7609564
:102000007095809590959B01AC01BD01CF0108951D
:04201000F894FFCF72
:102014005541525420436F6E6E65637465640020AD
:10202400257320000D0000000001000000000000E6
:10203400EE0000000000000200000000DA000000D2
:102044000000000000000000000000010202030381
:102054000303040404040404040405050505050538
:102064000505050505050505050506060606060616
:1020740006060606060606060606060606060606FC
:1020840006060606060606060606070707070707E6
:1020940007070707070707070707070707070707CC
:1020A40007070707070707070707070707070707BC
:1020B40007070707070707070707070707070707AC
:1020C4000707070707070707070708080808080896
:1020D400080808080808080808080808080808087C
:1020E400080808080808080808080808080808086C
:1020F400080808080808080808080808080808085C
:10210400080808080808080808080808080808084B
:10211400080808080808080808080808080808083B
:10212400080808080808080808080808080808082B
:10213400080808080808080808080808080808081B
:0A2144000808080808080808080841
:00000001FF
