:100000000C943E000C945B000C9407010C945B0074
:100010000C945B000C945B000C945B000C945B00F4
:100020000C945B000C945B000C945B000C945B00E4
:100030000C945B000C945B000C945B000C945B00D4
:100040000C945B000C945B000C945B000C945B00C4
:100050000C945B000C945B000C945B000C945B00B4
:100060000C945B000C945B000C945B000C945B00A4
:100070000C945B000C945B000C945B0011241FBE7D
:10008000CFEFD0E1DEBFCDBF11E0A0E0B1E0E4E30F
:10009000F5E002C005900D92A230B107D9F711E04A
:1000A000A2E0B1E001C01D92A537B107E1F70E94BF
:1000B000A0000C9498020C940000DC01FB0140832A
:1000C000569556955C9308959C0180910301482FA5
:1000D00050E0833010F48B5F01C0835080930301A4
:1000E000882319F485E080930301042E02C036951D
:1000F00027950A94E2F7542F44275295550F507EC6
:10010000240F351FC9010895DF93CF930F92CDB708
:10011000DEB7382F330F330F20E0C901860F971F4A
:100120000E94640089839695969581E0692FAE01BF
:100130004F5F5F4F0E9472020F90CF91DF91089541
:100140000F931F93CF93DF930E941C02789485E056
:100150008093030180E060E070E00E948400C0E0D2
:10016000D0E00CE211E00E94B401219680E197E218
:10017000F8013197F1F70197D9F781E0BE010E94AC
:100180008400F1CF2C989EBD0DB407FEFDCF8EBD2F
:100190000DB407FEFDCF2C9A08952C989EBD0DB48A
:1001A00007FEFDCF3EB58EBD0DB407FEFDCF2EB5CB
:1001B000932F80E02C9A30E0282B392BC901089529
:1001C0002C981EBC0DB407FEFDCF2C9A8EB5089559
:1001D0002C988EBD0DB407FEFDCF6EBD0DB407FE8D
:1001E000FDCF2C9A08952C9880EB8EBD0DB407FEA0
:1001F000FDCF1EBC0DB407FEFDCF2C9A8EB5089521
:10020000259A279A249A269881E58CBD089578949A
:100210001F920F920FB60F9211241F932F933F93AB
:100220004F935F936F937F938F939F93AF93BF93FE
:10023000EF93FF93E9980E94E00087FF82C08091CE
:1002400004018130F1F0813020F0823009F06FC07C
:1002500054C011E0109307010E94F300982F80937F
:1002600002019D5F909306019350E0910801F09187
:1002700009018081882309F05AC0109304019183F9
:1002800060C090910701809106019817E0F40E94E8
:10029000F3009091020198279093020120910701A9
:1002A000213238F4E0910801F0910901E20FF11DCB
:1002B000818380910701823011F49F3FC1F58F5FE8
:1002C000809307013EC0E0910801F091090182E0AE
:1002D000808380910C0190E0019681709070282FAE
:1002E00080930C0182E2289F90011124225F3E4FEF
:1002F00030930901209308011AC090910701809161
:100300000601981750F4E92FF0E0EE5AFE4F608195
:100310009F5F9093070188EB12C01092050181E85E
:1003200092E80E94C20088EB6AEA0E94E8001092FC
:1003300004018AEC61E80E94E8008AEC63E80E940C
:10034000E800E99AFF91EF91BF91AF919F918F9152
:100350007F916F915F914F913F912F911F910F90DE
:100360000FBE0F901F901895809104018823B1F55E
:10037000E99880E090E00E94CD00E99A90FF04C0E7
:1003800088EC809300010895809100018150809352
:100390000001882319F581E0809300018091050117
:1003A0008130E1F4E99881E092E80E94C2008091F6
:1003B00054018A5F809306011092070182E08093C6
:1003C00004018AEA98EB0E94C2008AEA98EB0E9434
:1003D000C20081E292E80E94C200E99A0895982F33
:1003E00080910501882311F083E008956093540102
:1003F00090935501692760956093560181E0809341
:10040000050180E80895E0910A01F0910B01108246
:1004100080910D0190E0019681709070282F80935B
:100420000D0182E2289F90011124225F3E4F3093FC
:100430000B0120930A0108952C9A249A0E9400012E
:1004400087ED90E80E94C20081E092E80E94C2001D
:1004500086EF94EA0E94C20083E296EC0E94C200FA
:100460008CE294E90E94C2008BEA92EC0E94C200E6
:1004700081E89AEC0E94C20087EF94EC0E94C200CF
:1004800080E798E90E94C20080E098EC0E94C200D8
:1004900080E090EE0E94C2008DE28093520184EDD4
:1004A000809353018EE091E090930B0180930A01B9
:1004B000909309018093080181E892E80E94C200AC
:1004C00085B7886085BF80E090E00E94CD00E19A0A
:1004D00081E89AEC0E94C20083E89AEC0E94C20074
:1004E000E99A08950F931F93182F062F8F3110F05C
:1004F00082E012C080910501882311F083E00CC0D6
:1005000027E531E0C901BA01412F50E00E948F0276
:10051000802F612F0E94EF011F910F910895FB0121
:10052000DC0102C001900D9241505040D8F708956F
:04053000F894FFCF6D
:020534001000B5
:00000001FF
