:100000000C94C5000C94E2000C94E2000C94E20005
:100010000C94E2000C94E2000C94E2000C94E200D8
:100020000C94E2000C94E2000C94E2000C94E200C8
:100030000C94E2000C94E2000C94E2000C94E200B8
:100040000C94E2000C94E2000C94E2000C94E200A8
:100050000C94E2000C94E2000C94E2000C94E20098
:100060000C94E2000C94E2000C94E2000C94E20088
:100070000C94E2000C94E2000C94E2006E616E00BD
:10008000696E660000407A10F35A00A0724E18099B
:100090000010A5D4E80000E87648170000E40B54EF
:1000A000020000CA9A3B000000E1F50500008096BE
:1000B0009800000040420F000000A08601000000F0
:1000C000102700000000E8030000000064000000AA
:1000D00000000A00000000000100000000002C7673
:1000E000D888DC674F0823DFC1DFAE59E1B1B7968E
:1000F000E5E3E453C63AE651997696E8E6C28426EB
:10010000EB898C9B62ED407C6FFCEFBC9C9F40F2C6
:10011000BAA56FA5F490055A2AF75C936B6CF96742
:100120006DC11BFCE0E40D47FEF520E6B500D0ED07
:10013000902E0300943577050080841E080000206F
:100140004E0A000000C80C333333330F986E12830D
:100150001141EF8D2114893BE65516CFFEE6DB18E1
:10016000D1844B381BF77C1D901DA4BBE4242032A6
:1001700084725E228100C9F124ECA1E53D2763640D
:10018000696E6F70737578585B0011241FBECFEFD6
:10019000D0E1DEBFCDBF11E0A0E0B1E0EEE7F4E1D9
:1001A00002C005900D92AC35B107D9F711E0ACE56E
:1001B000B1E001C01D92A236B107E1F70E94A1048F
:1001C0000C943D0A0C940000CF93C82F8A3019F488
:1001D0008DE00E94E4008091C00085FFFCCFC093B9
:1001E000C6002C2F332727FD30958C2F932FCF91CE
:1001F00008958091C00087FFFCCF8091C60090E0F9
:1002000008951092C5008DE48093C40088E1809326
:10021000C10086E08093C20080E091E090935F018E
:1002200080935E0190936101809360018EE091E084
:1002300090935D0180935C010895A3E1B0E0E3E257
:10024000F1E00C94E5047C015B018A01FC0117825A
:100250001682838181FD03C06DC3860105C0882499
:100260008394912C8C0E9D1EF7019381F50193FDD3
:10027000859193FF81915F01882309F457C38532EB
:1002800039F493FD859193FF81915F01853231F4BB
:10029000B70190E00E940A066801DFCF412C512C83
:1002A00020E02032A8F48B3261F028F4803251F043
:1002B000833271F40BC08D3239F0803349F4216000
:1002C00028C02260246025C0286023C0206121C08E
:1002D00027FD27C0382F30533A3078F426FF06C068
:1002E000FAE04F9E300D1124432E13C08AE0589E31
:1002F000300D1124532E20620CC08E3221F426FDC5
:1003000015C3206406C08C3611F4206802C08836FC
:1003100041F4F50193FD859193FF81915F01811176
:10032000C0CF982F9554933018F42061805E06C09A
:10033000982F9556933008F0A1C12F7E26FD02C05C
:1003400056E0452E4FE3742E7222853619F4F0E400
:100350007F2A07C0863619F420E8722A02C04110AD
:100360004A9477FE07C03BE3341548F0342C3394AD
:1003700027E00DC087E0841530F0242D07C027E06A
:100380003CE3332E04C027E097E0492E312C68016E
:1003900094E0C90ED11CF801608171818281938142
:1003A000032DA4010E941C058C0129812C8720FFAC
:1003B00002C023FF07C071FC08C072FE09C080E2C2
:1003C000682E07C0BDE26B2E04C0ABE26A2E01C0EE
:1003D000612C8C858C70A1F1662011F084E001C045
:1003E00083E0851510F0512C0BC0581A73FC08C01F
:1003F000B70180E290E00E940A065A94C9F7F3CF51
:10040000662029F0B701862D90E00E940A063C85FF
:1004100033FD03C000E810E00CC00CE710E009C099
:1004200071108052B70190E00E940A060F5F1F4FC3
:1004300002C080E17822F80184918111F1CF73C26A
:1004400077FE0EC0300E2C8524FF04C08A818133D4
:1004500009F43A9413144CF538E0331548F12CC0E4
:1004600076FC2AC0242D30E02017310744F00C3FE1
:100470008FEF180724F090E8792A01C04A944420AD
:1004800049F0E2E0F0E0EC0FFD1FE40DF11D80818A
:100490008033A1F377FE10C0342C3394242D30E048
:1004A0000217130744F4401A07C03324339404C0DE
:1004B000F8E03F2E01C0412C77FE07C01016110650
:1004C0003CF498012F5F3F4F05C025E030E002C0AB
:1004D00021E030E0662011F02F5F3F4F442031F0E3
:1004E000442D50E04F5F5F4F240F351F452D50E0E6
:1004F0002417350714F4521A01C0512C872D897026
:1005000049F406C0B70180E290E00E940A065A94BE
:100510005110F8CF662029F0B701862D90E00E9497
:100520000A0673FC09C006C0B70180E390E00E9490
:100530000A065A945110F8CF77FE53C0380117FFBE
:1005400002C0612C712C1E861D8698012319310969
:10055000388B2F87180126183708280C391C642D72
:1005600070E022273327261B370B3A8B298B3FEF6E
:100570006316730629F4B7018EE290E00E940A0622
:10058000061517055CF02F8538892615370534F4D4
:10059000ED85FE85E20DF31D818101C080E331E030
:1005A000631A71082D853E852F5F3F4F3E872D874B
:1005B00029893A89621673062CF0B70190E00E94EF
:1005C0000A06D5CF6016710649F49A81963328F44D
:1005D000953321F43C8534FD01C081E3B70190E0FF
:1005E0004AC08A81813319F02C852F7E2C87B70170
:1005F00090E00E940A06411005C074FE16C085E412
:1006000090E015C0B7018EE290E00E940A06E2E099
:100610006E2EF401E60DF11D6394B701808190E028
:100620000E940A064A94A9F7E8CF85E690E0B70150
:100630000E940A0617FD06C00115110541F43C850C
:1006400034FF05C01195019511098DE201C08BE2BF
:10065000B70190E00E940A0680E303C08F5F0A5052
:1006600011090A301105D4F7B70190E00E940A067B
:10067000B701C801C0960E940A0655C1833631F001
:10068000833781F0833509F05EC024C0680182E0C1
:10069000C80ED11CF8018081898366246394712C73
:1006A000840114C06801F2E0CF0ED11CF801008172
:1006B000118126FF03C0642D70E002C06FEF7FEF51
:1006C000C8012B8B0E94FF053C012B896FE7462E4A
:1006D000422217C06801F2E0CF0ED11CF801008160
:1006E000118126FF03C0642D70E002C06FEF7FEF21
:1006F000C8012B8B0E94F4053C012B8950E8452E44
:10070000422A43FC1CC006C0B70180E290E00E9470
:100710000A065A94852D90E068167906A8F30FC052
:10072000F80147FC859147FE81918F01B70190E068
:100730000E940A0651105A94F1E06F1A7108611470
:10074000710471F7F0C0843611F0893661F56801E3
:1007500027FF09C034E0C30ED11CF801608171810C
:10076000828193810AC0F2E0CF0ED11CF801608132
:100770007181882777FD8095982F4FE6742E72221D
:1007800097FF09C090958095709561957F4F8F4F29
:100790009F4FF0E87F2A2AE030E0A4010E949306F0
:1007A000682E681847C0853731F43FEE732E7222E9
:1007B0002AE030E024C099EF792E72228F36B9F00A
:1007C00020F4883509F0B2C00DC0803721F0883799
:1007D00009F0ACC002C020E1722A74FE0BC034E004
:1007E000732A08C024FF09C086E0782A06C028E0E2
:1007F00030E005C020E130E002C020E132E06801D5
:1008000077FE09C094E0C90ED11CF80160817181A6
:100810008281938108C0F2E0CF0ED11CF801608183
:10082000718180E090E0A4010E949306682E681810
:10083000FFE77F2276FE0BC0072D0E7F641450F475
:1008400074FE0AC072FC08C0072D0E7E05C0162D6E
:10085000072D03C0162D01C0142D04FF0CC0FE018E
:10086000E60DF11D8081803311F4097E08C002FF7E
:1008700005C01E5F04C0802F867809F01F5F03FD4E
:1008800012C000FF0DC0462C151550F4450C411A3E
:10089000152D06C0B70180E290E00E940A061F5F96
:1008A0001515C0F304C0151510F4511A01C0512CD0
:1008B00004FF10C0B70180E390E00E940A0602FF27
:1008C0001EC001FF03C088E590E002C088E790E009
:1008D000B7010CC0802F867891F001FD02C080E244
:1008E00001C08BE207FD8DE2B70190E00E940A068D
:1008F00006C0B70180E390E00E940A064A9464149F
:10090000C0F36A94F401E60DF11DB701808190E017
:100910000E940A066110F5CF06C0B70180E290E0A0
:100920000E940A065A945110F8CF97CCF7012681FD
:10093000378102C02FEF3FEFC9016396E2E10C94CB
:100940000105CF93DF93CDB7DEB7CA5CD1090FB6EF
:10095000F894DEBF0FBECDBF0E9401018CE191E093
:100960000E944D06C12CD12C7E0129ECE20EF11C17
:100970008E010F5F1F4F83E3882E81E0982E99E34D
:10098000A92E91E0B92EFF92EF921F930F939F92A1
:100990008F920E947C063601EFEF6E1A7E0A9F93BB
:1009A0008F93F70181818F9380818F931F930F9392
:1009B000DF92CF92BF92AF920E9436060FB6F894A4
:1009C000DEBF0FBECDBF6301DECF2F923F924F92AD
:1009D0005F926F927F928F929F92AF92BF92CF92CF
:1009E000DF92EF92FF920F931F93CF93DF93CDB7D8
:1009F000DEB7CA1BDB0B0FB6F894DEBF0FBECDBF50
:100A000009942A88398848885F846E847D848C8420
:100A10009B84AA84B984C884DF80EE80FD800C8129
:100A20001B81AA81B981CE0FD11D0FB6F894DEBF0C
:100A30000FBECDBFED010895283008F027E0332721
:100A4000DA01990F311D87FD9160009661057105EE
:100A500039F432602E5F3D9330E32A95E1F7089533
:100A60009F3F30F080387105610509F03C5F3C5FC5
:100A70003D93913008F08068911DDF93CF931F93D1
:100A80000F93FF92EF92192F987F9695E92F9695E5
:100A90009695E90FFF27E252FF4F99273327EE245F
:100AA000FF24A701E70105900894079428F4360F66
:100AB000E71EF81E491F511D660F771F881F991FDB
:100AC0000694A1F70590079428F4E70EF81E491F35
:100AD000561FC11D770F881F991F661F0694A1F727
:100AE0000590079428F4F80E491F561FC71FD11D03
:100AF000880F991F661F771F0694A1F7059007942A
:100B000020F4490F561FC71FD81F990F661F771F64
:100B1000881F0694A9F784911095177041F0D69517
:100B2000C79557954795F794E7941A95C1F7E4E868
:100B3000F0E0689415901591359165919591059027
:100B40007FE27395E118F10A430B560BC90BD009EC
:100B5000C0F7E10CF11E431F561FC91FD01D7EF4C4
:100B6000703311F48A95E6CFE894015030F0080F05
:100B70000AF40027021708F4202F2395022F7A3356
:100B800028F079E37D932A95E9F710C07D932A95A3
:100B900089F6069497956795379517951794E118F8
:100BA000F10A430B560BC90BD00998F023957E919F
:100BB00073957A3308F070E37C932013B8F77E9135
:100BC00070617D9330F0839571E37D9370E32A9596
:100BD000E1F71124EF90FF900F911F91CF91DF91DA
:100BE000992787FD90950895FC010590615070400C
:100BF0000110D8F7809590958E0F9F1F0895FC01E6
:100C00006150704001900110D8F7809590958E0F3B
:100C10009F1F08950F931F93CF93DF938C01EB01D8
:100C20008B8181FD03C00FEF1FEF1AC082FF0DC043
:100C30002E813F818C819D812817390764F4E881DA
:100C4000F9810193F983E88306C0E885F985802F4F
:100C50000995892B41F78E819F8101969F838E8311
:100C6000C801DF91CF911F910F910895A2E0B0E0EC
:100C7000ECE3F6E00C94F504FE0137966191719176
:100C8000FA83E983AF0180915E0190915F010E9438
:100C90001D012296E2E00C9411050F931F93CF9350
:100CA000DF938C01E0915E01F0915F01838181FF10
:100CB0001BC0C0E0D0E005C00995892B11F0CFEF33
:100CC000DFEFF80181918F0160915E0170915F010A
:100CD000DB011896ED91FC9119978111EDCF8AE017
:100CE0000995892B09F402C0CFEFDFEFCE01DF9128
:100CF000CF911F910F910895A2E0B0E0E2E8F6E0F5
:100D00000C94F504FE01379661917191FA83E983A1
:100D1000AF0180915C0190915D010E949E08229636
:100D2000E2E00C941105FA01AA27283051F1203194
:100D300081F1E8946F936E7F6E5F7F4F8F4F9F4F6F
:100D4000AF4FB1E03ED0B4E03CD0670F781F891FB1
:100D50009A1FA11D680F791F8A1F911DA11D6A0F7F
:100D6000711D811D911DA11D20D009F468943F9132
:100D70002AE0269F11243019305D3193DEF6CF0131
:100D80000895462F4770405D4193B3E00FD0C9F7F7
:100D9000F6CF462F4F70405D4A3318F0495D31FD64
:100DA0004052419302D0A9F7EACFB4E0A6959795B7
:100DB000879577956795BA95C9F70097610571058D
:100DC00008959B01AC010A2E0694579547953795D7
:100DD0002795BA95C9F7620F731F841F951FA01D31
:100DE000089520FD09C0FC0123FD05C022FF02C0BB
:100DF00073836283518340830895CF92DF92EF9291
:100E0000FF920F931F9344FD10C046FD10C0DB01FD
:100E1000FC01AA0FBB1FEE1FFF1F1094D1F76A0F32
:100E20007B1F8E1F9F1F31E003C033E001C034E001
:100E3000660F771F881F991F3150D1F76B017C0116
:100E4000C20ED11CE11CF11C97018601B601C9013B
:100E50001F910F91FF90EF90DF90CF9008950F9327
:100E60001F93CF93DF938C01C8010E94DF09EC012F
:100E700097FD08C00E94CC09892BB1F7B801CE01BB
:100E80000E941F0ACE01DF91CF911F910F9108950B
:100E90008F929F92AF92CF92DF92EF92FF920F9339
:100EA0001F93CF93DF93EC01A62E4A01022F0E94DD
:100EB000DF09FC01FF27EB32F10519F0BD9751F472
:100EC0000068AA9411F480E063C0CE010E94DF099B
:100ED00097FDF9CF102F1D7F302F3073E1F4803351
:100EE000D1F4AA9409F440C0CE010E94DF0997FD15
:100EF0003BC0883711F0883549F41264AA94A1F1F7
:100F0000CE010E94DF0997FF06C02EC006FF02C077
:100F1000126001C01261C12CD12C7601282F205300
:100F2000283080F014FF04C0BE010E941F0A19C0BF
:100F30002A3040F016FFF8CF2F7D322F3151363056
:100F400098F72750412FC701B6010E94FD066B019B
:100F50007C011260AA9459F0CE010E94DF0997FF2C
:100F6000DDCF11FD04C0AFCFC12CD12C760117FF0E
:100F700008C0F094E094D094C094C11CD11CE11C32
:100F8000F11C212FB701A601C4010E94F10681E0E6
:100F9000DF91CF911F910F91FF90EF90DF90CF9055
:100FA000AF909F908F9008956F927F929F92AF9293
:100FB000BF92CF92DF92EF92FF920F931F93CF9346
:100FC000DF93CDB7DEB7A1970FB6F894DEBF0FBEA3
:100FD000CDBF6C017A018901FE01319680E2DF010B
:100FE0001D928A95E9F7D60113969C9020E030E097
:100FF000A12CA0E0B12CCF0141E050E0F80193FC1E
:10100000759193FE71918F01711103C000E010E0A2
:1010100080C07E3519F42115310559F1EB2DF0E032
:10102000E217F3073CF47D3569F17D3219F4AA2308
:1010300019F103C0A11101C0A72EE72FE695E6958F
:10104000E6953C016E0E711CF301A72FA7703A01C3
:1010500002C0660C771CAA95E2F7D301B081BA2BC7
:10106000B0837A1559F07A1510F47F5FE6CF71508E
:10107000E4CFBB24B39403C0A1E001C0A0E02F5F84
:101080003F4FBCCFAA2319F08E8180628E83B110AE
:1010900003C0BB24B3940BC0FE013196CE018196F0
:1010A000208120952193E817F907D1F7F2CFC601E7
:1010B00069A30E94DF0969A197FD24C0282F269506
:1010C00026952695E1E0F0E0EC0FFD1FE20FF11D03
:1010D000208130E0AC014770552702C03595279537
:1010E0004A95E2F720FD04C0B6010E941F0A0AC01B
:1010F000E114F10419F0D7018D937D016150B12CF9
:10110000B1F602C0B11082CFE114F10411F0F70181
:101110001082C801A1960FB6F894DEBF0FBECDBFF6
:10112000DF91CF911F910F91FF90EF90DF90CF90C3
:10113000BF90AF909F907F906F9008954F925F9275
:101140007F928F929F92AF92BF92CF92DF92EF9257
:10115000FF920F931F93CF93DF931F92CDB7DEB70C
:101160008C012B015A01FC0117821682812CF0C0E0
:101170008E2D90E00E94CC09892B21F0C8010E949D
:101180002F07E6C0F5E2EF120AC0F201F3FC359139
:10119000F3FE31912F01353271F455E2E52EC8018D
:1011A0000E94DF0997FDDFC0E81609F4D1C0B8013D
:1011B0000E941F0ADAC03A3241F4F3FC3591F3FE83
:1011C00031912F019924939401C0912C712C10C05E
:1011D000F2E09F2A672D70E080E090E040E20E94FC
:1011E000FD06762EF201F3FC3591F3FE31912F01CD
:1011F000232F20532A3060F391FE03C0711003C0E7
:10120000B4C077247A94383619F03C3699F40AC081
:10121000F201F3FC3591F3FE31912F01383651F490
:10122000F8E09F2A84E0982AF201F3FC3591F3FE5E
:1012300031912F01332309F498C0632F70E08EE7BA
:1012400091E039830E94D4093981892B09F48DC03A
:1012500090FC07C0F501E080F18082E0A80EB11C8F
:1012600002C0E12CF12C3E3651F4F8014681578141
:1012700060E070E0292DC7010E94F10669C0333695
:1012800091F491FC02C077247394C8010E94DF0995
:1012900097FD69C0E114F10419F0F70181937F0112
:1012A0007A9499F753C03B3559F49201A701672D01
:1012B000C8010E94D4072C01009709F047C041C023
:1012C000C80139830E942F07398197FD4CC03F36F2
:1012D00059F128F4343629F1393649F52AC0333723
:1012E00019F0353721F51DC0C8010E94DF096C01D6
:1012F00097FD11C00E94CC09892B29F0B801C601C5
:101300000E941F0A08C0E114F10419F0F701C1920C
:101310007F017A9449F7E114F104C1F0F7011082DA
:1013200015C0F0E29F2A05C080E1982A02C090E42F
:10133000992A292DA701672DC8010E94480781110C
:1013400005C0F8018381807371F40FC090FE83940F
:10135000F801F380F201F3FCE590F3FEE1902F0138
:10136000E11006CF02C0882019F0282D30E002C01D
:101370002FEF3FEFC9010F90DF91CF911F910F9198
:10138000FF90EF90DF90CF90BF90AF909F908F90A5
:101390007F905F904F90089591116CC0803219F04A
:1013A00089508550D0F70895FC010590061621F06C
:1013B0000020D9F7C00108953197CF010895CF9348
:1013C000DF93EC013B8130FF34C036FF0AC03F7B26
:1013D0003B838E819F8101969F838E832A8130E09B
:1013E0002AC032FF0FC0E881F9818081992787FDEB
:1013F0009095009719F430623B831BC03196F983B6
:10140000E8830EC0EA85FB85099597FF09C02B810B
:10141000019611F480E101C080E2822B8B8309C028
:101420002E813F812F5F3F4F3F832E839C013327C7
:1014300002C02FEF3FEFC901DF91CF910895FB016B
:10144000238120FF13C026FD11C08F3F3FEF93077C
:1014500069F082832F7D2064238326813781215088
:101460003109378326839C01332702C02FEF3FEFDA
:0E147000C9010895992788270895F894FFCFA1
:10147E000000000200000000E40000000000000078
:10148E000001000000000000F90000000D0A496C88
:10149E004D6174746F20436F6D73205245414459F2
:1014AE00210D00257320257500253034643A204324
:1014BE004D44207761733A20222573222077697478
:0C14CE006820256420282564290D0A00F0
:00000001FF
