:100000000C943E000C945B000C945B000C945B0021
:100010000C945B000C945B000C945B000C945B00F4
:100020000C945B000C945B000C945B000C945B00E4
:100030000C945B000C945B000C945B000C945B00D4
:100040000C945B000C945B000C945B000C945B00C4
:100050000C945B000C945B000C945B000C945B00B4
:100060000C945B000C945B000C945B000C945B00A4
:100070000C945B000C945B000C945B0011241FBE7D
:10008000CFEFD0E1DEBFCDBF11E0A0E0B1E0EAE408
:10009000F9E002C005900D92AE38B107D9F711E032
:1000A000AEE8B1E001C01D92A439B107E1F70E94AA
:1000B0009A010C94A3040C9400001F93182F8A300B
:1000C00019F48DE00E945D008091C00085FFFCCF97
:1000D0001093C600212F332727FD3095C9011F91AA
:1000E00008958091C00087FFFCCF8091C60090E00A
:1000F00008951092C5008DE48093C40088E1809338
:10010000C10086E08093C20080E891E09093910165
:1001100080939001909393018093920182E791E004
:1001200090938F0180938E01089584E38093B800AB
:100130001092B900089584E98093BC0008958093DB
:10014000BB0084E88093BC008091BC0087FFFCCF9B
:10015000089584EC8093BC008091BC0087FFFCCFA5
:100160008091BB00089584E88093BC008091BC001E
:1001700087FFFCCF8091BB00089584EA8093BC0088
:1001800008C0609192017091930180E091E00E941B
:10019000F2018091BC0087FFF4CF08951F93609116
:1001A00092017091930188E091E00E94F2010E9417
:1001B000BD00609192017091930186E191E00E94EF
:1001C000F20180ED8093BB0084E88093BC008091B5
:1001D000BC0087FFFCCF609192017091930181E296
:1001E00091E00E94F20184EC8093BC008091BC00FD
:1001F00087FFFCCF8091BB006091920170919301C9
:100200008AE291E00E94F20183E48093BB0084E8DB
:100210008093BC008091BC0087FFFCCF84EC80936E
:10022000BC008091BC0087FFFCCF8091BB000E9486
:10023000BD0081ED8093BB0084E88093BC00809179
:10024000BC0087FFFCCF84EC8093BC008091BC0095
:1002500087FFFCCF1091BB006091920170919301D8
:1002600087E391E00E94F20100D000D000D0EDB70A
:10027000FEB731968091920190919301ADB7BEB7D0
:1002800012969C938E93119788E491E093838283D6
:10029000148315820E94B2018DB79EB706960FB6E1
:1002A000F8949EBF0FBE8DBF609192017091930133
:1002B0008AE090E00E94C60184E88093BC008091AF
:1002C000BC0087FFFCCF1091BB0060919201709140
:1002D00093018BE491E00E94F20100D000D000D0A5
:1002E000EDB7FEB731968091920190919301ADB731
:1002F000BEB712969C938E93119788E491E09383F6
:100300008283148315820E94B2018DB79EB7069630
:100310000FB6F8949EBF0FBE8DBF60919201709191
:1003200093018AE090E00E94C60184E98093BC00BA
:100330001F9108950E94790084E38093B800109281
:10034000B90060919201709193018DE591E00E9456
:10035000F2010E94CE0060919201709193018DE6AE
:1003600091E0F5CFA0E0B0E0E8EBF1E00C947C0484
:100370009E01275F3F4F8D819E816F817885A90106
:100380000E941B022096E2E00C9498040F931F93A6
:10039000CF93DF938C01EB018B8181FF1BC082FF28
:1003A0000DC02E813F818C819D812817390764F40F
:1003B000E881F9810193F983E88306C0E885F9852E
:1003C000802F0995892B31F48E819F8101969F831F
:1003D0008E8302C00FEF1FEFC801DF91CF911F91F5
:1003E0000F910895EF92FF920F931F93CF93DF9396
:1003F0007C018B01DB0113968C9181FD03C0CFEF53
:10040000DFEF13C0C0E0D0E00BC0D8011896ED912B
:10041000FC911997B8010995892B11F0CFEFDFEF07
:10042000F70181917F01882381F7CE01CDB7DEB737
:10043000E6E00C949404ABE0B0E0E1E2F2E00C946E
:100440006C043C012B015A01FC0117821682838146
:1004500081FD03C06FEF7FEFC6C19AE0892E1E01B8
:100460000894211C311CF3012381F20123FD8591A5
:1004700023FF81912F01882309F4B2C1853239F419
:1004800023FD859123FF81912F01853229F490E08E
:10049000B3010E94C601E7CF982FFF24EE249924D0
:1004A000FFE1FF15D0F09B3269F09C3228F49032C6
:1004B00059F0933291F40EC09D3249F0903369F4B3
:1004C00041E024C052E0F52A84E0F82A28C098E0F0
:1004D000F92A25C0E0E1FE2A22C0F7FC29C0892FB5
:1004E00080538A3070F4F6FE05C0989C902C11243D
:1004F000980E15C0E89CE02C1124E80EF0E2FF2ACB
:100500000EC09E3229F4F6FC6BC140E4F42A07C009
:100510009C3619F450E8F52A02C0983649F4F201E5
:1005200023FD959123FF91912F01992309F0B8CFD5
:10053000892F8554833018F08052833038F444E09A
:1005400050E0A40EB51E5FE359830FC0933631F01F
:10055000933779F0933509F056C020C0F5018081BA
:10056000898342E050E0A40EB51E610101E010E075
:1005700012C0F501C080D180F6FC03C06FEF7FEFA1
:1005800002C0692D70E042E050E0A40EB51EC60125
:100590000E9403048C015FE7F52214C0F501C080BE
:1005A000D180F6FC03C06FEF7FEF02C0692D70E0D1
:1005B00042E050E0A40EB51EC6010E94F8038C0173
:1005C00050E8F52AF3FE07C01AC080E290E0B301BC
:1005D0000E94C601EA948E2D90E008171907A8F32F
:1005E0000EC0F601F7FC8591F7FE81916F0190E056
:1005F000B3010E94C601E110EA94015010400115B8
:10060000110579F7EAC0943611F0993669F5F7FECD
:1006100008C0F501208131814281538184E090E05E
:100620000AC0F501808191819C01442737FD4095E6
:10063000542F82E090E0A80EB91E9FE6F92257FFE2
:1006400009C050954095309521953F4F4F4F5F4FD2
:10065000E0E8FE2ACA01B901A1012AE030E00E94C7
:100660000E04D82ED21840C0953729F41F2D1F7EB6
:100670002AE030E01DC01F2D197F9F3661F09037B2
:1006800020F4983509F0ACC00FC0903739F0983796
:1006900009F0A6C004C028E030E00AC0106114FDD3
:1006A000146020E130E004C014FD166020E132E067
:1006B00017FF08C0F501608171818281938144E058
:1006C00050E008C0F50180819181BC0180E090E09C
:1006D00042E050E0A40EB51EA1010E940E04D82EE7
:1006E000D2188FE7F82EF122F6FE0BC05EEFF5224E
:1006F000D91438F4F4FE07C0F2FC05C08FEEF822DE
:1007000002C01D2D01C0192DF4FE0DC0FE01ED0D1E
:10071000F11D8081803319F499EEF92208C01F5F22
:10072000F2FE05C003C08F2D867809F01F5F0F2DE4
:10073000F3FC14C0F0FE0FC01E1510F09D2C0BC072
:100740009D2C9E0C911A1E2D06C080E290E0B301F4
:100750000E94C6011F5F1E15C0F304C01E1510F4D1
:10076000E11A01C0EE2404FF0FC080E390E0B30162
:100770000E94C60102FF1DC001FD03C088E790E092
:100780000EC088E590E00BC0802F867891F001FFC5
:1007900002C08BE201C080E2F7FC8DE290E0B30181
:1007A0000E94C60106C080E390E0B3010E94C6012A
:1007B0009A94D914C0F3DA94F101ED0DF11D808102
:1007C00090E0B3010E94C601DD20A9F706C080E2D7
:1007D00090E0B3010E94C601EA94EE20C1F743CE37
:1007E000F30166817781CB012B96E2E10C948804BA
:1007F000FC010590615070400110D8F780959095EC
:100800008E0F9F1F0895FC016150704001900110F0
:10081000D8F7809590958E0F9F1F0895FA01AA270B
:10082000283051F1203181F1E8946F936E7F6E5F33
:100830007F4F8F4F9F4FAF4FB1E03ED0B4E03CD0E1
:10084000670F781F891F9A1FA11D680F791F8A1FC4
:10085000911DA11D6A0F711D811D911DA11D20D02B
:1008600009F468943F912AE0269F11243019305DE5
:100870003193DEF6CF010895462F4770405D4193D6
:10088000B3E00FD0C9F7F6CF462F4F70405D4A3323
:1008900018F0495D31FD4052419302D0A9F7EACFEB
:1008A000B4E0A6959795879577956795BA95C9F71A
:1008B00000976105710508959B01AC010A2E06940D
:1008C0005795479537952795BA95C9F7620F731FC6
:1008D000841F951FA01D08952F923F924F925F9203
:1008E0006F927F928F929F92AF92BF92CF92DF9240
:1008F000EF92FF920F931F93CF93DF93CDB7DEB7A5
:10090000CA1BDB0B0FB6F894DEBF0FBECDBF099438
:100910002A88398848885F846E847D848C849B848F
:10092000AA84B984C884DF80EE80FD800C811B819D
:10093000AA81B981CE0FD11D0FB6F894DEBF0FBECC
:0A094000CDBFED010895F894FFCF3C
:10094A004C4F4F50494E47007374617274696E6719
:10095A0020726561640073746172742073656E74C9
:10096A0000534C412073656E740041434B207265FD
:10097A0063656976656400646174612061667465A3
:10098A00722041434B3A200025640064617461205F
:10099A006166746572204E41434B3A2000554152BC
:1009AA005420636F6E6E65637465640A00756D6DBD
:1009BA000A000000000100000000000071000000B1
:0E09CA0000000002000000005D0000000000C0
:00000001FF
