:100000000C943E000C945B000C945B000C945B0021
:100010000C945B000C945B000C945B000C945B00F4
:100020000C945B000C945B000C945B000C945B00E4
:100030000C945B000C945B000C945B000C945B00D4
:100040000C945B000C945B000C945B000C945B00C4
:100050000C945B000C945B000C945B000C945B00B4
:100060000C945B000C945B000C945B000C945B00A4
:100070000C945B000C945B000C945B0011241FBE7D
:10008000CFEFD0E1DEBFCDBF11E0A0E0B1E0ECECFE
:10009000F1E002C005900D92AC32B107D9F711E042
:1000A000ACE2B1E001C01D92A233B107E1F70E94BA
:1000B00095000C94E4000C9400001F93182F8A30D4
:1000C00019F48DE00E945D008091C00085FFFCCF97
:1000D0001093C600212F332727FD3095C9011F91AA
:1000E00008958091C00087FFFCCF8091C60090E00A
:1000F00008951092C5008DE48093C40088E1809338
:10010000C10086E08093C2008DE191E090932F01C1
:1001100080932E0190933101809330018FE091E024
:1001200090932D0180932C0108950E947900609195
:1001300030017091310180E091E00E94A000F7CF82
:10014000EF92FF920F931F93CF93DF937C018B016C
:10015000DB0113968C9181FD03C0CFEFDFEF13C05D
:10016000C0E0D0E00BC0D8011896ED91FC91199732
:10017000B8010995892B11F0CFEFDFEFF7018191DD
:100180007F01882381F7CE01CDB7DEB7E6E00C947E
:10019000D5002A88398848885F846E847D848C8461
:1001A0009B84AA84B984C884DF80EE80FD800C81A2
:1001B0001B81AA81B981CE0FD11D0FB6F894DEBF85
:0C01C0000FBECDBFED010895F894FFCFF5
:1001CC004974277320576F726B696E67210A0000A0
:1001DC0000000100000000000071000000000000A1
:0C01EC0002000000005D000000000000A8
:00000001FF
