:100000000C94CB010C94F3010C94F3010C94F301C8
:100010000C94F3010C94F3010C94F3010C94F30190
:100020000C94F3010C94F3010C94F3010C94F30180
:100030000C94F3010C94F3010C94F3010C94F30170
:100040000C94F3010C94F3010C94F3010C94F30160
:100050000C94F3010C94F3010C94F3010C94F30150
:100060000C94F3010C94F3010C94F3010C94F30140
:100070000C94F3010C9419120C9435120200000038
:1000800000000001222020200000200152505000DA
:10009000000000015250F850F85050012278A07032
:1000A00028F02001C2C81020409818016290A0409A
:1000B000A89068016220400000000001122040402A
:1000C0004020100142201010102040010220A87092
:1000D000A8200001022020F82020000102000000DA
:1000E00000602041020000F8000000010200000052
:1000F000006060010208102040800001728898A80A
:10010000C8887001226020202020700172880810A9
:100110002040F801FA102010088870011230509029
:10012000F8101001FA80F00808887001324080F061
:1001300088887001FA081020404040017288887059
:1001400088887001728888780810600102606000F9
:100150006060000102606000602040011220408069
:10016000402010010200F800F800000142201008B1
:100170001020400172880810200020017288086851
:10018000A8A8700172888888F8888801F28888F0A9
:100190008888F0017288808080887001E290888869
:1001A0008890E001FA8080F08080F801FA8080F089
:1001B00080808001728880B8888878018A8888F871
:1001C0008888880172202020202070013A101010A9
:1001D000109060018A90A0C0A090880182808080E9
:1001E0008080F8018AD8A8A8888888018A88C8A849
:1001F000988888017288888888887001F28888F0D9
:100200008080800172888888A8906801F28888F0D0
:10021000A09088017A8080700808F001FA202020E0
:10022000202020018A888888888870018A888888A8
:10023000885020018A8888A8A8A850018A88502060
:10024000508888018A88885020202001FA081020D0
:100250004080F801724040404040700102804020E0
:100260001008000172101010101070012250880048
:1002700000000001020000000000F8014220100010
:100280000000000102007008788878018280B0C800
:100290008888F00102007080808870010A086898E0
:1002A0008888780102007088F8807001324840E048
:1002B0004040400102788888780870018280B0C888
:1002C00088888801220060202020700112003010F0
:1002D00010906001828090A0C0A090016220202038
:1002E000202070010200D0A8A8A8A8010200B0C870
:1002F0008888880102007088888870010200F08870
:10030000F080800102006898780808010200B0C8F7
:1003100080808001020070807008F0014240E0405F
:100320004048300102008888889868010200888867
:100330008850200102008888A8A850010200885037
:100340002050880102008888780870010200F810A7
:100350002040F801122020402020100122202020DF
:10036000202020014220201020204001020068901F
:1003700000000001020000000000000100505000D9
:10038000008870000050500000708800005050003D
:1003900088A85000A50C11241FBECFEFD0E1DEBF0E
:1003A000CDBF13E0A0E0B1E0E4ECFBE302C00590B8
:1003B0000D92A030B107D9F713E0A0E0B3E001C07F
:1003C0001D92A034B107E1F713E0C6E9D3E004C001
:1003D0002297FE010E94D218C439D107C9F70E94A2
:1003E000D20C0C94E01D0C940000FC0190930E03C1
:1003F00080930D03A081B1812D913C91F901099564
:10040000609308037093090380930A0390930B038E
:100410000895CF93DF939C01DC01EC91F0E0EE0FA7
:10042000FF1FE050FD4FC081D181A0910D03B0911D
:100430000E03ED91FC9111970280F381E02DCD0127
:10044000B901AE010995882311F4C0E0D0E0CE01D6
:10045000DF91CF910895FC0181819281A381B481C4
:1004600085839683A783B0871186128613861486A8
:100470000895CF93DF93EC018FEF80930F032097C4
:1004800081F08881823068F4E82FF0E080910C03DD
:1004900090E00E2E02C0959587950A94E2F780FDB4
:1004A00003C02FEF3FEF24C010920F03EE0FFF1F8A
:1004B000EC5FFC4F808191810E948319E881F0E01C
:1004C000EE0FFF1FE050FD4F808191810E94831944
:1004D00081E090E0088002C0880F991F0A94E2F73B
:1004E000809520910C03282320930C0320E030E01A
:1004F000C901DF91CF9108956F927F928F929F9261
:10050000AF92BF92CF92DF92EF92FF920F931F9321
:10051000DF93CF93CDB7DEB7C050D1400FB6F8947C
:10052000DEBF0FBECDBF5C01009709F4CCC0DC017B
:100530008C91882309F4C7C0809108039091090326
:10054000A0910A03B0910B030097A105B10511F426
:1005500087E038C020910C0320FD04C000E010E0CB
:10056000DD2406C021FD2DC001E010E0DD24D39480
:1005700081E090E0002E02C0880F991F0A94E2F7F4
:10058000282B20930C038DE090E00E94D618000FDA
:10059000111F54E0E52E53E0F52EE00EF11EF70199
:1005A00091838083009759F089E091E00E94D618EA
:1005B00000501D4FD8018D939C93009741F486E025
:1005C00001C083E080930F03EE24FF249FC0D70176
:1005D000ED91FC91D082ED2DF0E0EE0FFF1FEC5F6E
:1005E000FC4FE080F180F50180818F32B9F4A09159
:1005F0000D03B0910E03ED91FC9111970190F081E4
:10060000E02DCD010995D70111966D937D938D93C2
:100610009C9314970894A11CB11C0DC080910803F1
:1006200090910903A0910A03B0910B03F701818314
:100630009283A383B4834E010894811C911C612C86
:1006400031E0732E6C0E7D1EF70181819281A381B2
:10065000B48185839683A783B087D70119961D92AD
:100660001D921D921C921C97F401650109C0819393
:100670000894C11CD11CE615F70511F49FEF08C0C2
:100680009C2D9A19D6018C91882311F08F3279F71D
:10069000F60180818F3219F40894C11CD11C9F3F50
:1006A00079F0992319F410920F0330C0F401E90F87
:1006B000F11D1082C7010E9409028C01009729F4E4
:1006C000C7010E94390285E07DCFC401B8010E94B4
:1006D000EB19892B79F700501F4FD8018C910050EE
:1006E000114084FD05C0C7010E94390284E06ACF31
:1006F0000B5F1E4FF80180819181A281B381F701C8
:1007000081839283A383B48356019ECFC701C050D7
:10071000DF4F0FB6F894DEBF0FBECDBFCF91DF9194
:100720001F910F91FF90EF90DF90CF90BF90AF900F
:100730009F908F907F906F90089560E070E080E0D0
:1007400090E0089580E0089580E008958FEF9FEF96
:1007500008950895FC0173836283089520E0FC01ED
:10076000828193818617970709F421E0822F0895EB
:10077000FC01138212820895FC01608971898289CB
:10078000938908952F923F924F925F926F927F923A
:100790008F929F92AF92BF92CF92DF92EF92FF9291
:1007A0000F931F93CF93DF93EC013A014B01180194
:1007B0002901688D798D8A8D9B8D61147104810466
:1007C000910409F457C06F3F71058105910561F0EF
:1007D000EC81FD81A081B18112962D913C911397FE
:1007E000CF0160E0F9010995188E198E1A8E1B8EC3
:1007F0006C8A7D8A8E8A9F8ACC80DD80D601AD90FE
:10080000BC908EEF9FEFAFEFBFEF680E791E8A1E90
:100810009B1E2E8130E040E050E0C401B3010E94F5
:100820005C188201710129E016950795F794E79409
:100830002A95D1F7E60EF71E081F191F2C853D8556
:100840004E855F852E0D3F1D401F511FD501ED9137
:10085000FC91C60160E00995AC81BD81ED91FC91F0
:100860001197B10171700480F581E02DCD010995DA
:1008700080E0A7C06F5F7F4F8F4F9F4F688F798F4A
:100880008A8F9B8FEE813E2F330F20E0442737FD68
:100890004095542F0E94AE18611571058105910590
:1008A00009F084C0AC81BD81ED91FC91119702806B
:1008B000F381E02DCD0160E009956C817D81EC88AC
:1008C000FD880E891F8992E0EE0CFF1C001F111F8E
:1008D0009A95D1F7DB01ED91FC91A801970189E090
:1008E00056954795379527958A95D1F788859985A7
:1008F000AA85BB85280F391F4A1F5B1F0190F08115
:10090000E02DCB0160E00995AC81BD81ED91FC91BA
:1009100011978FEF91E0E822F9220480F581E02D14
:10092000CD01B7010995AC81BD81ED91FC91119785
:100930000084F185E02DCD0164E009957B018C01F7
:10094000AC81BD81ED91FC9111970280F381E02D86
:10095000CD0160E00995EC8AFD8A0E8B1F8BCC805F
:10096000DD80D601AD90BC908EEF9FEFAFEFBFEF73
:10097000E80EF91E0A1F1B1F2E8130E040E050E0F8
:10098000C801B7010E945C182C853D854E855F85A6
:10099000260F371F481F591FD501ED91FC91C60145
:1009A00060E00995188E198E1A8E1B8EEC81FD81E0
:1009B000A081B18116962D913C911797CF01F90135
:1009C0000995DF91CF911F910F91FF90EF90DF90EC
:1009D000CF90BF90AF909F908F907F906F905F90DF
:1009E0004F903F902F9008950F931F9340E050E059
:1009F00060E070E000E010E020E030E00E94C20320
:100A000090E01F910F910895FC01808D918DA28D32
:100A1000B38D8F3F9105A105B10511F481E00895D3
:100A20008FEF90E0A0E0B0E0808F918FA28FB38F26
:100A3000A481B581ED91FC9111970280F381E02DA5
:100A4000CD0160E0099508950E9404050895FC0118
:100A5000138212820E9404050895EF92FF920F9371
:100A60001F93CF93DF93EC01DB0179018A011B8295
:100A70001A8285E091E0998388837D836C83ED9170
:100A8000FC910190F081E02DCB0160E00995882375
:100A900011F481E0C3C0AC81BD81ED91FC9111974F
:100AA0000480F581E02DCD016BE070E00995AC810B
:100AB000BD81ED91FC9111970084F185E02DCD0170
:100AC00062E00995605072408040904011F082E0F1
:100AD0002BC0AC81BD81ED91FC9111970680F7810F
:100AE000E02DCD0109958E83AC81BD81ED91FC9106
:100AF00011970084F185E02DCD0162E009956E0D1E
:100B00007F1D801F911F688779878A879B87AC81AB
:100B1000BD81ED91FC9111970680F781E02DCD010B
:100B20000995823019F083E08F8369C0AC81BD8163
:100B3000ED91FC9111970480F581E02DCD0163E1E9
:100B400070E00995E884F9840A851B85AC81BD8134
:100B5000ED91FC9111970084F185E02DCD0164E0C9
:100B60000995660F771F881F991FE60EF71E081F4D
:100B7000191FEC86FD860E871F87AC81BD81ED9124
:100B8000FC9111970480F581E02DCD0164E070E0C7
:100B90000995AC81BD81ED91FC9111970084F1859F
:100BA000E02DCD0164E00995688B798B8A8B9B8B56
:100BB000AC81BD81ED91FC9111970480F581E02D10
:100BC000CD016EEC71E00995AC81BD81ED91FC9198
:100BD00011970084F185E02DCD0162E009956555FE
:100BE0007A4A8040904011F084E09ECF1F828FEFC0
:100BF00090E0A0E0B0E0888F998FAA8FBB8FEC8146
:100C0000FD81A081B18112962D913C911397CF0166
:100C100060E0F9010995882311F485E08F83DF9165
:100C2000CF911F910F91FF90EF900895EF92FF9257
:100C30000F931F93CF93DF93EC01DB0179018A01BE
:100C40001B821A8285E091E0998388837D836C837F
:100C5000ED91FC910190F081E02DCB0160E00995D0
:100C6000882311F481E0C3C0AC81BD81ED91FC917A
:100C700011970480F581E02DCD016BE070E00995BE
:100C8000AC81BD81ED91FC9111970084F185E02D3F
:100C9000CD0162E00995605072408040904011F0B3
:100CA00082E02BC0AC81BD81ED91FC911197068053
:100CB000F781E02DCD0109958E83AC81BD81ED9149
:100CC000FC9111970084F185E02DCD0162E009953A
:100CD0006E0D7F1D801F911F688779878A879B878C
:100CE000AC81BD81ED91FC9111970680F781E02DDB
:100CF000CD010995823019F083E08F8369C0AC8102
:100D0000BD81ED91FC9111970480F581E02DCD011D
:100D100063E170E00995E884F9840A851B85AC815C
:100D2000BD81ED91FC9111970084F185E02DCD01FD
:100D300064E00995660F771F881F991FE60EF71E5E
:100D4000081F191FEC86FD860E871F87AC81BD81A9
:100D5000ED91FC9111970480F581E02DCD0164E0C7
:100D600070E00995AC81BD81ED91FC9111970084F3
:100D7000F185E02DCD0164E00995688B798B8A8B34
:100D80009B8BAC81BD81ED91FC9111970480F58125
:100D9000E02DCD016EEC71E00995AC81BD81ED9146
:100DA000FC9111970084F185E02DCD0162E0099559
:100DB00065557A4A8040904011F084E09ECF1F82B2
:100DC0008FEF90E0A0E0B0E0888F998FAA8FBB8F63
:100DD000EC81FD81A081B18112962D913C911397F8
:100DE000CF0160E0F9010995882311F485E08F8334
:100DF000DF91CF911F910F91FF90EF900895CF92C7
:100E0000DF92EF92FF920F931F93CF93DF93EC014A
:100E10007B01EC81FD81D82ECD2EA081B1811C9665
:100E20002D913C911D97CF01BE01F90109958823B1
:100E3000B1F1E881F9810484F585E02DCE01B70197
:100E40000995882361F131C0FB82EA82EC81FD8142
:100E5000A081B1811C962D913C911D97CF016D2DE4
:100E60007C2DF9010995882369F4EC81FD81A0812D
:100E7000B1811A962D913C911B97CF016D2D7C2D40
:100E8000F9010995F80144815581668177810085D2
:100E9000118522853385CE010E94C20306C0C70199
:100EA0000E946E0B8C01009779F6DF91CF911F9114
:100EB0000F91FF90EF90DF90CF900895AF92BF9287
:100EC000CF92DF92EF92FF920F931F93CF93DF9316
:100ED000162F072F6A01E62FF72FDF010D90002054
:100EE000E9F7CD018E1B9F0B0E94D618B82EA92EB4
:100EF000612F702F0E94FE192B2D3A2DC901FC0184
:100F000000E010E004C08F3209F48F013196808137
:100F10008823C9F70115110531F0F80111928F01ED
:100F20008B2D9A2D02C080E091E00E947C027C0112
:100F30000097B1F58B2D9A2D0E9483193EC0CE01EA
:100F4000B8010E94EB19892B59F5C050DF4F8881F9
:100F5000C050D14084FD2AC0CB5FDE4F888199818B
:100F6000AA81BB81F60184839583A683B78310860B
:100F7000118612861386FE01B291A29192918291FE
:100F8000F60184879587A687B7878B2D9A2D0E94B7
:100F90008319C7010E94390210920F0381E011C02A
:100FA000C7010E940902EC01009749F68B2D9A2D8A
:100FB0000E948319C7010E94390285E080930F03C4
:100FC00080E0DF91CF911F910F91FF90EF90DF9024
:100FD000CF90BF90AF9008950F931F93182F062FB7
:100FE000882321F4662311F480E00BC0812F90E068
:100FF0000E94DD19892B21F0002311F4812F01C0FB
:101000008FE31F910F9108952F923F924F925F921D
:101010006F927F928F929F92AF92BF92CF92DF9208
:10102000EF92FF920F931F93DF93CF93CDB7DEB76D
:1010300062970FB6F894DEBF0FBECDBF2C017E873E
:101040006D871A01FB014581568167817085018595
:101050001285238534850E94C2033E010894611CD9
:10106000711CCE010D96988B8F87ED85FE8581854D
:101070009285A385B4858096A11DB11D8187928735
:10108000A387B48763017301C20140E050E060E0D0
:1010900070E000E010E020E030E00E94C203F701C1
:1010A00081937F018F859889E817F90769F729816E
:1010B000253E89F4FF24C20140E050E060E070E08A
:1010C00000E010E020E030E00E94C203F39494E1DD
:1010D000F91689F7CACF222329F4C2010E94040518
:1010E00080E0E3C28C858F3009F0F7C06FEB862E6D
:1010F00082228982282D30E08DE090E0289FF00147
:10110000299FF00D389FF00D1124E20DF31D108280
:101110005DE0952EFE013C96FA8BE98BCDC0ED8506
:10112000FE8581859285A385B4858096A11DB11D1C
:1011300081879287A387B487899C500111248E01EF
:101140000E5F1F4F7101EA0CFB1CF8018081618169
:101150000E94EC07F70181937F010E5F1F4F898981
:101160009A890817190789F7C20140E050E060E04A
:1011700070E000E010E020E030E00E94C203C20115
:1011800040E050E060E070E000E010E020E030E09F
:101190000E94C20345E0C42ED12CCA0CDB1CC20C39
:1011A000D31C35E0E32EC20140E050E060E070E087
:1011B00000E010E020E030E00E94C203F82EC201FF
:1011C00040E050E060E070E000E010E020E030E05F
:1011D0000E94C203682F8F2D0E94EC07F6018193B5
:1011E0006F01E394FBE0EF16F1F6C20140E050E03E
:1011F00060E070E000E010E020E030E00E94C20318
:10120000C20140E050E060E070E000E010E020E06B
:1012100030E00E94C203C20140E050E060E070E0B4
:1012200000E010E020E030E00E94C203F82EC2018E
:1012300040E050E060E070E000E010E020E030E0EE
:101240000E94C203682F8F2D0E94EC077501E20CEB
:10125000F31CF7018387C20140E050E060E070E0DA
:1012600000E010E020E030E00E94C203D82EC2016E
:1012700040E050E060E070E000E010E020E030E0AE
:101280000E94C203682F8D2D0E94EC07F70184870E
:101290007301C20140E050E060E070E000E010E067
:1012A00020E030E00E94C203F70181937F018F8527
:1012B0009889E817F90769F78A949FEF891609F06A
:1012C0002ECFC20140E050E060E070E000E010E0AE
:1012D00020E030E00E94C203ABC084FF34C0C201F2
:1012E00040E050E060E070E000E010E020E030E03E
:1012F0000E94C203982FFE013B968081803259F0F4
:101300007101092F10E0087010702CE0A22EB12C92
:10131000AC0EBD1E06C010823197EC17FD0769F7B1
:10132000EFCFF60180810115110519F090E00E94C0
:10133000E319F70181937F010894C11CD11CCA14E1
:10134000DB0479F775C0C20140E050E060E070E076
:1013500000E010E020E030E00E94C203882EFE0191
:1013600038968081803261F000E010E05E010894E0
:10137000A11CB11CE82CFF24F8E0EF22FF2422C0BE
:1013800010823197EC17FD0761F7EECFE114F104FD
:1013900019F090E00E94E319F101E00FF11F808342
:1013A000D3940F5F1F4F0830110561F48B85803295
:1013B00099F41B868A85803279F41A868985803271
:1013C00049F00AC0D02EF501E00FF11F808188237B
:1013D000E9F6ECCF198606C0F101ED0DF11D8EE2A4
:1013E0008083D3948E01075F1F4FCD2CE82CFF2400
:1013F00080E1E822FF249CE0A92EB12CAC0EBD1E9A
:10140000F8018081E114F10419F090E00E94E319E1
:10141000F101EC0DF11D8083C3940F5F1F4F0A157E
:101420001B0571F7F3E0DF0EF101ED0DF11D1082E8
:1014300080E091E0280E391E8C85F101808380E0E8
:101440009FEF280E391EFF24C20140E050E060E00B
:1014500070E000E010E020E030E00E94C203F3946E
:1014600097E0F91689F7C20140E050E060E070E0D3
:1014700000E010E020E030E00E94C203C82EDD242E
:10148000EE24FF247601DD24CC2405E0A02E01E02B
:10149000B02EA20CB31CF501C082D182E282F3828D
:1014A000C20140E050E060E070E000E010E020E0C9
:1014B00030E00E94C20390E0A0E0B0E0B82FAA277D
:1014C000992788278C299D29AE29BF29F50180837A
:1014D0009183A283B383FF24C20140E050E060E027
:1014E00070E000E010E020E030E00E94C203F394DE
:1014F000F4E0FF1689F7A5E06A2EA1E07A2E620CCF
:10150000731CF30180809180A280B380C20140E00F
:1015100050E060E070E000E010E020E030E00E9489
:10152000C203C82EDD24EE24FF24C828D928EA28C7
:10153000FB28F301C082D182E282F382C20140E043
:1015400050E060E070E000E010E020E030E00E9459
:10155000C20390E0A0E0B0E0BA2FA92F982F88270F
:101560008C299D29AE29BF29F30180839183A28311
:10157000B383C20140E050E060E070E000E010E0C2
:1015800020E030E00E94C203C82EDD24EE24FF24B8
:10159000E1E06E2E7E2E620C731CF301C082D182BC
:1015A000E282F382C20140E050E060E070E000E0DF
:1015B00010E020E030E00E94C203882E9924AA2483
:1015C000BB24BA2CA92C982C88248C289D28AE28C2
:1015D000BF28F30180829182A282B382C20140E0DF
:1015E00050E060E070E000E010E020E030E00E94B9
:1015F000C203C82EDD24EE24FF247601DD24CC2492
:10160000C828D928EA28FB28F301C082D182E282C7
:10161000F382C20140E050E060E070E000E010E0E2
:1016200020E030E00E94C20390E0A0E0B0E0B82FDC
:10163000AA2799278827C82AD92AEA2AFB2AF30148
:10164000C082D182E282F382C2010E940405F201CB
:101650002489358946895789ED85FE85858196815E
:10166000A781B085281739074A075B07E9F0ED85A0
:10167000FE852583368347835087F2018681382F84
:10168000330F20E0442737FD4095542FED85FE852C
:1016900061857285838594850E94AE18ED85FE85EF
:1016A000618772878387948781E062960FB6F8948A
:1016B000DEBF0FBECDBFCF91DF911F910F91FF9085
:1016C000EF90DF90CF90BF90AF909F908F907F90E2
:1016D0006F905F904F903F902F900895BC01809144
:1016E0001603482F50E0A0E1B3E020E030E0CA014B
:1016F000022E02C0959587950A94E2F780FF0BC0F1
:10170000ED91FC911197818192818617970719F4C9
:1017100010920F030BC02F5F3F4F129623303105FD
:1017200031F78FEF80930F03E0E0F0E0CF010895F1
:101730000F931F938C01A0910D03B0910E03ED91B7
:10174000FC9111970284F385E02DCD01B801099534
:10175000C8010E946E0BFC01009769F0208531855D
:101760004285538584859585A685B78528173907D1
:101770004A075B0719F42FEF3FEF16C02F5F3F4F6B
:101780004F4F5F4F2087318742875387E0910D038A
:10179000F0910E03A081B18116962D913C9117977F
:1017A000CF01F90109959C01C9011F910F9108957D
:1017B000CF93DF93E82F8FEF80930F03E23068F42D
:1017C000CE2FD0E08091160390E00E2E02C09595AA
:1017D00087950A94E2F780FD03C02FEF3FEF1AC010
:1017E00010920F03FE01EE0FFF1FE05FFC4F8081A0
:1017F00091810E94831981E090E002C0880F991FB7
:10180000CA95E2F7809520911603282320931603AA
:1018100020E030E0C901DF91CF9108950F931F932D
:101820008C01A0910D03B0910E03ED91FC911197E5
:101830000084F185E02DCD010995C8010E946E0B51
:10184000FC0180810E94D80B1F910F910895CF92C7
:10185000DF92FF920F931F93CF93DF936C018091E0
:10186000160380FD04C0C0E0D0E0FF240DC081FD60
:1018700005C0C1E0D0E0FF24F39406C082FD14C08F
:10188000C2E0D0E032E0F32E80E190E00E94D61872
:10189000DC01FE01EE0FFF1FE05FFC4F91838083B0
:1018A000009731F486E001C083E080930F0342C0CB
:1018B00081E090E002C0880F991FCA95E2F720915D
:1018C0001603282B20931603FC92EF2DF0E0EE0F69
:1018D000FF1FE05FFC4F00811181A0910D03B091CB
:1018E0000E03ED91FC9111970480F581E02DCD015F
:1018F000B601A8010995882351F410910F038F2D8B
:101900000E94D80B892BB1F410930F0313C080E011
:1019100090E068E97BE00E94051AEC01F8019283EF
:101920008183009749F48F2D0E94D80B86E0809325
:101930000F0302C0C0E0D0E0CE01DF91CF911F9134
:101940000F91FF90DF90CF90089587E193E00E9480
:101950009C100895279A2F9A0E94F51178940E945E
:10196000BC1482E00E94991480EE97E090933003BB
:1019700080932F03109232031092310380E090E0A5
:101980000E948816109228031092270310922A03AF
:10199000109229030E947D1790933D0380933C038E
:1019A000119A08952F923F924F925F926F927F9279
:1019B0008F929F92AF92BF92CF92DF92EF92FF925F
:1019C0000F931F93DF93CF93CDB7DEB7C354D040AF
:1019D0000FB6F894DEBF0FBECDBF0E94AA0C71E116
:1019E000672E712C6C0E7D1E9E01285F3F4F249642
:1019F0003FAF2EAF249766E2A62EB12CAC0EBD1ED3
:101A000050E7852E52E0952E4AE3442E42E0542EB4
:101A100035EF232E31E0332E0AC089E291E00E9497
:101A2000D11A87E193E00E94BC108823D1F78091FE
:101A30003103909132030E9488161092280310926D
:101A4000270310922A031092290381E08093240334
:101A500086E591E00E94D11A82E791E00E94D11AB6
:101A600087E193E00E94BC108823D1F3189903C04A
:101A70008AE891E002C08FE891E000D000D0E0E970
:101A8000F1E0ADB7BEB71296FC93EE9311971496A2
:101A90009C938E9313970E94BC1A0F900F900F90F7
:101AA0000F9087E193E00E946B118823F9F000D03A
:101AB00000D000D0EDB7FEB7319625EB31E0ADB7E1
:101AC000BEB712963C932E93119782831382809116
:101AD0002103848315820E94BC1A8DB79EB7069697
:101AE0000FB6F8949EBF0FBE8DBF97CF00D000D029
:101AF000EDB7FEB7319629ED31E0ADB7BEB712961E
:101B00003C932E93119780911B0390911C03A091FD
:101B10001D03B0911E0324E1B695A795979587956F
:101B20002A95D1F7938382830E94BC1A0F900F905D
:101B30000F900F90E0911703F09118030190F0813E
:101B4000E02D87E193E060E020E030E040E050E00D
:101B50000995882311F411E074C0E0911703F09106
:101B600018030480F581E02D87E193E06EEB71E0CE
:101B7000099596E1E92EF12CEC0EFD1E63013AC0A9
:101B8000E0911703F09118030680F781E02D87E1BB
:101B900093E00995D8018D938D01A615B70581F7BE
:101BA0008D81F6018083D7012D913D914D915C91FE
:101BB000FE013C96542F432F322F2227808190E044
:101BC000A0E0B0E0282B392B4A2B5B2B31972496D1
:101BD0008EAD9FAD2497E817F90761F7D7012D93D4
:101BE0003D934D935D937D010894C11CD11CAA15B2
:101BF000BB0521F08E010F5F1F4FC2CFE09117038D
:101C0000F09118030084F185E02D87E193E062E014
:101C1000099565557A4A8040904011F410E001C062
:101C200012E0E0911703F09118030280F381E02D98
:101C300087E193E060E00995882309F4C0C011238F
:101C400079F000D000D0EDB7FEB7319620EE31E04C
:101C5000ADB7BEB712963C932E93119712830FC067
:101C600089898C30A1F000D000D0EDB7FEB7319655
:101C7000ADB7BEB712963C922E9211978283138213
:101C80000E94BC1A0F900F900F900F90C6CE89E162
:101C900092E00E94D11A2E893F89488D598DC50145
:101CA00067E173E00E9416068DA5882361F000D0DD
:101CB00000D0EDB7FEB73196ADB7BEB712965C92C5
:101CC0004E921197DBCFC5010E94F501579A83E030
:101CD0008093B0001092B1001092B2001092B30045
:101CE0001092B600109270008FEF87BB81E0809356
:101CF000B100109280001092820010926F0010923A
:101D000081001092850010928400B19A00D000D01A
:101D10002DE532E0EDB7FEB73283218394828382D2
:101D20000E94BC1A0F900F900F900F90C4016CE8A6
:101D300072E00E94270C8C01009781F400D000D043
:101D4000EDB7FEB731962EE832E0ADB7BEB71296CA
:101D50003C932E93119780910F0390CF83E880934B
:101D6000B0008CED95E0909389008093880089E025
:101D70008093810007C0B19BFECFB19A8093B300DE
:101D80000E940E12C8010E94511A3FEF8F3F930725
:101D900091F7109281001092850010928400B19A00
:101DA00083E08093B000C8010E940E0C60913E0356
:101DB00070913F0381EB92E00E94931A2ECE13E0C4
:101DC00040CF882331F084B18F7184B985B18F7190
:101DD00006C084B1806B84B9269885B1806F85B9BF
:101DE0000895EF92FF920F931F939B01AC01892FEF
:101DF0009927AA27BB278EBD0DB407FEFDCFEEB5F0
:101E0000CA01AA27BB278EBD0DB407FEFDCF6EB554
:101E1000BB27A52F942F832F8EBD0DB407FEFDCFBA
:101E20007EB52EBD0DB407FEFDCFEEB42E2F30E0F3
:101E300040E050E0522F442733272227862F90E09E
:101E4000A0E0B0E0DC0199278827282B392B4A2B0A
:101E50005B2BFF2400E010E02E293F29402B512B63
:101E6000872F90E0A0E0B0E0BA2FA92F982F882705
:101E7000282B392B4A2B5B2BB901CA011F910F91DB
:101E8000FF90EF90089580E0089580E0089580E04D
:101E90000895FC0173836283089520E0FC01828130
:101EA00093818617970709F421E0822F0895FC019A
:101EB0001382128208950F931F93CF93DF938C01A7
:101EC000EB0109C0D801ED91FC910680F781E02D6E
:101ED000C801099521972097A9F7DF91CF911F910C
:101EE0000F910895AF92BF92CF92DF92EF92FF923F
:101EF0000F931F93CF93DF935C01C62EEE24FF2434
:101F00008701DD24C0E0D0E019C0D501ED91FC913E
:101F10000680F781E02DC501099590E0A0E0B0E0D2
:101F20000C2E04C0880F991FAA1FBB1F0A94D2F75A
:101F3000E82AF92A0A2B1B2BD3942896DC1428F3C1
:101F4000B701C801DF91CF911F910F91FF90EF90E2
:101F5000DF90CF90BF90AF9008951F93182F81E02E
:101F60000E94E10E2C9A812F1F910895982F2C9A90
:101F70002C988FEF8EBD0DB407FEFDCF8EB590640B
:101F80009EBD0DB407FEFDCF8EB5872F9927AA27DA
:101F9000BB278EBD0DB407FEFDCF8EB5CB01AA27A2
:101FA000BB278EBD0DB407FEFDCF8EB5BB27A72F77
:101FB000962F852F8EBD0DB407FEFDCF8EB54EBD7D
:101FC0000DB407FEFDCF8EB5220F21602EBD0DB4DE
:101FD00007FEFDCF8EB508951F93CF93DF93EC01DD
:101FE000162F8CE040E050E060E070E02FEF0E94A0
:101FF000B60F8FEF8EBD0DB407FEFDCF8EB511234A
:1020000069F49FEF9EBD0DB407FEFDCF8EB58F3FE7
:10201000C9F38A87882311F080E009C09FEF9EBD35
:102020000DB407FEFDCF8EB58F3FC9F781E00E944A
:10203000AD0F811181E0DF91CF911F9108950E9432
:10204000B60F9FEF9EBD0DB407FEFDCF8EB58F3F3F
:10205000C9F30895CF92DF92EF92FF921F93CF932F
:10206000DF93EC01162F69017A0180E00E94E10EF6
:1020700019861886112311F481E101C088E18F5F70
:10208000B701A6012FEF0E941F108A87882321F035
:1020900080E00E94AD0F811181E0DF91CF911F910F
:1020A000FF90EF90DF90CF900895FC01808591859F
:1020B0009170892BA9F48FEF8EBD0DB407FEFDCF73
:1020C0008EB58FEF8EBD0DB407FEFDCF8EB59FEFA1
:1020D0009EBD0DB407FEFDCF8EB58F3FC9F382873D
:1020E000808591850196918780878FEF8EBD0DB495
:1020F00007FEFDCF8EB508950F931F938C01FC0151
:10210000138212828BEC92E09183808384B18C7F66
:1021100084B985B1836085B980E00E94E10E82E5D3
:102120008CBD8DB581608DBD81E00E94E10EF8010E
:1021300012861F910F9108950F931F938C01FC013C
:10214000138212828BEC92E09183808384B18C7F26
:1021500084B985B1836085B980E00E94E10E82E593
:102160008CBD8DB581608DBD81E00E94E10EF801CE
:1021700012861F910F910895199B02C080E0089567
:1021800088E893E12CE231E0F9013197F1F701970A
:10219000D9F74CE251E023B180ED97E0FA01319795
:1021A000F1F70197D9F783B181702170281799F75A
:1021B00081E00895EF92FF921F93CF93DF937C010C
:1021C000EB01142F80E00E94E10E812F40E050E0EF
:1021D00060E070E02FEF0E941F108A87882331F59E
:1021E0009FEF9EBD0DB407FEFDCF8EB58F3FC9F3A7
:1021F0008A878E3FD9F4F7019FEF9701205F3F4F09
:102200009EBD0DB407FEFDCF8EB58193E217F30797
:10221000B9F78FEF8EBD0DB407FEFDCF8EB58FEFF2
:102220008EBD0DB407FEFDCF8EB51A8680E00E94EC
:10223000AD0FC701DF91CF911F91FF90EF900895EF
:102240000F931F93DF93CF93CDB7DEB760970FB691
:10225000F894DEBF0FBECDBF8C01CE010196B80150
:1022600049E00E94DA10F8018285882329F020E0F5
:1022700030E040E050E022C0888590E0A0E0B0E08F
:10228000AC0133272227898590E0A0E0B0E0BA2F87
:10229000A92F982F8827282B392B4A2B5B2B8A852F
:1022A00090E0A0E0B0E0282B392B4A2B5B2B69E0B3
:1022B000220F331F441F551F6A95D1F7B901CA0178
:1022C00060960FB6F894DEBF0FBECDBFCF91DF9101
:1022D0001F910F910895CF93DF93EC01199B02C0DA
:1022E00081E080C080E00E94E10E82E58CBD8DB56A
:1022F00081608DBD88EB9BE00197F1F72C9A80E01F
:102300009FEF9EBD0DB407FEFDCF2EB58F5F8A30C7
:10231000C1F780E040E050E060E070E02AE40E9415
:102320001F108A87823010F082E05AC088E04AEAA3
:1023300051E060E070E023E40E941F108A87823041
:1023400010F083E04DC06FEF7FEF8FEF9FEF0E94A3
:10235000F10E7F70807090706A5A7140804090409A
:1023600011F084E03DC087E340E050E060E070E0C1
:102370002FEF0E941F10823040F489E240E050E0CD
:1023800060E070E42FEF0E941F108A87882321F0FD
:10239000813049F385E024C08AE340E050E060E00A
:1023A00070E02FEF0E941F108A87882311F086E0CB
:1023B00017C06FEF7FEF8FEF9FEF0E94F10E96FD3A
:1023C00002C087E00DC080E58CBD8DB581608DBDFC
:1023D000CE010E9420116C837D838E839F8380E0D9
:1023E0000E94AD0FDF91CF910895109223038AB11F
:1023F0008C618AB98BB18C618BB988E08093C900FC
:1024000082EC8093CA001092CD0085E08093CC00CE
:10241000E8ECF0E0808180648083089591E09093FF
:10242000CE0080932203E9ECF0E08081806280831B
:1024300008951F920F920FB60F9211248F93EF936E
:10244000FF93809122038093CE00E9ECF0E080813D
:102450008F7D8083808180648083FF91EF918F9155
:102460000F900FBE0F901F90189578941F920F92A7
:102470000FB60F9211248F9380912303882331F498
:10248000809123038F5F809323030AC05A98000032
:10249000109223038091C9008F7B8093C9005A9AC0
:1024A0008F910F900FBE0F901F90189598B91398A9
:1024B000139A88B91398139A0895149888B91398A1
:1024C000139A149A0895282F30E0A9014170507092
:1024D00080FD02C098E201C098E49093350321FF8B
:1024E00004C080EC98279093350322FF0AC0909196
:1024F0003503452B11F480E401C080E889278093DF
:10250000350386E30E945D128091350388B91398E4
:10251000139A0895AF92BF92CF92DF92EF92FF92FB
:102520000F931F938C017B016A0159018AE20E947B
:102530005D12C8010E94561201501040C8018C0D56
:102540009D1D0E9456128BE20E945D12C7010E94DF
:1025500056120894E108F108C7018A0D9B1D0E94DC
:1025600056121F910F91FF90EF90DF90CF90BF9088
:10257000AF900895CF93DF939C01EA0180912B03E4
:1025800090912C0328173907A0F480912D03909186
:102590002E036817790768F4C90141E050E021E093
:1025A00030E00E948A128CE20E945D12CE010E94ED
:1025B0005612DF91CF910895982FE091F702F09194
:1025C000F8028081891719F48181861761F0EFEE96
:1025D000F2E08081891749F48181861731F4F09304
:1025E000F802E093F70281E008950680F781E02D7C
:1025F000309779F780E00895CF92DF92EF92FF92C3
:102600000F931F93CF93DF93FC016A017901141696
:1026100015060CF04FC0121613060CF04BC097FFB6
:1026200004C0C80ED91EE0E0F0E077FF04C0E60E5B
:10263000F71E60E070E01C141D04E4F51E141F0476
:10264000CCF520912B0330912C03C6018E0F9F1FD8
:102650002817390718F46901CE1ADF0A20912D03D3
:1026600030912E03C701860F971F2817390718F4DA
:102670007901E61AF70A1C141D04E4F41E141F0461
:10268000CCF4CF01A60197010E948A128CE20E942D
:102690005D120AC0C8010E9456122196CC15DD05B4
:1026A000C8F30894E108F108E114F10419F0C0E05E
:1026B000D0E0F4CFDF91CF911F910F91FF90EF9079
:1026C000DF90CF9008952F923F924F925F926F923A
:1026D0007F928F929F92AF92BF92CF92DF92EF92B2
:1026E000FF920F931F93CF93DF932C013B015A016D
:1026F0004901C02EDD24EA01CC19DD09AE019601A5
:1027000087010E94FC1214012C183D08A40CB51C72
:10271000C5018C199D09B301A60191010E94FC120B
:10272000B601660D771DC201A60191010E94FC123F
:10273000860C971C8C189D08C601840D951DB4014C
:10274000AE0196010E94FC12DF91CF911F910F9173
:10275000FF90EF90DF90CF90BF90AF909F908F90C1
:102760007F906F905F904F903F902F9008954F9281
:102770005F926F927F928F929F92AF92BF92CF9211
:10278000DF92EF92FF920F931F93CF93DF93EC01B1
:102790007B016A015901280180912B0390912C0340
:1027A0008C179D0710F4EC0121978C159D0520F4E2
:1027B0006C010894C108D10880912D0390912E03DB
:1027C0008E159F0520F47C010894E108F1088A1514
:1027D0009B0520F45C010894A108B108CC15DD0527
:1027E00089F4AE14BF0418F4C50157017C010894A4
:1027F000A11CB11CAE18BF08CE01B70141E050E0EA
:10280000950113C0EA14FB04A1F4CC16DD0618F4FC
:10281000C6016E01EC010894C11CD11CCC1ADD0A62
:10282000CE01B701A60121E030E082010E94FC1236
:102830006FC036016C1A7D0A77FE04C070946194F3
:102840007108739445018E189F0897FE04C09094F8
:102850008194910893946814790470F5AE14BF04C0
:1028600030F4C6016E01EC01C50157017C0100E0A6
:1028700010E01EC0CC16DD0618F021E030E002C0EA
:102880002FEF3FEFC801B4010E948718269FC001B7
:10289000279F900D369F900D11248C0F9D1FB7011F
:1028A000A2010E94BA120894E11CF11C060D171D2A
:1028B000AE14BF04F8F62CC0CC16DD0630F4C60109
:1028C0006E01EC01C50157017C0100E010E01DC064
:1028D000AE14BF0418F021E030E002C02FEF3FEF4C
:1028E000C801B3010E948718CB01289FB001299F1E
:1028F000700D389F700D11246E0D7F1DCE01A20149
:102900000E94BA122196080D191DCC16DD0600F79B
:10291000DF91CF911F910F91FF90EF90DF90CF90BB
:10292000BF90AF909F908F907F906F905F904F90EF
:10293000089540E451E050932C0340932B0320EF83
:1029400030E030932E0320932D0380FF08C0309396
:102950002C0320932B0350932E0340932D031092AE
:1029600028031092270310922A03109229038093C0
:1029700025030E94631208951F9392B188B198179E
:1029800021F098B188B1981731F485B7806885BF78
:1029900085B7806885BF8FE781B98DEF82B917B899
:1029A0008FEF88B912981098139A159A149A169A5C
:1029B00088E28A95F1F7129A80EB94E02CE231E0FC
:1029C000F9013197F1F70197D9F78FEF87B988E2CD
:1029D0000E945D1281E10E945D1280EB94E02CE286
:1029E00031E0F9013197F1F70197D9F784E30E94BB
:1029F0005D1288E30E945D1283E10E945D1280E215
:102A00000E945D128AE30E945D1285E588B91398E1
:102A1000139A86E30E945D1288E488B91398139A8A
:102A20008CE20E945D1280E090E00EC018B813980E
:102A3000139A18B81398139A2F5F203FB9F701968D
:102A400021E08034920711F020E0F0CF81EB0E946A
:102A50005D1218B81398139A18E118B91398139ABD
:102A600083EB0E945D1218B81398139A18B9139843
:102A7000139A89E20E945D12109228031092270394
:102A800010922A031092290381E0809324030E946C
:102A9000991484E0809326038FEF9FEF9093300387
:102AA00080932F0310923203109231031F910895E7
:102AB000BF92CF92DF92EF92FF920F931F93CF932B
:102AC000DF93182F2091270330912803E091F7021C
:102AD000F091F802508140912403459FC0011124D8
:102AE000820F931F97FD5CC08181489FB02C1124F9
:102AF000459FE02C11246091290370912A03C9019C
:102B00004E2D50E02B2D30E00E948A128CE20E9464
:102B10005D12FF24C12EDD2440C0E091F702F09148
:102B2000F802609124038F2D90E070E00E948718D6
:102B300083819601281B3109828190E0AC01249F9A
:102B4000C001259F900D349F900D1124860F971F73
:102B50000480F581E02DE80FF91F049110E0C1E039
:102B6000D0E018C007FF05C080912F03909130037B
:102B700004C080913103909132030E9456126091FB
:102B80002403CE0170E00E949B18892B09F4000FEA
:102B90001F5F21961E1530F3F394FB1408F4BDCF8C
:102BA000DF91CF911F910F91FF90EF90DF90CF9029
:102BB000BF9008959F92AF92BF92CF92DF92EF9213
:102BC000FF920F931F93CF93DF93EC01CB01590139
:102BD00068019E2CBA01A90198010E948A128CE218
:102BE0000E945D1220E010E0EE2428C0022F0F5F4B
:102BF000222351F4CE010196992021F0FE01EC012F
:102C0000149102C01881EC0117FF05C080912F03B9
:102C10009091300304C080913103909132030E945F
:102C20005612083011F400E001C0110FF394202F68
:102C30008F2D90E08A159B05C8F2E3948E2D90E0CD
:102C40008C159D0510F4FF24F3CFDF91CF911F91D8
:102C50000F91FF90EF90DF90CF90BF90AF909F903B
:102C600008959F92AF92BF92CF92DF92EF92FF9220
:102C70000F931F93CF93DF93EC01CB0159016801B0
:102C80009E2CBA01A90198010E948A128CE20E942E
:102C90005D1210E0EE2428C0022F0F5F222351F4B2
:102CA000CE010196992021F0FE01EC01149102C0A1
:102CB0001881EC0117FF05C080912F03909130031C
:102CC00004C080913103909132030E945612083063
:102CD00011F400E001C0110FF394202F8F2D90E02C
:102CE0008A159B05C8F2E3948E2D90E08C159D0506
:102CF00018F420E0FF24F2CFDF91CF911F910F91C4
:102D0000FF90EF90DF90CF90BF90AF909F9008958D
:102D10000F931F93CF93DF938C01C0912B03D0911E
:102D20002C0320912D0330912E0380E090E060E091
:102D300070E0AE010E948A128CE20E945D125091F6
:102D40002D0340912E030CC018B91398139A08B99B
:102D50001398139A2150304021153105A9F7219776
:102D6000209721F0852F942F9C01F6CFDF91CF91F2
:102D70001F910F9108951092280310922703E0915C
:102D8000F702F091F802209124038181289F90019D
:102D900011248091290390912A03820F931F90930D
:102DA0002A0380932903820F931F20912D033091D2
:102DB0002E032817390770F4809131039091320364
:102DC0000E948816109228031092270310922A035B
:102DD0001092290308951F93CF93DF93182F893002
:102DE00029F08A30D1F50E94BB1669C0C091270333
:102DF000D0912803E091F702F091F802909124031A
:102E00008081989FF0011124CE01BF010E94871894
:102E1000009731F0C81BD90BD0932803C093270328
:102E20004091260320912703309128032E0F3F1F46
:102E3000E901CE0FDF1FC901BF010E948718CB0136
:102E4000642F70E00E948718892B11F09E01F0CF4B
:102E5000309328032093270332C0803280F1E09121
:102E6000F702F091F802809124032081829FC00133
:102E700011242091270330912803820F931F209162
:102E80002B0330912C032817390710F40E94BB162E
:102E9000812F0E945815E091F702F091F8022091DD
:102EA00024038081289F9001112480912703909111
:102EB0002803820F931F9093280380932703DF91A9
:102EC000CF911F9108950E94EB1680E090E0089545
:102ED0001F93CF93DF93162FEC0102C00E94EB16D5
:102EE000112319F0FE01849101C088812196882365
:102EF000A9F7DF91CF911F910895809133039091AD
:102F00003403892B51F483E697E160E070E00E947E
:102F1000051A909334038093330380913303909187
:102F2000340308959F92AF92BF92CF92DF92EF92B7
:102F3000FF920F931F93CF93DF935B016C01BB272D
:102F4000A92F982F872F482F9A2C882381F48A2D18
:102F500090E0A0E0B0E08C01FF24EE242227382F7F
:102F6000492F5A2FE22AF32A042B152B93C07601FE
:102F7000002711278E2D6BE20E947B18182F282F17
:102F800030E085ED9FEFBC01269FC001279F900D8B
:102F9000369F900D11248E0D911D9C01220F331F21
:102FA000280F391F220FEA2DF0E0642F70E04FEF59
:102FB00050E0CA01861B970B8E9FE0018F9FD00DBA
:102FC0009E9FD00D11240D2F30E0269FC001279F1A
:102FD000900D369F900D1124892F9927DA01A81B97
:102FE000B90BCD018E9FD0018F9FB00D9E9FB00D6C
:102FF0001124EB2ECA01821B930B9C01269FC0015A
:10300000279F900D369F900D1124892F9927481BDB
:10301000590B4E9FC0014F9F900D5E9F900D112444
:10302000123099F0133028F4112359F01130C1F403
:1030300005C0133071F0143099F40EC0EB2F2A2D17
:1030400002C0EA2D292F4D2F0EC0ED2F2A2D492F1A
:103050000AC0ED2F2B2F02C0E92F2D2F4A2D03C0C0
:10306000E92D202F4E2D8E2F90E0A0E0B0E08C01B6
:10307000FF24EE24822F90E0A0E0B0E0BA2FA92F29
:10308000982F8827E82AF92A0A2B1B2B842F90E0F7
:10309000A0E0B0E0E82AF92A0A2B1B2BB701C801EF
:1030A000DF91CF911F910F91FF90EF90DF90CF9024
:1030B000BF90AF909F900895629FD001739FF001E1
:1030C000829FE00DF11D649FE00DF11D929FF00DB8
:1030D000839FF00D749FF00D659FF00D9927729FEF
:1030E000B00DE11DF91F639FB00DE11DF91FBD017A
:1030F000CF0111240895991B79E004C0991F9617F8
:1031000008F0961B881F7A95C9F780950895AA1B29
:10311000BB1B51E107C0AA1FBB1FA617B70710F0C2
:10312000A61BB70B881F991F5A95A9F780959095F4
:10313000BC01CD01089597FB092E07260AD077FD23
:1031400004D0E5DF06D000201AF4709561957F4F1A
:103150000895F6F7909581959F4F0895A1E21A2E54
:10316000AA1BBB1BFD010DC0AA1FBB1FEE1FFF1F2B
:10317000A217B307E407F50720F0A21BB30BE40B7B
:10318000F50B661F771F881F991F1A9469F76095C2
:103190007095809590959B01AC01BD01CF0108957C
:1031A000EE0FFF1F0590F491E02D0994CF93DF936C
:1031B000BC018230910510F462E070E0A091380308
:1031C000B0913903ED01E0E0F0E040E050E021C0D3
:1031D000888199818617970769F48A819B81309746
:1031E00019F09383828304C090933903809338034A
:1031F000FE0134C06817790738F44115510519F0FC
:103200008417950708F4AC01FE018A819B819C011B
:10321000E9012097E9F641155105A9F1CA01861B7C
:10322000970B049708F4BA01E0E0F0E02AC08D9112
:103230009C91119784179507F9F46417750781F429
:1032400012968D919C911397309719F093838283F6
:1032500004C09093390380933803FD0132964FC028
:10326000CA01861B970BFD01E80FF91F619371934B
:1032700002978D939C9343C0FD01828193819C01B1
:10328000D9011097A1F68091360390913703892BCD
:1032900041F48091FB029091FC029093370380935C
:1032A00036034091FD025091FE024115510541F453
:1032B0004DB75EB78091F9029091FA02481B590B05
:1032C000209136033091370324173507B0F4CA0133
:1032D000821B930B8617970780F0AB014E5F5F4F01
:1032E0008417950750F0420F531F509337034093B4
:1032F0003603F9016193719302C0E0E0F0E0CF0181
:10330000DF91CF910895CF93DF93009709F450C0D8
:10331000EC0122971B821A82A0913803B0913903E5
:10332000109709F140E050E0AC17BD0708F1BB83EE
:10333000AA83FE0121913191E20FF31FAE17BF075F
:1033400079F48D919C911197280F391F2E5F3F4F73
:103350003983288312968D919C9113979B838A833E
:103360004115510571F4D0933903C093380320C03F
:1033700012968D919C911397AD01009711F0DC018D
:10338000D3CFFA01D383C28321913191E20FF31F8E
:10339000CE17DF0769F488819981280F391F2E5FC6
:1033A0003F4FFA01318320838A819B8193838283FB
:1033B000DF91CF910895803209F0911120C380529E
:1033C0008F55E0F708959111089581548A5108F4BA
:1033D000805E855A0895FB01DC018D9181341CF0DB
:1033E0008B350CF4805E619161341CF06B350CF40C
:1033F000605E861B611189F3990B0895FB01DC0166
:1034000001900D920020E1F708950F931F93CF9341
:10341000DF938C01EB01009731F46115710519F40C
:1034200020E030E038C081E090E06EE070E00E9483
:10343000E31CFC019C01009771F180E883832097D5
:1034400071F0D387C28781E8838380913A0390919A
:103450003B03892B21F4F0933B03E0933A030115DE
:103460001105C9F011870087838182608383809171
:103470003C0390913D03892B71F4F0933D03E0935D
:103480003C0380913E0390913F03892B21F4F093FC
:103490003F03E0933E03C901DF91CF911F910F914C
:1034A0000895CF93DF93EC014B8140FF1AC046FF94
:1034B0000AC04F7B4B838E819F8101969F838E83B1
:1034C0008A81282F2BC042FF13C0E881F9818081B7
:1034D000282F332727FD30952115310529F4406227
:1034E0004B832FEF3FEF1BC03196F983E88311C068
:1034F000EA85FB85CE0109959C0197FF0AC09B8157
:103500002F5F3F4F11F080E201C080E1892B8B8358
:10351000E8CF8E819F8101969F838E8330E0C90121
:10352000DF91CF910895EF92FF920F931F93CF9366
:10353000DF937C018B01DB0113968C9181FD03C02D
:10354000CFEFDFEF13C0C0E0D0E00BC0D80118967A
:10355000ED91FC911997B8010995892B11F0CFEFE6
:10356000DFEFF70181917F01882381F7CE01CDB78D
:10357000DEB7E6E00C94D11DA0E0B0E0E2ECFAE1A9
:103580000C94B91DFE0135966191719180913C03B7
:1035900090913D03AF010E94061B2096E2E00C943F
:1035A000D51D0F931F93CF93DF938C01E0913C03C4
:1035B000F0913D03838181FF21C0C0E0D0E00DC0C8
:1035C000E0913C03F0913D0320853185BF01F90175
:1035D0000995892B11F0CFEFDFEFF80181918F0171
:1035E000882371F7E0913C03F0913D0320853185FC
:1035F0008AE0BF01F9010995892B11F0CFEFDFEFC8
:10360000CE01DF91CF911F910F910895ABE0B0E013
:10361000ECE0FBE10C94A91D3C012B015A01FC01DB
:1036200017821682838181FD03C06FEF7FEFC6C1D1
:103630009AE0892E1E010894211C311CF30123817C
:10364000F20123FD859123FF81912F01882309F445
:10365000B2C1853239F423FD859123FF81912F0179
:10366000853229F490E0B3010E941F1DE7CF982F07
:10367000FF24EE249924FFE1FF15D0F09B3269F07E
:103680009C3228F4903259F0933291F40EC09D325E
:1036900049F0903369F441E024C052E0F52A84E017
:1036A000F82A28C098E0F92A25C0E0E1FE2A22C0C5
:1036B000F7FC29C0892F80538A3070F4F6FE05C0CC
:1036C000989C902C1124980E15C0E89CE02C112495
:1036D000E80EF0E2FF2A0EC09E3229F4F6FC6BC120
:1036E00040E4F42A07C09C3619F450E8F52A02C0D9
:1036F000983649F4F20123FD959123FF91912F0112
:10370000992309F0B8CF892F8554833018F080525F
:10371000833038F444E050E0A40EB51E5FE35983D3
:103720000FC0933631F0933779F0933509F056C0D6
:1037300020C0F5018081898342E050E0A40EB51ECF
:10374000610101E010E012C0F501C080D180F6FCFB
:1037500003C06FEF7FEF02C0692D70E042E050E0E0
:10376000A40EB51EC6010E94141D8C015FE7F52250
:1037700014C0F501C080D180F6FC03C06FEF7FEF6D
:1037800002C0692D70E042E050E0A40EB51EC601F3
:103790000E94021D8C0150E8F52AF3FE07C01AC0F2
:1037A00080E290E0B3010E941F1DEA948E2D90E00C
:1037B00008171907A8F30EC0F601F7FC8591F7FE6C
:1037C00081916F0190E0B3010E941F1DE110EA9406
:1037D000015010400115110579F7EAC0943611F037
:1037E000993669F5F7FE08C0F501208131814281E3
:1037F000538184E090E00AC0F501808191819C01B1
:10380000442737FD4095542F82E090E0A80EB91E62
:103810009FE6F92257FF09C05095409530952195B4
:103820003F4F4F4F5F4FE0E8FE2ACA01B901A101A7
:103830002AE030E00E944B1DD82ED21840C09537A8
:1038400029F41F2D1F7E2AE030E01DC01F2D197F97
:103850009F3661F0903720F4983509F0ACC00FC066
:10386000903739F0983709F0A6C004C028E030E05E
:103870000AC0106114FD146020E130E004C014FDA2
:10388000166020E132E017FF08C0F5016081718108
:103890008281938144E050E008C0F50180819181EC
:1038A000BC0180E090E042E050E0A40EB51EA10112
:1038B0000E944B1DD82ED2188FE7F82EF122F6FE6B
:1038C0000BC05EEFF522D91438F4F4FE07C0F2FC09
:1038D00005C08FEEF82202C01D2D01C0192DF4FE87
:1038E0000DC0FE01ED0DF11D8081803319F499EEBC
:1038F000F92208C01F5FF2FE05C003C08F2D867835
:1039000009F01F5F0F2DF3FC14C0F0FE0FC01E1551
:1039100010F09D2C0BC09D2C9E0C911A1E2D06C0E4
:1039200080E290E0B3010E941F1D1F5F1E15C0F3CF
:1039300004C01E1510F4E11A01C0EE2404FF0FC0EC
:1039400080E390E0B3010E941F1D02FF1DC001FD36
:1039500003C088E790E00EC088E590E00BC0802FA0
:10396000867891F001FF02C08BE201C080E2F7FC93
:103970008DE290E0B3010E941F1D06C080E390E03D
:10398000B3010E941F1D9A94D914C0F3DA94F10177
:10399000ED0DF11D808190E0B3010E941F1DDD201F
:1039A000A9F706C080E290E0B3010E941F1DEA94CF
:1039B000EE20C1F743CEF30166817781CB012B96D0
:1039C000E2E10C94C51D0F931F93CF93DF93689F83
:1039D0008001699F100D789F100D1124C8010E946D
:1039E000D618EC01009729F060E070E0A8010E9471
:1039F0000D1DCE01DF91CF911F910F910895992751
:103A000088270895FC010590615070400110D8F797
:103A1000809590958E0F9F1F0895DC0101C06D93D6
:103A200041505040E0F70895FC0161507040019012
:103A30000110D8F7809590958E0F9F1F08950F93D2
:103A40001F93CF93DF938C01EB018B8181FF1BC010
:103A500082FF0DC02E813F818C819D8128173907FF
:103A600064F4E881F9810193F983E88306C0E8856D
:103A7000F985802F0995892B31F48E819F810196DC
:103A80009F838E8302C00FEF1FEFC801DF91CF919C
:103A90001F910F910895FA01AA27283051F1203182
:103AA00081F1E8946F936E7F6E5F7F4F8F4F9F4FD2
:103AB000AF4FB1E03ED0B4E03CD0670F781F891F14
:103AC0009A1FA11D680F791F8A1F911DA11D6A0FE2
:103AD000711D811D911DA11D20D009F468943F9195
:103AE0002AE0269F11243019305D3193DEF6CF0194
:103AF0000895462F4770405D4193B3E00FD0C9F75A
:103B0000F6CF462F4F70405D4A3318F0495D31FDC6
:103B10004052419302D0A9F7EACFB4E0A695979519
:103B2000879577956795BA95C9F7009761057105EF
:103B300008959B01AC010A2E069457954795379539
:103B40002795BA95C9F7620F731F841F951FA01D93
:103B500008952F923F924F925F926F927F928F9231
:103B60009F92AF92BF92CF92DF92EF92FF920F930C
:103B70001F93CF93DF93CDB7DEB7CA1BDB0B0FB616
:103B8000F894DEBF0FBECDBF09942A8839884888D3
:103B90005F846E847D848C849B84AA84B984C88469
:103BA000DF80EE80FD800C811B81AA81B981CE0F60
:103BB000D11D0FB6F894DEBF0FBECDBFED01089545
:043BC000F894FFCFA7
:103BC4000000000000BC0304085E07F4042405FFA1
:103BD40006AE032705000000009D03A203A403A66C
:103BE40003A903AA03AE03B803546573742066697A
:103BF4006E69736865642C2072656D6F76652053F9
:103C0400444361726420746F2072756E2061676131
:103C1400696E2E2E2E002A2A2A2053444361726490
:103C2400206C6962726172792074657374202A2A27
:103C34002A00506C6561736520696E736572742027
:103C44005344436172642E2E2E006E6F7420000064
:103C54005344436172642064657465637465642CC1
:103C640020257377726974652070726F746563744C
:103C740065642C2000496E697469616C69736174B0
:103C8400696F6E206661696C65643A2025752C2025
:103C94006572723A2025750A0025752047420A008C
:103CA40052656164204D4252206661696C65643AD4
:103CB4002025750A00506172746974696F6E203131
:103CC400202830782530325829206973206E6F748B
:103CD400204641543332210A005061727469746978
:103CE4006F6E20312069732046415433322C207288
:103CF400656164696E672E2E2E00526561642046EC
:103D0400415433322066696C652073797374656D30
:103D1400206661696C65643A2025750A00617070DB
:103D2400733A3A77617628293A20272573270A00BF
:103D34002F496C204D6174746F2F54657374696ED0
:103D4400672F72697665722E7761760072006170F2
:103D540070733A3A77617628293A206F70656E203D
:103D640066696C65206661696C65643A2025750A2C
:103D740000617070733A3A77617628292066696E1B
:103D840069736865640A00000000002A10EC0F5B88
:103D94000F5510720F490F4D0F570F0000000043CD
:103DA4000F450F5B0F470F720F490F4D0F570F064B
:103DB4000808207C000000EF0220004003000000FF
:00000001FF
